:020000040040BA
:10000000102C0020F5304000F1304000F13040006D
:10001000F1304000F1304000F130400000000000BD
:10002000000000000000000000000000F13040006F
:10003000F130400000000000F1304000F13040009D
:10004000F1304000F1304000F1304000F13040002C
:10005000F1304000F1304000F1304000F13040001C
:10006000F1304000F1304000F130400041174000D5
:1000700055174000F1304000F1304000F1304000B1
:10008000F1304000F1304000F1304000F1304000EC
:10009000F1304000F1304000F1304000F1304000DC
:1000A000F1304000F1304000F1304000F1304000CC
:1000B000F130400025014000F1304000F1304000B7
:1000C000F1304000F1304000011F4000F1304000AD
:1000D00010B5054C237833B9044B13B10448AFF382
:1000E00000800123237010BD3009002000000000B3
:1000F000B883400008B5064B1BB106480649AFF36C
:1001000000800648036813B1054B03B1984708BD4A
:1001100000000000B883400034090020B88340008C
:100120000000000010B5184B9847184B1860184C89
:100130002046184B9847184B18602046174B984795
:10014000174B1B68DBB1174A12681AB1013A154BFD
:100150001A600AE00D4A1268118A124A11600021E1
:10016000114A1160013B0E4A1360084B1A680E4B8E
:100170001B6813440648197A0C4B984710BD0C486D
:1001800000210C4B984710BDC5064000C80B00204D
:100190000080034085154000C40B00207D15400001
:1001A000C00B0020BC0B00200C000020711540008B
:1001B000000001406119400038B51E20154CA047D1
:1001C0000C20A047144D28464FF000514FF4005228
:1001D000124CA04728464FF000514FF48042A047F0
:1001E0000F4C20460F4B9847204600210E4B984756
:1001F000204600210D4DA84720460121A847204652
:10020000012100220F230A4DA8472046094B984799
:1002100038BD00BF6D18400000100E401916400098
:1002200000C0034089154000A1154000051640009C
:10023000D51540009115400038B50C4648B10A4D1F
:1002400028460121094B984728462146084B9847E4
:1002500038BD054D28460021044B984728462146C5
:10026000034B984738BD00BF00C00340BD15400098
:100270009D15400030B587B001AC084D0FCD0FC4BF
:1002800095E8030044F8040B24F8021B090C2170C4
:1002900001A81621024B984707B030BDE07F40000F
:1002A000190F40002DE9F04190B0002301938E4BCF
:1002B0009847002800F0E0818C4B9847C4B2204654
:1002C0008B4B98477F2C08D18A4B1B78002B00F072
:1002D000D381013B874A1370CEE1864B1B78112BEB
:1002E00004D8854AD4540133824A13700D2C40F04F
:1002F000C3810A207E4CA0470D20A0477E487D4B3D
:100300001B780022C2547D497D4B98470478A4F1A4
:100310004103132B00F2A381DFE813F03600A101A3
:10032000A1013901B5003600A101A101A101A1017E
:10033000A101A101A101A101A101A101A101360019
:100340001400250001226F4B1A7503AC6E4D0FCDC2
:100350000FC495E8030044F8040B218003A815217D
:100360006A4B984785E10122664B5A7503AC684D8C
:100370000FCD0FC495E8030044F8040B217003A8C7
:100380001421624B984774E1624B1C70421C437805
:10039000A3F13001C9B2092914D85F498A4213D8A0
:1003A0004E1C00215D4D02E0B2420ED00146481CB9
:1003B000C0B26B5412F8013FA3F13001C9B2092950
:1003C000F2D902E0002000E00020522C26D10D2BB3
:1003D00021D1524B00221A541846514B9847029093
:1003E000029B012BDCBF00230293029A4CF2503394
:1003F0009A42C8BF0293029A02EBD2725210414B4A
:100400005A6003A847495200474B9847014603A842
:100410003E4B98472DE1454B98472AE1412C17D197
:100420000D2B12D13D4B00221A5418463C4B9847D5
:100430000246344B188203A83D4992B23A4B984782
:10044000014603A8314B984713E1384B984710E118
:10045000462C40F00E810D2B12D1304B00221A5445
:1004600018462F4B98470246264B588203A831491D
:1004700092B22D4B9847014603A8244B9847F8E0C9
:100480002A4B9847F5E0431C0026244DA846244FEC
:1004900008E0501CC0B21C46A9541A780D2A08D096
:1004A000024600E000221C4613F8011B2C29F0D163
:1004B00000E002460023AB544046B8470290029B3E
:1004C00063B1029B042BC4BF04230293029A0D4B19
:1004D00033441A7223780D2B2ED131E0094B33446B
:1004E00000221A722CE000BF710C40002D0D40005C
:1004F000610E40006C0900204C090020F87F40008C
:10050000E9354000CC0B002000804000190F40006E
:10051000188040006D0900205F090020600900205C
:1005200065334000308040003D354000750240009A
:1005300050804000848040000136631C082EB1D1F9
:100540004F4F3E440023737203AC4E4D0FCD0FC48A
:100550002B68238003A811214B4B984707F108040F
:1005600007F11008494F4A4E474D03A839462278F3
:10057000B047014603A8A84714F8013B0BB1444516
:10058000F3D10A20434CA0470D20A04771E04378E7
:10059000302B02D10023019304E0312B0CBF012347
:1005A0000023019383782C2B02D03B4B984760E0CB
:1005B00003300346394D3A4E03E0AB420BD80133CA
:1005C0007254191AC9B21A78A2F13004E4B2092C93
:1005D000F3D92D2AF1D00020314A50541B780D2B2D
:1005E0003AD110462F4B98470290029A2E4B9A42CE
:1005F000B8BF0293029A42F210739A42C8BF0293A4
:10060000029B4FF47A7202FB03F3284A82FB030237
:10061000DB17C3EBE2230293029B03F50063029313
:1006200001980299224B9847019A029B41F213319B
:1006300001FB03F31F4981FB0301DB17C3EBA1138C
:1006400003A81D49A3F51C53103B114CA0470146BC
:1006500003A80D4B98470CE00F4B984709E003ACFB
:10066000164D0FCD0FC42B68238003A81121064B14
:1006700098470022124B1A7010B0BDE8F08100BFFD
:10068000CC0B0020B4804000190F4000C88040000F
:100690003D354000610E4000750240005F090020BA
:1006A0006009002065334000F0D8FFFF37BC5E6B67
:1006B00039024000D34D6210CC804000EC804000F5
:1006C0006C090020034801230372022343720323B1
:1006D00083727047CC0B002070B582B00D480E4B72
:1006E00098470B200D4B98470D4E00240094304640
:1006F0004FF40031224623460A4DA8470094304665
:100700004FF4802122462346A847074B984702B062
:1007100070BD00BF50140E40E93040006D1840001D
:10072000000E0E40A9164000B901400010B500208F
:100730003E210A4B98470A4CA0470028FCD0094BA1
:100740009847094A094BDA62094CA0470028FCD0B7
:100750000120084B9847084B984710BDCD17400023
:100760002118400051184000023F0F0000040E40C5
:100770005D1840001D1940003119400010B50D48AA
:100780000D4B984700203E210C4B98470C4CA0473E
:100790000028FCD00B4B98470B4A0C4B9A620C4C30
:1007A000A0470028FCD010200A4B98470A4B9847D6
:1007B00010BD00BF0090D003B9324000CD174000FB
:1007C0002118400031184000033F1F2000040E4054
:1007D0004118400069174000A53140000E49002330
:1007E0000B700E4A13800E4AA1201070202050700A
:1007F000538093800220D08013810A4A4FF4E13065
:10080000106013715371082393710B780133DBB2BD
:100810000B700120704700BF080A0020B40A0020B6
:10082000200A002070090020024B1A78013AD2B247
:100830001A707047080A0020044B1A78013AD2B2A5
:100840001A701B780022024B1A707047780900203A
:10085000140A002000207047002070471D4B1B78B1
:1008600013F0800F12D003F06003202B28D1194B16
:100870005B78212B26D1174BDB88072B24D1154B16
:10088000154A9A6007229A810120704703F060039D
:10089000202B1BD10F4B5878202804D0222814BFBE
:1008A0000020012070470B4BDB88072B10D1094B30
:1008B0000A4A1A61084A9A6007229A810120704701
:1008C00000207047002070470020704700207047CC
:1008D00000207047F00B002070090020E108400064
:1008E000704700BF30B583B0424B1B7813F0FF0F49
:1008F0007ED1414B984730B1404B1C88404B9847C4
:10090000844206D174E03D4B1C883E4B984784429C
:100910006ED0EFF31083D3F1010538BF002572B616
:10092000BFF35F8F0022384B1A70384B1C78E4B24B
:10093000374B33F81430DBB9364B1A8801321A8042
:100940002D4B984718B9334B1B88632B07D92A4B7B
:10095000984768B12F4B1B88B3F5487F08D2002D0C
:1009600046D00122284B1A70BFF35F8F62B63FE07A
:100970000022284B1A80284B1B7813F0FF0F06D15A
:10098000944214BF00220122204B1A7003E0D4F1DC
:10099000010438BF00240122164B1A7025B11A4BEE
:1009A0001A70BFF35F8F62B62546194B33F81440B7
:1009B000403C18BF012464B10F4B984720B1104B45
:1009C00098470E4B188007E00E4B98470B4B18804A
:1009D00002E00022094B1A800D4B33F815300F4A04
:1009E0000092812021460E4A02EB85120D4CA04751
:1009F00003B030BD1C0A0020992A4000100A0020D4
:100A0000012B4000F12A4000B00000207C090020AA
:100A1000800900206E090020B00A0020290A400049
:100A2000840900204D2E400008B578B9084B1B788A
:100A300013F0FF0F14BF00220122064B23F812000F
:100A4000054B1870054B1870054B984708BD00BF43
:100A50007C09002080090020B00A00201C0A002028
:100A6000E508400008B50020014B984708BD00BFCD
:100A7000E5084000EFF3108372B6BFF35F8F0021EB
:100A8000094A1170094A108880B2094A1178094A46
:100A900032F81120101A2BB90122034B1A70BFF340
:100AA0005F8F62B6704700BFB00000200C0A0020C4
:100AB000180A0020040A002008B5034B98470030AC
:100AC00018BF012008BD00BF750A400010B582B0F4
:100AD000EFF31083D3F1010338BF002372B6BFF3E5
:100AE0005F8F00211E4A11701E4A1478E4B21E4A1C
:100AF000127812F0FF0F07D11C4A128892B21C49DB
:100B000031F81410914208D93BB30122144B1A70EA
:100B1000BFF35F8F62B6002020E00021134A1180EE
:100B20008C4214BF002101210E4A117001210E4A8E
:100B3000117023B10A4B1970BFF35F8F62B60020AA
:100B40000C4B98470C4B0093022001210B4A02EBFF
:100B5000841240230A4CA04700E0002002B010BDE0
:100B6000B0000020180A0020AC0A00200C0A002067
:100B7000040A0020B90A4000150C40002C0A00208D
:100B80004D2E400010B50024154B1C70154B1C70E9
:100B9000154B1C70154B1C70154B1C805C80154B45
:100BA0001C802046144B9847144B1C70144B1C702F
:100BB000144B1C80144B1C802046144B9847024653
:100BC00058B1074B19780131C9B219701B78DBB2E3
:100BD000012B02D101210E4B1970104610BD00BF30
:100BE000780900201C0A0020B00A00207C0900209F
:100BF00080090020100A0020E5084000AC0A00200F
:100C0000180A0020040A00200C0A0020CD0A400027
:100C1000140A002010B582B0D0B90E4B1B7813F027
:100C2000FF0F14BF0023012351B90B490091104657
:100C300001210A4A02EB83124023094CA04707E036
:100C4000084A22F813100020074B1870074B9847EA
:100C500002B010BD180A0020150C40002C0A00201C
:100C60004D2E4000040A0020AC0A0020CD0A4000AE
:100C700008B50020014B984708BD00BFB90A4000E5
:100C80002DE9F047214B93F80690B9F1090F14BFF5
:100C90004FF000094FF0010900201D4C8046074627
:100CA0001C4D1D4EEFF3108172B6BFF35F8F27709E
:100CB0002B889BB23278D2B221B901212170BFF3C7
:100CC0005F8F62B6154931F81210994207D8144B5C
:100CD0001B7813F0FF0FE5D10020BDE8F08703EB90
:100CE0008212104911F802A040EA0A0A01339BB2AD
:100CF0002B8040460C4B9847B9F1000F03D04FEAC8
:100D00000A20C146CEE75046BDE8F08770090020B2
:100D1000B00000200C0A0020180A0020040A00205D
:100D2000140A00202C0A0020CD0A400008B500203B
:100D3000014B984708BD00BF810C400010B4EFF391
:100D4000108472B6BFF35F8F0022174B1A70174BD7
:100D50001978C9B2164A32F81130D1F1010138BF01
:100D6000002132F81100402B10D1124A127812F0F3
:100D7000FF0F0BD1104A127812F0FF0F06D101229B
:100D80000D4B1A70094B1970402000232CB901211A
:100D9000054A1170BFF35F8F62B61844C0F180003E
:100DA0005DF8044B704700BFB00000207C090020B4
:100DB000800900201C0A0020B00A002008B5034B5F
:100DC0009847003018BF012008BD00BF3D0D40000E
:100DD0002DE9F0410C461B4B9E79092E14BF0026CD
:100DE0000126194D194FDFF874800020A84730B94B
:100DF000174B1B7813F0FF0FF7D1BDE8F081EFF32D
:100E0000108172B6BFF35F8F00233B7098F80030FB
:100E1000DBB2104830F8132002F1010C20F813C0A7
:100E200002EB83130C4AD45421B901233B70BFF366
:100E30005F8F62B616B124120026D6E70120BDE806
:100E4000F08100BF70090020BD0D4000B0000020FF
:100E5000140A002080090020840900207C09002059
:100E600008B501460020014B984708BDD10D400050
:100E70002DE9F84F884615461F4B9B79092B08BF73
:100E80005500DFF88CA00020D04738B91B4B1B78E9
:100E900013F0FF0FF7D12846BDE8F88FEFF3108B62
:100EA00072B6BFF35F8F0023154A1370154B1E787F
:100EB000F6B2DFF8609039F81670C7F14004A54229
:100EC00038BF2C4607EB86130F481844414622468C
:100ED0000E4B9847274429F816705B462BB901231F
:100EE000074A1370BFF35F8F62B6A0442D1BCAD1AF
:100EF0000020BDE8F88F00BF70090020140A002010
:100F0000B00000207C09002084090020BD3340008F
:100F1000BD0D40008009002008B503460A460020A8
:100F20001946014B984708BD710E40000F4B1B68D6
:100F30001B685A881A4403781844904210D24378A8
:100F4000042B0FD08B4205D170474378042B0BD074
:100F50008B420AD0037818449042F6D300207047A1
:100F6000002070470020704700207047B80A00201A
:100F700008B5034B987800F07F00024B984708BDF6
:100F8000F00B00209D2A400010B4164B1B7803B3D1
:100F9000154B1B681B681A7982421CD9134A1360CF
:100FA0005C881C44A34218D25A78042A09D19A7842
:100FB000824206D1DA788A4203D10C4A13600120BA
:100FC0000CE01A781344A342EED3084A13600020C1
:100FD00004E0002002E0002000E000205DF8044B67
:100FE000704700BFC20A0020B80A0020C40A0020CF
:100FF0002DE9F84304460021124B98478046E8B19A
:10100000114B1B685B6853F82490D9F80C30984753
:10101000014620460B4B9847804678B10B4B1C6825
:1010200005260B4D0B4F20463146A847044610B10C
:101030008078B847F7E7D9F8043098474046BDE8CC
:10104000F88300BF890F4000B80A0020C40A0020BE
:101050002D0F4000152C40002DE9F0418046104B2B
:1010600098470346C8B10F4B1C6805260E4D0F4F1D
:1010700020463146A847044638B18078E178A288F6
:10108000B84703460028F3D107E0094B1B685B68AB
:1010900053F828301B68984703461846BDE8F0818E
:1010A000890F4000C40A00202D0F4000112B400082
:1010B000B80A002008B5014B984708BDE129400057
:1010C00070B50D4B1B7883B10C4B1B681B681B79EB
:1010D0005BB100240A4E094D2046B0470134E4B20A
:1010E0002B681B681B79A342F6D80023024A1370B1
:1010F000044A138070BD00BFC20A0020B80A002055
:10110000F10F4000C00A002038B50C4B1B789BB192
:101110000B4B1B681A68127972B10024084D5B688A
:1011200053F824301B6903B198470134E4B22B68AB
:101130001A681279A242F2D838BD00BFC20A002054
:10114000B80A00202DE9F041774B00229A811A61FC
:101150005A611B7813F0800F00F0E681724AD28842
:10116000002A40F0E581DBE113F01F0367D16E49EF
:10117000497806290DD0082957D000295FD1022AC5
:1011800005D16A4802216A4B9847012474E1002482
:1011900072E1654B5A88130A013B0E2B3BD8DFE8FE
:1011A00003F0080F2A3A3A3A3A3A3A3A3A3A3A3A8D
:1011B0002200604B1B68184619785D4B984721E068
:1011C000D2B25C4B1B685B7C934226D9594B5B685F
:1011D00053F8323018465988554B9847524B9B6804
:1011E00002225A700EE0534B9B68C3B118465988CF
:1011F0004F4B984706E012F0FF0F12D14E480421E2
:101200004B4B9847484BDA889B8993420BD9464B06
:101210009A81012430E100242EE100242CE10024F5
:101220002AE1002428E1012426E1012A05D14348CE
:1012300001213F4B984701241EE100241CE1012BB2
:101240002AD1394949780A2926D1012A1ED13B4B96
:101250001B78EBB1344B1D79394B1E6833681B7911
:10126000AB4217D928460021364B98470446002840
:1012700000F00281736853F82530DB689847324BE1
:101280001870184601212A4B9847F5E00024F3E036
:101290000024F1E00024EFE0022B40F0EF80224B2D
:1012A0005B78002B40F0E380022A0BD11E4B1879AB
:1012B000264B9847264B1880184602211C4B98470E
:1012C0000124D9E00024D7E013F01F0340F084800C
:1012D000154A5278013A082A7ED8DFE812F0130046
:1012E0007D00CA007D0009007D007D007D003D007D
:1012F0000D4BDB8823B9174A0B4B1A610124BBE065
:101300000024B9E0084BDB8853B9074B5B88012BFD
:1013100008D1064B1A8822F002021A800124ABE0A1
:101320000024A9E00024A7E0F00B0020C00A002060
:10133000052B400038000020AC000020C20A00202D
:10134000B80A0020890F4000BC0A00204D2C400044
:10135000BE0A0020710F4000794BDB88002B31D191
:10136000784B984700282FD0754B9A78764B1B689E
:101370005B7C9A422ADC754B9847714B9B78744A88
:1013800013702BB303F10053013B6F4A526802EB19
:10139000C3007049086052F833301B79D3B100257F
:1013A0002F466D4E884628463946B04704460028E9
:1013B00062D00135EDB2D8F800301B681B79AB4222
:1013C000F1D859E0002457E0002455E0002453E010
:1013D000012451E001244FE0012B1CD1584A5278DE
:1013E0000B2A18D1564BDB888BB9594B1B7883B12C
:1013F000534B1D795E882846584B98470446002871
:101400003AD02846F1B2544B9847044634E00024C1
:1014100032E0002430E0022B30D1494B5B78012BC5
:1014200002D0032B10D026E0454BDB8843B9444B58
:101430005B883BB9424B1879494B984704461BE0FF
:10144000002419E0002417E03D4BDB885BB93C4BDE
:101450005B8853B93A4C2079424B98472079424BEC
:101460009847044608E0002406E0002404E0002435
:1014700002E0002400E00024002C5DD1304B1B78FA
:1014800003F01F03012B1ED1314B1B78DBB12C4B1A
:101490001C79304B1D682B681B79A34213D9204659
:1014A0000021324B984770B16B6853F82450EB68B9
:1014B0009847014620462D4B984720B1AB68984786
:1014C0000446002838D11E4B1B7803F01F03022B63
:1014D00028D11F4B1B78FBB11E4B1B681A68127971
:1014E000E2B10025214FDFF86C805B6853F825607E
:1014F000F368984701462846B8470446E0B1B36808
:1015000098470446C0B90135EDB2D8F800301A68E2
:101510001279AA42E9D80FE000240DE000240BE084
:10152000002409E0002407E013F0600FA6D1CBE609
:1015300013F0600FA2D117E62046BDE8F08100BF8E
:10154000F00B0020D52A400038000020C1104000D8
:10155000C20A0020B80A002059104000F10F4000D4
:10156000752D4000A12F40008D2C4000890F4000B8
:10157000012303FA01F10161704700BF4FF6FF73C9
:1015800043617047006A704701230360704700BFE2
:10159000436823F001034360704700BF0162704756
:1015A00019B1044BC0F8E4307047034BC0F8E43085
:1015B000704700BF0143414400434144436801294F
:1015C00006D823F4981343EA014141600020704794
:1015D0000120704710B4446824F07C5424F47F4404
:1015E000090289B20C4312B144F4001401E024F45E
:1015F00000141B0603F07C531C43446000205DF87C
:10160000044B7047012905D8012303FA01F1016158
:10161000002070470120704710B44264B1F1C05FF0
:101620002ED008D8B1F1006F14D0B1F1805F1DD079
:10163000002935D135E0B1F1205F32D003D8B1F1C6
:10164000005F27D02CE0B1F1405F2AD0B1F1605F9C
:1016500027D025E0016F046FD34321401940016773
:10166000416F446F21400B40436719E0036F134300
:101670000367436F416F0B4023EA020343670FE0A8
:10168000036F016F0B4023EA02030367436F1343A9
:10169000436705E0036F13430367436F13434367D7
:1016A00042605DF8044B704710B44164019C0CB17A
:1016B000416600E001660BB1016500E041650AB1D9
:1016C000016300E04163016101605DF8044B704714
:1016D000C06C7047806C70472DE9F04180460E4623
:1016E000124B984705464046114B9847054012D08B
:1016F000104C54F80C3CB3420AD154F8081C29424F
:1017000006D023683046984754F8083C25EA03057C
:101710001034002DEDD1084B1B6823B1074B1B681B
:101720000BB140469847BDE8F08100BFD11640009C
:10173000D5164000D80A0020EC0B0020C80A002073
:1017400008B502480B21024B984708BD000E0E4019
:10175000D916400008B502480C21024B984708BD35
:1017600000100E40D9164000174B1A6B22F0700281
:10177000104318639B6E13F0080F09D14FF40063F8
:10178000114901E0013B19D08A6E12F0080FF9D01F
:101790000D4B1A6B22F0030242F002021A63986E9C
:1017A00010F008000CD14FF40063074901E0013B41
:1017B00008D08A6E12F0080FF9D0704701207047E8
:1017C000002070470120704700040E4038B11149D5
:1017D0000B6A114A1A40114B13430B6270470D4AB2
:1017E000136A23F45C1323F0030343F45C1343F004
:1017F0000103090289B20B431362936E13F0010FC8
:10180000FBD0044A136A43F09B7343F480331362A2
:10181000704700BF00040E40FCFFC8FE0200370105
:10182000024B986E00F48030704700BF00040E40F9
:101830004FF00052014B9A62704700BF00040E4007
:10184000024B986E00F00200704700BF00040E408B
:101850000022014BDA62704700040E40024B986E82
:1018600000F00400704700BF00040E40222820D87A
:101870001F280DD8124B9A69012383401A409342C6
:1018800019D0012303FA00F00D4B186100207047B6
:101890000B4BD3F808212038012383401A40934290
:1018A0000BD0012303FA00F0054BC3F80001002020
:1018B000704701207047002070470020704700BF2C
:1018C00000040E40222820D81F280DD8124B9A69F8
:1018D000012383401A40934219D1012303FA00F0F7
:1018E0000D4B5861002070470B4BD3F8082120386E
:1018F000012383401A4093420BD1012303FA00F0E5
:10190000054BC3F8040100207047012070470020F8
:1019100070470020704700BF00040E40000200F432
:10192000706242F00102014B9A63704700040E405E
:101930008022014B1A60704700040E40034B1A6F5F
:10194000C0F3120002431A67704700BF00040E4044
:10195000024B187880F00100704700BF3C0B00205C
:101960008901022343507047034658BB184A127836
:101970002AB3EFF3108172B6BFF35F8F154A107070
:10198000154A907801389070C9B90121114A117037
:10199000BFF35F8F62B612E0EFF3108172B6BFF350
:1019A0005F8F00200B4A10700B4A907801309070C6
:1019B00029B90121074A1170BFF35F8F62B6044A4B
:1019C00013707047024A1278002AE5D0F7E700BF8B
:1019D0007C0B0020B0000020E40B0020034A002311
:1019E000136153619381024A13707047F00B00201A
:1019F000810B002082B005220E4B1A700E4B1A6B21
:101A00000092009A42F04F020092009A42F02002A7
:101A10000092009A1A6300230193019B132B06D8AE
:101A200000BF019B01330193019B132BF8D902B036
:101A3000704700BF810B00200040034082B00322AA
:101A40000E4B1A700E4B1A6B0092009A42F04F0226
:101A50000092009A42F010020092009A1A6300234A
:101A60000193019B132B06D800BF019B0133019307
:101A7000019B132BF8D902B0704700BF810B0020E7
:101A80000040034008B5024B1B6903B1984708BDED
:101A9000F00B002070B58AB0754B1B78032B1DD15D
:101AA000744B1A6B0092009A42F04F020092009A17
:101AB00022F001020092009A1A6300230193019B15
:101AC000132B06D800BF019B01330193019B132BFD
:101AD000F8D9694B9847694B9847C6E0684B1B8813
:101AE000684A9489E41AA4B2002C33D1664A11885A
:101AF0000B449BB21380634AD2889A4202D0634B54
:101B00001B78EBB104225A4B1A705A4B1A6B029293
:101B1000029A42F04F020292029A22F001020292CD
:101B2000029A1A6300230393039B132B00F29D80F8
:101B300000BF039B01330393039B132BF8D994E05D
:101B4000504B5B696BB1984758B100224C4B1A80DF
:101B50004C4B9C893F2C04D900224C4B1A704024DA
:101B600002E00122494B1A70464B9968444B1E888B
:101B7000EFF31080D0F1010038BF002072B6BFF340
:101B80005F8F0022424B1A703A4B1B6B13F0020F0F
:101B900001D124BB2DE028B101223D4B1A70BFF3C7
:101BA0005F8F62B60422324B1A70324B1A6B04926A
:101BB000049A42F04F020492049A22F00102049225
:101BC000049A1A6300230593059B132B4DD800BF7D
:101BD000059B01330593059B132BF8D945E0314450
:101BE0000B46244D13F8012B2A655A1AD2B2A24291
:101BF000F8D33444224B1C801E4B1A6B0692069A73
:101C000042F04F020692069A42F010020692069A9D
:101C10001A6300230793079B132B06D800BF079B6B
:101C200001330793079B132BF8D9124B1A6B0892B9
:101C3000089A42F04F020892089A22F00102089294
:101C4000089A1A6300230993099B132B06D800BF37
:101C5000099B01330993099B132BF8D928B1012261
:101C60000B4B1A70BFF35F8F62B60AB070BD00BF36
:101C7000810B002000400340851A4000DD19400020
:101C80007E0B0020F00B00203E0B0020800B00207C
:101C9000B000002038B50346447C14F0100F15D076
:101CA000447C6FF30414447404687CB102F10C05A5
:101CB000074850F8250010F4806F18BF42F08002EA
:101CC000012914BF002001209968A04738BD00BF3A
:101CD0000040034084B0421E02EB82022F4B03EB14
:101CE0008202830003F1402303F54033196B01F0B6
:101CF000420142290ED0196B11F0020F04D0517C21
:101D00006FF38301517409E0517C012060F383017A
:101D1000517424E0517C11F00C0F20D1196B00910B
:101D2000009941F04F010091009921F002010091CA
:101D30000099196300230193019B132B06D800BF60
:101D4000019B01330193019B132BF8D918B303288E
:101D500021D0537C012161F3830353741BE0196B81
:101D60000291029941F04F010291029921F0400144
:101D700002910299196300230393039B132B06D846
:101D800000BF039B01330393039B132BF8D9537CB0
:101D90006FF38303537404B0704700BF400B0020FF
:101DA0002DE9F00783B00746461E06EB8606524B28
:101DB00003EB8606737CC3F3810320B1032814BFB1
:101DC0000222012200E001229A4240F38980F36856
:101DD000B268934204D3747C14F0400F00F0828008
:101DE00074681C44C3EB0209328AC2F309029145AC
:101DF00026BF91464FF000084FF001084B44F360B6
:101E0000B9F1070F26D92346A9F1080A4FEADA0AE1
:101E100004F1080C0CEBCA0C820002F1402202F51E
:101E200040321D7815655D7815659D781565DD78FE
:101E300015651D7915655D7915659D791565DD79E2
:101E4000156508336345ECD10AF1010A04EBCA04B5
:101E500009F00709B9F1000F09D0A144274D14F882
:101E6000012B07F1140345F823204C45F7D1737C6F
:101E7000C3F38102013262F383037374E1B1800022
:101E800000F1402000F54030036B0093009B43F0CD
:101E90004F030093009B43F010030093009B0363E8
:101EA00000230193019B132B06D800BF019B013334
:101EB0000193019B132BF8D9B8F1000F03D0737C69
:101EC0006FF386137374F268B3689A420CD3737C11
:101ED00013F0400F0AD143F080037374002006E032
:101EE000012004E0002002E0012000E0012003B016
:101EF000BDE8F007704700BF400B002000400340E2
:101F00002DE9F047B0B0944B984760B9934BDB692B
:101F100013F4807F07D172B6BFF35F8F0022904B1E
:101F20001A7000F015BD22208E4B98478B4B9B6991
:101F300013F4006F0CD0894BDB6913F4006F07D0EA
:101F40004FF40062854B1A62874B984700F000BD42
:101F5000824BDB6913F0010F00F0F1817F4B1B6BAB
:101F600013F0040F00F0C080804B1B781BB1804B36
:101F70009847804B9847794B1B6BC3F30A43082B58
:101F80001CD0764B1A6B0292029A42F04F020292D8
:101F9000029A22F004020292029A1A630023039327
:101FA000039B132B06D800BF039B01330393039BB2
:101FB000132BF8D9704B984700F0CABC6F4B03F154
:101FC000080066490A6D03F8012F8342FAD16C4B71
:101FD0009847E0B9614B1A6B0492049A42F04F02A1
:101FE0000492049A22F004020492049A1A630023D1
:101FF0000593059B132B06D800BF059B0133059362
:10200000059B132BF8D95C4B984700F0A1BC5D4BA6
:1020100093F90030002B3DDA504B1A6B0692069A6A
:1020200042F04F020692069A42F080020692069A09
:102030001A6300230793079B132B06D800BF079B47
:1020400001330793079B132BF8D9444B1A6B089263
:10205000089A42F04F020892089A22F0040208926D
:10206000089A1A6300230993099B132B06D800BF13
:10207000099B01330993099B132BF8D90023424A8A
:102080001380424A13800222384B1A70404B984703
:1020900000F05EBC314B1A6B0A920A9A42F04F0272
:1020A0000A920A9A22F004020A920A9A1A630023F8
:1020B0000B930B9B132B06D800BF0B9B01330B9389
:1020C0000B9B132BF8D92F4BDB881BB9314B98474F
:1020D00000F03EBC00232C4A13802C4A13800122BE
:1020E000224B1A7000F034BC1C4B1B6B13F0010F19
:1020F00003D0274B984700F02BBC184B1B6B13F0F9
:10210000020F00F01781194B1B78012B44D0022BD2
:1021100001D0042B02D1164B984701E0164B98478B
:102120000E4B1A6B0C920C9A42F04F020C920C9AC6
:1021300022F002020C920C9A1A6300230D930D9B5D
:10214000132B06D800BF0D9B01330D930D9B132B52
:10215000F8D9084B9847FBE3511940000040034071
:10216000B00000206D18400009114000810B0020D4
:10217000851A4000DD194000F5194000EF0B0020E2
:1021800045114000F00B00203E0B00207E0B00208C
:10219000951A40003D1A4000904B196BC1F30A415B
:1021A0008F4B9B898F4A15886A189342AEBF89B2BC
:1021B000C5EB030399B28A4B98682844A9B103463A
:1021C000864C226D03F8012B1A1AD2B28A42F8D338
:1021D0000D44ADB2834B1D80402906D1804BDA8877
:1021E000814B1B882B449A423EDC7D4B9D815B6971
:1021F000F3B19847E0B97D4B9847784B1A6B0E9234
:102200000E9A42F04F020E920E9A22F002020E92A5
:102210000E9A1A6300230F930F9B132B00F29883DF
:1022200000BF0F9B01330F930F9B132BF8D98FE344
:102230006A4B1A6B1092109A42F04F021092109A49
:1022400022F002021092109A1A6300231193119B3C
:10225000132B06D800BF119B01331193119B132B35
:10226000F8D9634B984773E35D4B9B89AB4246D1EA
:102270005B4B5B69E3B95D4B9847584B1A6B129205
:10228000129A42F04F021292129A22F00202129215
:10229000129A1A6300231393139B132B00F2588393
:1022A00000BF139B01331393139B132BF8D94FE3F8
:1022B0009847E0B94D4B9847484B1A6B1492149AC3
:1022C00042F04F021492149A22F002021492149ACD
:1022D0001A6300231593159B132B00F2398300BF5B
:1022E000159B01331593159B132BF8D930E33E4A08
:1022F0003C4B188811880144118000221A80374B0A
:102300001A6B1692169A42F04F021692169A22F003
:1023100002021692169A1A6300231793179B132B27
:1023200000F2168300BF179B01331793179B132BE3
:10233000F8D90DE3294B1B6B13F0080F06D1DFF81A
:10234000B4C064460123254A1E461AE0234B1A6B8B
:102350000092009A42F04F020092009A22F0080286
:102360000092009A1A6300230193019B132B00F241
:10237000EF8200BF019B01330193019B132BF8D91E
:10238000E6E25FFA83F891691F4606FA03F50D420B
:1023900000F0F181A146990001F1402101F54031A1
:1023A000086B10F0420F44D0A268E368B4F810A0A4
:1023B000CAF3090A606818440C460E6BC6F30A4655
:1023C000002E00F0B682D11AB14200F2A982C9F8FB
:1023D0000C20002940F0AA82B6E200BF0040034072
:1023E000F00B00207E0B00203E0B0020F519400072
:1023F0003D1A4000400B0020226DC25401338B4235
:10240000FAD34046954B984717B9B24540F2A0829F
:10241000236B13F0200F40F09B82914B5D61D9F844
:102420000C30C9F808304846002142468D4B984789
:102430008EE2086B10F0010F00F07381637CC3F330
:102440008102033202F0030262F38303637413F028
:10245000200F74D0002A36D0BA0002F1402202F5D3
:102460004032136B1893189B43F04F031893189B3B
:1024700043F010031893189B136300231993199BBF
:10248000132B06D800BF199B01331993199B132BEB
:10249000F8D9136B1A931A9B43F04F031A931A9BA4
:1024A00023F001031A931A9B136300231B931B9BB6
:1024B000132B00F24D8200BF1B9B01331B931B9B10
:1024C000132BF8D944E2BA0002F1402202F540325F
:1024D000136B1C931C9B43F04F031C931C9B23F01A
:1024E00001031C931C9B136300231D931D9B132B43
:1024F00006D800BF1D9B01331D931D9B132BF8D9DC
:10250000136B1E931E9B43F04F031E931E9B43F0C1
:1025100020031E931E9B136300231F931F9B132BEB
:1025200006D800BF1F9B01331F931F9B132BF8D9A5
:1025300099F811306FF3451389F8113008E2637C84
:10254000DB090AD0637C6FF3C7136374E368A3608D
:10255000204600214246434B9847D9F80C20D9F831
:1025600008309A4234D399F8113013F04C0F2FD120
:10257000EFF3108372B6BFF35F8F00213A4A1170F8
:10258000374A55612BB90122374B1A70BFF35F8F61
:1025900062B6BB0003F1402303F540331A6B20926F
:1025A000209A42F04F022092209A22F001022092BB
:1025B000209A1A6300232193219B132B00F2C881D8
:1025C00000BF219B01332193219B132BF8D9BFE13D
:1025D000B8F1000F00F08280B8F1030F7ED099F8B7
:1025E000113013F00C0F43D0BA0002F1402202F573
:1025F0004032136B2293229B43F04F032293229B82
:1026000043F010032293229B136300232393239B05
:10261000132B06D800BF239B01332393239B132B3B
:10262000F8D9136B2493249B43F04F032493249BEA
:1026300023F001032493249B136300232593259BFC
:10264000132B06D800BF259B01332593259B132B05
:10265000F8D940460021054B984779E1D51C400048
:1026600000400340951C4000B0000020A11D400028
:1026700040460121674B984770B999F811306FF3C4
:10268000C71389F81130D9F80C30C9F8083048461A
:1026900000214246604B9847BB0003F1402303F5FD
:1026A00040331A6B2692269A42F04F022692269ABF
:1026B00022F001022692269A1A6300232793279B71
:1026C000132B06D800BF279B01332793279B132B7F
:1026D000F8D9404600214F4B984739E14046012147
:1026E0004C4B9847BB0003F1402303F540331A6B72
:1026F0002892289A42F04F022892289A22F001024A
:102700002892289A1A6300232993299B132B00F2FD
:102710001F8100BF299B01332993299B132BF8D9D3
:1027200016E1096B11F0080F25D09A0002F1402242
:1027300002F54032136B2A932A9B43F04F032A93EE
:102740002A9B23F008032A932A9B136300232B93CD
:102750002B9B132B06D800BF2B9B01332B932B9B5A
:10276000132BF8D9136B03F4E063B3F5807F00F00B
:10277000EF80136BECE001331434042B7FF401AED3
:10278000DBE0264BDB6913F4005F13D1234B9B691D
:1027900013F4007F04D0214BDB6913F4007F09D1CF
:1027A0001E4B9B6913F4806F14D01C4BDB6913F430
:1027B000806F0FD0194C4FF41853236263610120CE
:1027C000174B98474FF48073236223614FF40063E3
:1027D0002361BDE0114B9B6913F4807F24D00F4B24
:1027E000DB6913F4807F1FD00C4B4FF480721A62A8
:1027F0005A614FF400521A614FF400721A614FF49B
:1028000080621A612220074B98470020044B9847AA
:102810009EE000BFA11D4000951C40000040034009
:1028200069194000C51840004B4BDB6913F4805F09
:1028300000F08E804FF48052474B1A6265460024A8
:102840000127464E0134E4B2284639462246B047B5
:102850001435032CF6D1424B98473F4B5A6822F06F
:1028600001025A605A6822F002025A609A6842F4E1
:1028700080729A609A6822F07F029A601A6B2C929A
:102880002C9A42F04F022C922C9A22F4074222F00A
:1028900080022C922C9A42F400422C922C9A1A63B9
:1028A00000232D932D9B132B06D800BF2D9B0133A6
:1028B0002D932D9B132BF8D9274B1A6B2E922E9A02
:1028C00042F04F022E922E9A42F400422E922E9AFD
:1028D0001A6300232F932F9B132B06D800BF2F9B27
:1028E00001332F932F9B132BF8D9EFF3108372B67C
:1028F000BFF35F8F00211B4A11700121164A11613D
:1029000023B9184B1970BFF35F8F62B6164B984707
:10291000114B4FF480721A614FF400621A6117E094
:102920003344C9F80C303146002700E0012700236A
:1029300062E540460D4B984767E5074B9B6913F4EA
:10294000005F7FF41EAF21E74046084B98475FE5E4
:1029500030B0BDE8F08700BF00400340951C400048
:10296000C1104000B0000020DD194000D51C40001F
:1029700010B5EFF3108472B6BFF35F8F0022144BD3
:102980001A700120134B98472220134B9847134B82
:102990005A6F22F480725A675A6F42F400725A6773
:1029A0004FF480721A614FF400521A614FF40072B2
:1029B0001A614FF480621A614FF400621A612CB9F7
:1029C0000122034B1A70BFF35F8F62B610BD00BFC8
:1029D000B0000020691940006D184000004003401D
:1029E00038B5EFF3108472B6BFF35F8F0025214B2B
:1029F0001D702220204B9847204B9847204B502297
:102A000083F8222304225A602B461E489900CA18D4
:102A100000EB8202527C194400EB810102F0830238
:102A20006FF3C7124A740133032BEFD14FF48020A8
:102A3000154B98470023154A1370EFF3108272B6B6
:102A4000BFF35F8F0B490B70114BD9780131D970EF
:102A50002AB90122074B1A70BFF35F8F62B60D4B84
:102A600098472CB90122034B1A70BFF35F8F62B6EF
:102A700038BD00BFB00000206D1840002D07400099
:102A800000E100E0400B00203D1940007C0B0020DD
:102A9000E40B002071294000002070470C4B5A685D
:102AA00022F001025A609A6822F480729A6070B132
:102AB000996800F07F0221F07F010A439A609A68CA
:102AC00042F480729A605A6842F001025A6070477C
:102AD00000400340054B5B6813F0010F1DBF034B23
:102AE000986800F07F000020704700BF004003405E
:102AF000024B1868C0F30A00704700BF0040034053
:102B000000207047014B986099817047F00B0020BE
:102B100070B483B000F00F03032B66D89C0004F15F
:102B2000402404F54034256B15F4004F5FD101F0CB
:102B30000305012D03D1002B5BD0032B5BD01D1FA0
:102B4000EDB2012D8CBF40254FF40075954254DB4A
:102B50005D1E05EB85052D4E06EB85052E8A62F37D
:102B600009062E826A7C02F07F026FF345126A74B6
:102B7000C00903D0D2B26FF383026A74244A956A03
:102B8000012606FA03F31D439562956A25EA0303BD
:102B90009362236B0093009B43F04F030093009BD1
:102BA00023F4074323F08003009338B141F004027B
:102BB000120202F4E06242F4004204E00A0202F46B
:102BC000E06242F40042009B13430093009B2363A6
:102BD00000230193019B132B11D800BF019B0133EC
:102BE0000193019B132BF8D90BE000200AE0002091
:102BF00008E0002006E0002004E0002002E00120C0
:102C000000E0012003B070BC704700BF400B002003
:102C10000040034008B500F00F02032A11D89300CA
:102C200003F1402303F54033196B21F4004119638C
:102C3000501E00EB8000034B03EB80000121024B90
:102C4000984708BD400B0020951C400000F00F0085
:102C5000032815D8431E03EB83030A4A02EB8303C0
:102C60005B7C13F0200F09D10C30074B53F8203058
:102C700013F0280F0CBF002001207047012070477F
:102C800000207047400B00200040034010B483B088
:102C900000F00F02032A5DD8EFF31081D1F101019A
:102CA00038BF002172B6BFF35F8F00242E4B1C701B
:102CB00010F0800F24D0531E03EB83032B4800EB4E
:102CC000830302F10C042A4850F8240010F0100F7E
:102CD00004D1587CC0F38100012811DD587C40F0FC
:102CE00020005874012303FA02F2214B1A610029D3
:102CF00032D001201C4B1870BFF35F8F62B62EE0FC
:102D0000930003F1402303F54033186B00900098C3
:102D100040F04F000090009840F020000090009894
:102D2000186300230193019B132B06D800BF019B5E
:102D300001330193019B132BF8D9012303FA02F20B
:102D40000B4B1A6151B10120074B1870BFF35F8F15
:102D500062B604E0002002E0012000E0012003B0A0
:102D60005DF8044B704700BFB0000020400B00200E
:102D700000400340F0B585B000F00F00032859D89B
:102D8000304C431E03EB83039D0061194B7C6FF3B2
:102D900045134B74820002F1402202F54032136B5E
:102DA00013F0200F48D0136B0093009B43F04F03A8
:102DB0000093009B23F020030093009B13630023E8
:102DC0000193019B132B06D800BF019B0133019394
:102DD000019B132BF8D91C4B9E6A012707FA00F0C0
:102DE00006439E629E6A26EA00009862136B029375
:102DF000029B43F04F030293029B23F008030293CC
:102E0000029B136300230393039B132B06D800BF7D
:102E1000039B01330393039B132BF8D94B7C13F0D3
:102E2000100F0BD04B7C6FF304134B74635998470E
:102E3000012004E0002002E0012000E0012005B0B4
:102E4000F0BD00BF400B0020004003402DE9F047DB
:102E500000F00F04032C00F28880A50005F1402546
:102E600005F540352E6B16F4004F00F08180DFF839
:102E70002CC1661E06EB8606B7000CEB070696F81B
:102E8000118018F0200F76D1D5F8308018F0200F7F
:102E900074D1EFF31088D8F1010A38BF4FF0000A5F
:102EA00072B6BFF35F8F4FF00009DFF8E48088F857
:102EB000009096F8118018F0100F0BD0BAF1000FA7
:102EC0005FD00122324B1A70BFF35F8F62B6484663
:102ED000BDE8F08796F8118048F0100886F8118058
:102EE000BAF1000F08D04FF00109DFF8A48088F88C
:102EF0000090BFF35F8F62B67260B3600022F26031
:102F0000089A4CF8072021B9D3F1010238BF0022FA
:102F100000E00122737C62F386136FF3C7137374AE
:102F2000EFF3108672B6BFF35F8F0022184B1A7052
:102F30000122A240174B1A6110F0800F0CD02B6BAE
:102F400013F0110F08D120460121134B984718B1F7
:102F500020460021104B9847B6B901200C4B187041
:102F6000BFF35F8F62B6BDE8F0870020BDE8F08751
:102F70000020BDE8F0870020BDE8F0870020BDE814
:102F8000F0870020BDE8F0870120BDE8F08700BF92
:102F9000B000002000400340A11D4000400B002075
:102FA000F0B585B000F00F04032C00F29080EFF331
:102FB000108372B6BFF35F8F0021464A117001265D
:102FC000A640454A56612BB90122424B1A70BFF305
:102FD0005F8F62B610F0800F09D1A50005F1402582
:102FE00005F540352B6B13F0420F57D15DE0A30080
:102FF00003F1402303F540331A6B12F0100F2AD06F
:103000008CB1032C0FD01A6B22F010021A631A6BCA
:1030100012F0100FFBD11A6B42F010021A631A6BF8
:1030200012F0100FFBD01A6B0092009A42F04F0280
:103030000092009A22F010020092009A1A63002275
:103040000192019A132A06D800BF019A0132019217
:10305000019A132AF8D91A6B0292029A42F04F028F
:103060000292029A22F001020292029A1A6300234B
:103070000393039B132B06D800BF039B01330393D9
:10308000039B132BF8D9631E03EB8303134A02EB54
:1030900083035A7C6FF383025A7406E0104F204674
:1030A000B8472B6B13F0420FF9D10B4B9A6A32439E
:1030B0009A629A6A22EA06069E62601E00EB80000F
:1030C000064B03EB800001212246064B984705B0D2
:1030D000F0BD00BFB000002000400340400B0020C6
:1030E000D51C4000951C40004FF4004343607047DE
:1030F000FEE700BF10B51E4B1E4A9A4203D01E4B7E
:103100001B4A9A4204D31D4B1D4A9A420FD31AE020
:103110001C4B1D4CE41A24F003040434002314480F
:1031200014495A581A500433A342FAD1EBE7174B0B
:103130001749C91A21F003011A1D1144002243F84E
:10314000042F8B42FBD1134A22F0604323F07F030C
:1031500011498B6002F16042B2F5404F03D28A6898
:1031600042F000528A600D4B98470D4B9847FEE79E
:1031700000000020B8834000300900200C0C002023
:103180003009002004000020330900202C09002011
:10319000070C00200000400000ED00E06D3340000F
:1031A000313340003D4B1B6B03F00303032B5DD811
:1031B000DFE803F0020E2B2B394B5B6913F0800F15
:1031C00014BF4FF400424FF4FA42364B1A604DE000
:1031D000324B1B6A13F0807F03D0334A314B1A60A5
:1031E00044E0324A2F4B1A602C4B1B6A03F07003E9
:1031F000102B02D0202B04D038E02D4A294B1A6026
:1032000034E0294A274B1A6030E0244B1B6A13F044
:10321000807F03D0244A234B1A6012E0234A214BBB
:103220001A601E4B1B6A03F07003102B02D0202B78
:1032300004D006E01E4A1B4B1A6002E01A4A194BE2
:103240001A60164B1B6B03F00303022B134B07BFD3
:10325000986A996AD86AD96A124BC0F30A401A6808
:1032600000FB0222C9B2B2FBF1F21A600B4B1B6BDE
:1032700003F07003702B07D10A4B1A680D49A1FBAC
:10328000020252081A607047044B196B054BC1F3D8
:1032900002111A68CA401A60704700BF00040E404D
:1032A00010140E40B4000020001BB70000093D00C0
:1032B00000127A00ABAAAAAA0C4B984203D80022AB
:1032C0000B4B1A6070470B4B984204D84FF4807236
:1032D000074B1A607047084B984294BF4FF4007236
:1032E0004FF44072024B1A60704700BF3F66030103
:1032F000000A0E407FC3C9017FF93703094B1B68E1
:1033000013B9094A074B1A60064B1B681A1807497C
:10331000914204DB1046034A1060184670474FF094
:10332000FF307047840B0020102C0020FCBF0020D1
:1033300008B5074B9847074B9847074B9847074EE8
:103340004BF29325064CB0472846A047FBE700BF49
:10335000D90640007D074000B5104000A50240009E
:103360000100002000210A2200F0F0B970B50F4ED4
:103370000F4D761BB61007D0043D0024013455F8DC
:10338000043F9847A642F9D10A4E0B4D04F0FEFFC8
:10339000761BB61008D0043D0024013455F8043FD4
:1033A0009847A642F9D170BD70BD00BF9883400018
:1033B00098834000A083400098834000844641EAFF
:1033C000000313F0030349D1403A23D30B68036091
:1033D0004B6843608B688360CB68C3600B69036193
:1033E0004B6943618B698361CB69C3610B6A03627B
:1033F0004B6A43628B6A8362CB6AC3620B6B036363
:103400004B6B43638B6B8363CB6BC3634030403147
:10341000403ADBD230320BD30B6803604B68436019
:103420008B688360CB68C36010301031103AF3D2E0
:103430000C3205D351F8043B40F8043B043AF9D26E
:10344000043208D0D2071CBF11F8013B00F8013B41
:1034500001D30B8803806046704700BF082A13D34E
:103460008B07B1D010F00303AED0C3F10403D21A1E
:10347000DB071CBF11F8013B00F8013BA4D331F876
:10348000023B20F8023B9FE7043AD9D3013A11F8F6
:10349000013B00F8013BF9D20B7803704B78437085
:1034A0008B78837060467047F0B4840743D0541E15
:1034B000002A3ED0CDB2034603E0621E002C38D075
:1034C000144603F8015B9A07F7D1032C2AD9CDB231
:1034D00045EA05250F2C45EA054515D9A4F1100745
:1034E0003F0903F1100606EB07161A4615605560F2
:1034F0009560D5601032B242F8D104F00F04013764
:10350000032C03EB07130DD91E462246043A032A67
:1035100046F8045BFAD8221F22F003020432134457
:1035200004F003042CB1C9B21C4403F8011BA342EC
:10353000FBD1F0BC704714460346C6E70EB4F0B5A5
:103540009CB021AC54F8042B0E49064623464FF498
:10355000027E6FF0004508684FF6FF7702A90296D9
:1035600006960194ADF814E004950795ADF8167031
:1035700000F0F8F8029B00221A701CB0BDE8F04081
:1035800003B07047E004002020F0030110F00300B6
:10359000C0F1000051F8043B00F1040C4FEACC0CE0
:1035A0006FF000021CBF22FA0CF213434FF0010C23
:1035B0004CEA0C2C4CEA0C4CA3EB0C0222EA030262
:1035C00012EACC1204BF51F8043B0430F4D013F0DB
:1035D000FF0F1FBF013013F47F4F013013F47F0F33
:1035E00018BF0130704700BFF0B404780CB30E78F8
:1035F0000746C6B1A64210D04B1C01E094420BD046
:103600001D4613F8012B002AF8D144780130002C14
:10361000EED12E78074600E02646002E14BF38462D
:103620000020F0BC704744780D460130002CDFD1FB
:10363000EFE72046F0BC70472DE9F00F424C82B016
:10364000D4F800C001900E4600E02646344614F837
:10365000015B0CEB0500407800F0080000F0FF0A69
:103660000028F2D12D2D5BD02B2D04BF7578B41C12
:1036700033F010003CD09946BAF1000F0CBF6FF048
:10368000004B4FF0004BBBFBF9F8002709FB18BBC0
:1036900038460CE0303DAB4219DD7E1C05D040457C
:1036A00023D820D009FB0050012714F8015B0CEB54
:1036B0000506767816F0040FECD116F0030606D056
:1036C000012E14BF57263726AD1BAB42E5DC7B1C11
:1036D00015D0BAF1000F21D10AB1EFB9116002B0D3
:1036E000BDE8F00F70475D45DCDD4FF0FF37DCE7EC
:1036F000302D1AD0002BBED10A239946BCE7019980
:10370000BAF1000F4FF022030CBF6FF000404FF0F2
:1037100000400B60002AE2D0611EDFE74042DBE799
:10372000B41C75784FF0010AA2E7207800F0DF00A2
:10373000582803D0002B9ED108239CE710236578DE
:103740009946023498E700BFE404002030B4044CEA
:103750000D46134601462A46206830BCFFF76CBF71
:10376000E00400202DE9F04FC9B010930C91914670
:103770000D9002F05FFB00681590FFF705FF0C9CB1
:103780001890A3891E0603D52369002B01F08180C0
:1037900038ACA44608942B9400250024CDE91645A6
:1037A000002311932D932C931A9319930E9366462D
:1037B00099F80030002B00F0F880252B00F0F58000
:1037C00009F1010201E0252B04D0137814460132DF
:1037D000002BF8D1C9EB04057DB12C9B2D9A013348
:1037E0002A44072BC6F8009075602D922C9300F3A5
:1037F000C28008360E9828440E902378002B00F0E3
:10380000C280002394F801801A468DF88F300F9300
:10381000099304F101094FF0FF340A9409F10109F9
:10382000A8F12003582B00F2C583DFE813F06A02E9
:10383000C303C3037102C303C303C303C303C303AB
:10384000C30314036603C3039D00C000C3037802CF
:103850007F027F027F027F027F027F027F027F0260
:103860007F02C303C303C303C303C303C303C3036D
:10387000C303C303C30390027103C3037103C303F0
:10388000C303C303C3036A03C303C3037800C303AF
:10389000C303C303C303C3035900C303C303AF027A
:1038A000C303C303C303C303C303C303C303C303E8
:1038B000C303C30337034803710371037103FF029A
:1038C0004803C303C3030803C303C5027C002003EA
:1038D000A303C303D902C3035F00C303C303DE0012
:1038E000DDF824C04CF0100CCDF824C0099CA206D1
:1038F00000F15483099CE30600F1BD85DDF824C086
:103900001CF0400F00F0B785DDF840C00025BCF882
:1039100000400CF1040C0123CDF840C08CE0099D5F
:1039200045F010050995DDF824C01CF0200340F097
:103930002A83DDF824C01CF0100240F0A485DDF8D5
:1039400024C01CF0400300F09E85DDF840C0134603
:10395000BCF800400CF1040C0025CDF840C06BE031
:103960000F9C109364420F94099D45F0040509953E
:1039700099F8008052E70D980C992BAA03F0D2FA1F
:1039800040B938AE36E72D9B23B10D980C992BAA80
:1039900003F0C8FA0C9C0E98A38913F0400F18BFCF
:1039A0004FF0FF3049B0BDE8F08F4C4625E799F85D
:1039B000008009F10100B8F12A0F01F00C81A8F193
:1039C0003003092B98BF002101F26B8010F8018BA6
:1039D00001EB810103EB4101A8F13003092BF5D97B
:1039E00041EAE1710A9181461AE7099DA14CAF06AF
:1039F0001A948DF88F2040F1D181DDF840C00CF190
:103A0000070323F0070303F108041094D3E90045EA
:103A1000DDF824C01CF0010F00F0628454EA0500B8
:103A200000F05E8430234CF0020C8DF890308DF85D
:103A30009180CDF824C002234FF0000A8DF88FA0AA
:103A40000A99002905DBDDF824C02CF0800CCDF8A4
:103A500024C054EA050040F0C5820A99002940F0CC
:103A6000C182002B40F03884DDF824C01CF0010F27
:103A700000F0328448AF3023089D07F8413DEC1B2D
:103A8000DDF828C000256445A8BFA446CDF82CC0A9
:103A90001495BAF1000F02D00B9D01350B95099BCF
:103AA00013F00203129302D00B9D02350B95DDF843
:103AB00024C01CF0840CCDF84CC040F090820F9DC7
:103AC000DDF82CC0CCEB050BBBF1000F40F3878277
:103AD000BBF1100F2D992C9ADFF8A0A12CDD1B97BC
:103AE000304657461025CA460C9EA1460D9C06E05E
:103AF000ABF1100BBBF1100F00F1080017DD013224
:103B00001031072A2D912C9207604560F0DD204688
:103B100031462BAA03F006FA00287FF43BAFABF145
:103B2000100BBBF1100F2D992C9A38A8E7DC4C46EE
:103B3000D146BA461B9F064601320BEB010C072A01
:103B4000CDF8B4C02C9286E8000C00F31A849DF8DE
:103B50008FA00836BAF1000F0FD02C9B0CF1010C8E
:103B600001330DF18F010122072BCDF8B4C02C9346
:103B700086E8060000F3A4830836129B73B12C9BE1
:103B80000CF1020C013324A90222072BCDF8B4C09A
:103B90002C9386E8060000F387830836139D802D5A
:103BA00000F0CA820A9DC4EB050ABAF1000F3BDDA2
:103BB000BAF1100F2C9B304D2BDD0A9432464FF09A
:103BC000100B2E4661460D9C0C9D06E0AAF1100AD2
:103BD000BAF1100F02F1080217DD01331031072B83
:103BE0002D912C9382E84008F0DD204629462BAA2F
:103BF00003F098F900287FF4CDAEAAF1100ABAF1CB
:103C0000100F2D992C9B38AAE7DC0A9C35468C4670
:103C100016460133D444072BCDF8B4C02C9386E864
:103C2000200400F335830836099DED0500F1248258
:103C30002C9BA4440133072BCDF8B4C037607460CB
:103C40002C9300F30F830836099C630749D50F9D19
:103C50000B982C1A002C44DD102C2C9BDFF81CA098
:103C60002BDD574610256246DDF83080DDF834A0A4
:103C70000BE000BF3C814000088140005C814000B7
:103C8000103C102C06F1080615DD01331032072B0D
:103C90002D922C9337607560F2DD504641462BAA79
:103CA00003F040F900287FF475AE103C102C2D9ADB
:103CB0002C9B38AEE9DC9446BA460133A444072B6A
:103CC000CDF8B4C02C93C6F800A0746009DD0D983F
:103CD0000C992BAA03F026F900287FF45BAEDDF8DF
:103CE000B4C00E9C0B980F9DA842ACBF2418641959
:103CF0000E94BCF1000F40F0C18200232C9338AE2B
:103D000056E599F80080002A7FF488AD202285E5E9
:103D1000099D45F00105099599F800807EE5099D0A
:103D200045F08005099599F8008077E50024A8F111
:103D300030030F94214619F8018B01EB810103EB4D
:103D40004101A8F13003092BF5D90F9168E5DDF8A1
:103D500024C08DF88F204CF0100CCDF824C0099CA5
:103D6000A50640F1B280109DE91D21F00701D1E9BF
:103D700000230831109114461D46002A73F1000CEF
:103D8000C0F294839DF88FA0012359E6099DB64C9B
:103D9000AF068DF88F201A943FF52FAE099DED06E2
:103DA00040F14384DDF840C00025DCF800400CF110
:103DB000040CCDF840C02BE6DDF824C08DF88F2030
:103DC0001CF0200F00F04084109C21680E9CE51729
:103DD0002B46109D224604351095C1E90023E7E4E7
:103DE000109C4FF0000A27688DF88FA0251D002F2A
:103DF00000F0E9850A9C3846002CC0F29B855146AC
:103E0000224602F0B7FA002800F013860A9CC01B75
:103E1000A042B8BF0446109524EAE475CDF828A066
:103E2000CDF850A00B959DF88FA032E6DDF824C0A8
:103E30004CF0400CCDF824C099F80080EEE499F8DD
:103E400000804B46B8F16C0F00F07F84099D45F06F
:103E500010050995E2E4109C109D24682B1D002C90
:103E60000F94FFF67DAD109399F80080D6E4109B77
:103E7000DDF824C0109D7D4804351C684FF078089B
:103E800030234CF0020C10958DF89030CDF824C002
:103E900000258DF891801A900223CDE5109B109D8E
:103EA0001A680124002304359A460B948DF8B82033
:103EB00010958DF88F300A9314932EAFEFE5099C7F
:103EC0008DF88F20A5063FF54EAFDDF824C01CF01D
:103ED000100F40F0DF82DDF824C01CF0400F00F02E
:103EE000D982DDF840C0BCF900400CF1040CE517A4
:103EF00022462B46CDF840C03FE799F800802B22A0
:103F00008CE4099D45F00805099599F8008085E441
:103F1000109D8DF88F20EB1D23F0070303F1080C93
:103F2000CDF840C0D3E90045CDE91645DDE91601DD
:103F300002F0BEFF0128DDE9160140F05C8300229B
:103F4000002303F01DFD002840F063859DF88FA03D
:103F500003250B95099D464F25F08005454B002410
:103F6000099500250A94B8F1470FD8BF1F460324CE
:103F700014958EE5DDF824C04CF0200CCDF824C05B
:103F800099F800804AE4109CE31D23F0070303F135
:103F900008051095D3E9004500234DE5109DEB1D64
:103FA00023F0070303F1080CD3E90045CDF840C026
:103FB000012341E58DF88F20B8F1000F3FF4E3AC09
:103FC00000234FF0010C9A46CDF82CC08DF8B88034
:103FD0008DF88F300A93149364462EAF5FE5DDF8B9
:103FE000B4C0B7E5012B00F0EC80022B0DF1DF032C
:103FF00018D1DDF868C0194604F00F0022091CF83A
:10400000000042EA05722B09087052EA03000F46CD
:1040100014461D4601F1FF31EED1089DCDE91E2366
:10402000EC1B2DE5E00840EA457004F00702E908C2
:10403000303250EA010C1F461A7004460D4603F157
:10404000FF33EFD1099CCDE91C01E007394640F16F
:10405000C180302A00F0BE80089D1F463023EC1B33
:1040600001F8013C0CE500BF288140003C81400084
:104070001C81400018814000B8F1650F40F3AD800D
:10408000DDE9160100220023CDF81CC003F06EFC10
:10409000DDF81CC0002800F026812C9BAA490133C2
:1040A0000CF1010C0122072BCDF8B4C02C9386E84B
:1040B000060000F3ED820836259B119CA34203DB2A
:1040C000099DEC077FF5C0AD2C9B189C0133159D15
:1040D000A444072BCDF8B4C0356074602C9300F372
:1040E0003E830836119D6C1E002C7FF7ADAD102C61
:1040F0002C9B964D40F3978110276246DDF8348063
:10410000DDF830A004E00836103C102C40F38A8122
:1041100001331032072B2D922C9386E8A000F2DD9C
:10412000404651462BAA02F0FDFE00287FF432AC37
:104130002D9A2C9B38AEE7E70F9D0B98C0EB050A34
:10414000BAF1000F7FF72EADBAF1100F2C9B7F4D07
:104150002BDD129432464FF0100B2E4661460D9C1B
:104160000C9D06E0AAF1100ABAF1100F02F1080244
:1041700017DD01331031072B2D912C9382E8400875
:10418000F0DD204629462BAA02F0CCFE00287FF461
:1041900001ACAAF1100ABAF1100F2D992C9B38AA84
:1041A000E7DC129C35468C4616460133D444072B77
:1041B000CDF8B4C02C9386E8200400F30F820836B3
:1041C000F0E4002D08BF0A2C80F03881303448AF6D
:1041D00007F8414D089DEC1B52E4119C012C2C9CCE
:1041E00040F3D28101340CF101030122072C2D93FD
:1041F00037602C94726000F3D8810836159DDDF885
:10420000608001343560189D9844072CCDF8B48047
:104210002C94756000F3D5810836DDE91601002283
:10422000002303F0A3FB119D002840F0B9806B1E12
:10423000013401379844072C2C94CDF8B4803760B2
:10424000736000F3E2800836DDF864C00134199D24
:10425000C44427AB072CCDF8B4C02C9486E82800C2
:104260007FF7F1AC0D980C992BAA02F05BFE0028A9
:104270007FF490ABDDF8B4C038AEE5E40D980C994E
:104280002BAA02F04FFE00283FF437ADFFF782BBA8
:104290000D980C992BAA02F045FE00287FF47AAB0A
:1042A000DDF8B4C038AEBFE40D980C992BAA02F02B
:1042B00039FE00287FF46EABDDF8B4C038AE6DE493
:1042C0000D980C992BAA02F02DFE00287FF462AB0A
:1042D000DDF8B4C038AE50E40A9C38AFFFF7D0BB6D
:1042E0000223FFF7A9BB259B002B40F3DD81119C26
:1042F000149DDDF844A0AC42A8BF2C46002CBA4463
:104300000BDD2C9BA4440133072BCDF8B4C03760E0
:1043100074602C9300F31E830836149D24EAE47421
:104320002C1B002C40F3D780102C2C9B074D40F306
:10433000A3810A974FF010082F4662462546DDF804
:1043400034B00C9C09E000BF588140000881400057
:104350000836103D102D40F38B8101331032072BAE
:104360002D922C9386E88001F2DD584621462BAA37
:1043700002F0D8FD00287FF40DAB2D9A2C9B38AEAF
:10438000E7E70D980C992BAA02F0CCFD00287FF4EA
:1043900001AB9DF88FA0DDF8B4C038AEFFF7DABBF3
:1043A0006F1E002F7FF750AF102FAE4D23DD434619
:1043B0004FF0100ADDF83480DDF830B004E0103F33
:1043C000102F06F1080615DD01341033072C2D934C
:1043D0002C9486E82004F2DD404659462BAA02F0D0
:1043E000A1FD00287FF4D6AA103F102F2D9B2C9CF6
:1043F00038AEE9DC98460134B844072CCDF8B480D7
:104400002C9486E8A0007FF71EAF0D980C992BAA7C
:1044100002F088FD00287FF4BDAADDF8B4802C9C52
:1044200038AE11E794460133A444072BCDF8B4C04D
:104430002C93356074607FF706AC13E70DF1DF0B4A
:10444000204629460A22002303F0EAFA30328BF88C
:104450000020204629460A22002303F0E1FA044600
:104460000D4654EA050C5F460BF1FF3BE8D1089D71
:10447000EC1BFFF705BB109D01232C68043510953C
:104480000025FFF7D9BA109D2C680435109500253A
:10449000FFF7D2BA109D2C6804351095E517224617
:1044A0002B46002A73F1000CBFF66CAC4FF02D0ABE
:1044B000644265EB45058DF88FA00123FFF7C0BA74
:1044C0000D980C992BAA02F02DFD00287FF462AA0A
:1044D000DDF8B4C038AE149D259C2F44119DAC422C
:1044E00042DB099DE9073FD41198C7EB0A05041B7D
:1044F000AC42B8BF2546002D0BDD2C9BAC440133EC
:10450000072BCDF8B4C0376075602C9300F34C8254
:10451000083625EAE575641B002C7FF795AB102C57
:104520002C9B504D7FF77FAF10276246DDF834801B
:10453000DDF830A004E00836103C102C7FF772AF95
:1045400001331032072B2D922C9386E8A000F2DD68
:10455000404651462BAA02F0E5FC00287FF41AAA37
:104560002D9A2C9B38AEE7E7189D2C9BAC44159DEB
:1045700001333560189D072BCDF8B4C075602C93BE
:1045800000F3F4810836AFE7099DEA073FF52AAE4C
:1045900001340CF101080123072CCDF8B4802C94D0
:1045A000376073607FF74FAE2FE70D980C992BAAF9
:1045B00002F0B8FC00287FF4EDA92D9B2C9C38AEAE
:1045C0001CE60D980C992BAA02F0ACFC00287FF495
:1045D000E1A9DDF8B4802C9C38AE1EE60D980C994C
:1045E0002BAA02F09FFC00287FF4D4A9DDF8B4C008
:1045F00038AEFFF7D7BA02F05BFC002840F0BB8072
:10460000099C194F194B4FF0030C24F080040994B6
:104610000A90CDF82CC01490B8F1470FD8BF1F46B0
:1046200064469DF88FA0FFF734BA099C640640F1F8
:104630005081DDF840C00025BCF800400CF1040CAE
:10464000CDF840C0FFF7E4B9DDF824C01CF0100F2E
:1046500000F04681109C0E9D2368043410941D6068
:10466000FFF7A6B808814000248140002081400067
:104670002C463D460A9F94460133A444072BCDF8AF
:10468000B4C02C93356074603FF71AAF083622E748
:104690000D980C992BAA02F045FC00287FF47AA90A
:1046A000DDF8B4C038AE07E52C9AB74901320CF1F9
:1046B000010C0120072ACDF8B4C02C923160706043
:1046C00000F3F78008361C462CB9119D1DB9099DD1
:1046D000E8077FF5B9AA2C9B159D18990133356021
:1046E000189D6144072B2D9175602C9300F3DE819A
:1046F00006F108026442002C40F30B81102CA34DFC
:1047000040F34881A34610260C46DDF83480DDF8DE
:1047100030A006E00832ABF1100BBBF1100F40F3F4
:10472000378101331034072B2D942C9382E86000DD
:10473000F0DD404651462BAA02F0F4FB00287FF43E
:1047400029A92D9C2C9B38AAE5E7099C09F10109B0
:1047500044F02004099493F80180FFF75FB80D98A6
:104760000C992BAA02F0DEFB00287FF413A9DDF8D8
:10477000B4C038AEB6E40A9D28F0200A013500F036
:10478000A580BAF1470F04D10A9D002D08BF01256D
:104790000A95DDF824C0DDE916234CF4807C002B5B
:1047A000CDF848C0C0F29C81DDE91645CDE9204531
:1047B0004FF0000BB8F1660F00F09B81B8F1460F87
:1047C00000F0A981BAF1450F0ABF0A9C0A9D651C39
:1047D000022025A926AA29AB8DE821000392049383
:1047E00002910D98DDE9202300F0D6FAB8F1670FA9
:1047F000074602D0B8F1470F05D1DDF824C01CF000
:10480000010F00F09C81BAF1460F07EB050400F0A0
:104810001C81DDE920010022002303F0A7F8002815
:1048200040F00581299B9C4206D930215A1C2992CF
:104830001970299B9C42F9D8DB1BBAF1470F1193E1
:1048400000F0ED80B8F1650F40F3F281B8F1660F2A
:1048500000F06881259C1494119C149DAC4200F3D7
:104860003281DDF824C01CF0010F40F0AD8125EA53
:10487000E5732C464FF06708BBF1000F40F0B280A3
:10488000129D0B930995CDF828B09DF88FA0FFF7E6
:1048900000B90D98402101F0D1FA20602061002874
:1048A00000F0BF81DDF830C04023CCF81430FEF7B3
:1048B0006FBF0D980C992BAA02F034FB00287FF4EF
:1048C00069A8259CDDF8B4C038AEFDE606240A943C
:1048D0005FE7109D2C68043510950025FFF798B808
:1048E000DDF824C01CF0400F00F08780109C0E9D66
:1048F0002368043410941D80FEF75ABF0D980C995C
:104900002BAA02F00FFB00287FF444A82D992C9BC2
:1049100038AADDF844C00133119C8C44072BCDF834
:10492000B4C02C93176054603FF79CAC02F10806AA
:10493000FFF78AB9CDF828A0FEF726FE10950A9D4C
:1049400020EAE07C0446CDF82CC014959DF88FA099
:10495000FFF79FB80D980C992BAA02F0E3FA0028F4
:104960007FF418A8DDF8B4C038AED6E40D980C99E1
:104970002BAA02F0D7FA00287FF40CA8259CDDF8BA
:10498000B4C038AEB0E500BF588140000881400097
:1049900021465C4601332144072B2D912C93156051
:1049A0005460ABDC0832B4E70D980C992BAA02F0E6
:1049B000B9FA00287EF4EEAF259C1199DDF8B4C059
:1049C0000C1B38AEA5E50A9CBA46062C28BF062467
:1049D00024EAE47C0A9714971095CDF82CC0974FE1
:1049E000FFF757B8129D4FF02D0A099500250B933C
:1049F0008DF88FA00A95FFF74FB8DDF840C00E9CE8
:104A0000DCF800300CF1040CCDF840C01C60FEF75F
:104A1000CFBE4FF02D0A8DF88FA0FFF799BA259BD6
:104A2000DC1C19DB0A9C9C4216DB149314E723461A
:104A300002E724EAE47CCDF82CC00A9C10950A9089
:104A400014909DF88FA0FFF724B83B78302B00F02E
:104A5000AD80259D2C44DCE6A8F10208591E0029F2
:104A60002591BABF49422D232B2309298DF89C801B
:104A70008DF89D3065DC302330318DF89E308DF817
:104A80009F1028AB119D27AA119C9A1A012D1992EB
:104A9000144440F3B7800134002524EAE4731495EC
:104AA000EAE6002481460A94FEF7BABE0D980C99F6
:104AB0002BAA02F037FA00287EF46CAF259C2D99C2
:104AC0002C9B38AA16E6149C119D002CD4BFC4F16F
:104AD000020401242C4424EAE4734FF06708CBE677
:104AE0001799169801F10041209021914FF02D0B5C
:104AF00060E60A9D032025A926AA29AB019500900E
:104B00000392049302910D98DDE9202300F044F90B
:104B10000A9D074677E60A9C032025A926AA29AB09
:104B20000194ECE7259D0A9C002D149563DDB4BB30
:104B3000099DE80733D4149C24EAE4739CE6299B7E
:104B40007AE60DF1AA023E4DCB1785FB0150C3EB6F
:104B5000A00000EB8003A1EB43010928134601F1FB
:104B600030021A70014603F1FF32ECDC00F1300133
:104B70000DF1AB04C9B2944203F8011C5AD90DF1EE
:104B80009D001A4601E012F8011BA24200F8011F25
:104B9000F9D10DF5907CC3EB4C03F63B72E70A9D0F
:104BA0006C1C149D2C4424EAE47365E6DDE92001C5
:104BB0000022002302F0DAFE00287FF44AAFC5F19C
:104BC000010525952C4424E6149D4FF067086C1CC4
:104BD00024EAE47350E6109DDDF840C02D680CF126
:104BE0000403002D99F801800A9510938146BEF6C2
:104BF00015AEFEF710BE7CB9099DE9070CD4012360
:104C00001C4639E6DDF824C01CF001037FF443AFF5
:104C1000149324EAE4732FE60A9DAC1C24EAE4739F
:104C20002AE60D9D0C232B604FF0FF30FEF7BABE35
:104C3000259B13E70DF19E0324E700BF5081400040
:104C400067666666024B13B1024800F005B870470C
:104C500000000000D15B40000146002002460346F0
:104C600002F0E0B92DE9F04F03690D6983B09D4270
:104C7000834600F38C80013D01F1140400F1140A15
:104C800054F825205AF825300132B3FBF2F8AA0077
:104C9000914600925244A1440192B8F1000F3ED0D7
:104CA00000263046224653468C4652F8047B19684B
:104CB0001FFA87FE3F0C0EFB086E07FB08F606EB9B
:104CC0001E461FFA8EFECEEB000E8FB2B0B27744B6
:104CD000C0EB114000EB2740BFB247EA00479145C7
:104CE00043F8047B4FEA20404FEA1646DDD2009A93
:104CF00061465AF8023093B9019A131F9A450CD2B3
:104D000052F8043C4BB9A2F1080302E01A68043BD4
:104D10001AB99A4505F1FF35F8D3CBF8105058462B
:104D200001F0F8FD00282EDB08F1010853460022AF
:104D300054F8046B1868B1B2511A87B2360C394472
:104D4000C6EB104000EB214289B241EA0241A14585
:104D500043F8041B4FEA2242EAD25AF825200AEB14
:104D6000850382B91A1F92450BD253F8042C42B91D
:104D7000083B02E01A68043B1AB99A4505F1FF3571
:104D8000F8D3CBF81050404603B0BDE8F08F0020B8
:104D900003B0BDE8F08F00BF2DE9F04F016C9BB070
:104DA000044692469B46279D41B1436C01229A409E
:104DB0004B608A6001F0B8FB00232364BBF1000F55
:104DC000D94633DB00232B60A54B1A4609EA0303BF
:104DD000934214D0504659460022002302F0C6FDEB
:104DE000804648B3269E289D01233360002D00F0A5
:104DF000CA809C48286001381BB0BDE8F08F269D12
:104E000042F20F732B60BAF1000F00F0A5809648B4
:104E1000289E002EF0D0C378002B00F0B68000F161
:104E20000803289D2B601BB0BDE8F08F01232BF0F9
:104E300000492B60CB46C7E719AA18AB8DE80C00D8
:104E4000204652465B4601F0F5FD5FEA19550A908F
:104E500040F08B80189F199D6FF482633D449D4202
:104E6000C0F295821F3305F212425B1B09FA03F36D
:104E70002AFA02F243EA020002F09AFA0126013D00
:104E8000B846A1F1F87116960022784B02F052F95B
:104E90006DA3D3E9002302F001FB6DA3D3E9002346
:104EA00002F04AF9064628460F4602F091FA6AA334
:104EB000D3E9002302F0F2FA02460B4630463946A7
:104EC00002F03AF906460F4602F082FD3946079095
:104ED00000223046002302F053FD002840F02982D2
:104EE000079E162E00F222826149524601EBC6014E
:104EF0005B46D1E9000102F061FD002800F04C8220
:104F0000013E079600260E96C5EB0805013D069565
:104F100000F1268200250895079E002EC0F2178218
:104F2000069D0D963544002606950C96249D092D68
:104F30002DD8052DC4BF043D2495249EC8BF00254F
:104F4000A6F10203D8BF0125032B22D8DFE813F016
:104F5000B7039E02C0039A04464A434BC9F31300A9
:104F600000280CBF1046184652E7CBF3130343F05A
:104F70007F51CDF858805046A5F2FF3541F44011DD
:104F8000DDF8608080E73C4836E7C31C49E7002530
:104F90002495002565642946204601F09FFA4FF0CC
:104FA000FF390126099025952064CDF83C900B9699
:104FB000199B002BC0F2D280079E0E2E00F3CE80EC
:104FC0002B4B03EBC603D3E90001CDE9040125997E
:104FD0000029C0F28083DDE904235946504602F0DF
:104FE00087FB02F0F5FC054602F0F2F9DDE9042347
:104FF00002F054FA02460B465046594602F09AF81F
:10500000099A05F13003B9F1010F06460F461370F6
:1050100002F1010B64D00022184B02F03FFA00228B
:10502000002306460F4602F0A1FC002840F08180D4
:10503000DDF82480099DC844DDE904AB05F10209CF
:10504000039428E0AFF3008061436F63A787D23FEA
:10505000B3C8608B288AC63FFB799F501344D33F67
:105060000000F07F598140007C8240000000F83F42
:10507000908240007082400058814000000024402F
:1050800002F00CFA0022002306460F4602F06EFCE6
:10509000002840F0C18352465B463046394602F054
:1050A00027FB02F095FC054602F092F952465B465A
:1050B00002F0F4F902460B463046394602F03AF85F
:1050C00005F1300EC14509F801EC4C4606460F4685
:1050D0004FF00002A74B09F10109D1D1A346039C6F
:1050E00032463B463046394602F026F806460F4621
:1050F0003246DDE904013B4602F042FC40B9DDE9FD
:10510000040132463B4602F031FC90B1EB0710D56A
:105110001BF8015C099A05E09A4200F0298413F813
:10512000015C9B46392D0BF1FF33F5D06A1CD2B2DE
:105130001A7020460A9901F0F7F9079E269D731C04
:10514000289E00228BF800202B60002E00F0258383
:105150000998C6F800B01BB0BDE8F08F0B9D002D7C
:1051600000F00381249E012E40F3DC820C9E09F1A5
:10517000FF37BE42C0F28983F71BB9F1000FC0F2BE
:105180008784089D4B46089E20461E440896069E2E
:1051900001211E44069601F069FA064665B106989B
:1051A000002809DD03460899AB42A8BF2B46C91A5F
:1051B000C01A0891ED1A06900C9A002A1DDD0B9B6F
:1051C000002B00F05883002F11DD31463A4620466F
:1051D00001F0F4FA064631460A9A204601F050FAE8
:1051E0000A998046204601F09FF9CDF82880DDF825
:1051F00030E0BEEB070240F08F822046012101F033
:1052000035FA80460D98002805DD414620460D9A66
:1052100001F0D4FA80462499012940F3C182002785
:105220000D98002840F0AF820120069B034413F044
:105230001F0300F0A180C3F12002042A40F3B784C9
:105240000899069AC3F11C0319441A4408911D4495
:1052500006920899002905DD0A99089A204601F06E
:10526000FBFA0A90069A002A04DD4146204601F026
:10527000F3FA80460E9B002B40F06A82B9F1000FD2
:1052800040F3A6820B98002840F088800B9D0A9F6F
:10529000DDF824B006E0394620460A22002301F05A
:1052A0004DF9074638464146FFF7DCFC30300BF835
:1052B00005000135A945EEDCDDF824B082460A97E9
:1052C000B9F1010FACBFCB440BF1010B00250A99DA
:1052D0000122204601F0C0FA41460A9001F01AFB73
:1052E000002840F309831BF8012C099905E0994235
:1052F00000F08B8213F8012C9B46392A0BF1FF3307
:10530000F5D001321A704146204601F00DF9002E09
:105310003FF40FAF2DB1B54203D02946204601F02E
:1053200003F93146204601F0FFF802E701260E9608
:10533000EAE5079802F04CF832463B4602F016FBCD
:1053400000287FF4CDAD079E013E0796C8E5079E75
:10535000089DAD1B0895754200260C950D96E5E558
:105360006D42002608950696D6E50C9F089D0B9E7B
:1053700014E700BF000024401C23DDF820E006985D
:105380009E441844CDF820E01D44069061E7A748EC
:10539000401B0AFA00F06FE50E90B5E5002D05DD23
:1053A00031462A46204601F057FA0646002F40F0C3
:1053B000E9823746099D09984D4408950AF0010590
:1053C0000B95DDF82890451C0AE001F0B7F8394646
:1053D00006460A222046002301F0B0F807460135B0
:1053E00041464846FFF73EFC31468346484601F0B9
:1053F00091FA414603903A46204601F0AFFAC2685E
:10540000691E03460BF1300A0691002A40F0938191
:1054100019464846029301F07DFA029B024619465E
:105420002046029201F080F8029A2AB9249B1BB907
:105430000B98002800F09383039B002BC0F234826A
:1054400005D1249818B90B99002900F02D82002A63
:1054500000F3AC82DDF820E005F801AC7545AB4601
:1054600000F0B48249460A220023204601F066F883
:10547000BE428146314620464FF00A024FF00003FB
:10548000A3D101F05BF806460746A8E700260B9675
:10549000079EDDF894E0B6440EF10109B9F1000F62
:1054A000CDF83CE04E4640F350810021172E616458
:1054B0000AD9012204235B0003F11400B042114613
:1054C00002F10102F7D96164204601F007F80E2EBF
:1054D000099020643FF66CAD002D3FF469AD079D47
:1054E000CDE912AB002D40F31C82514B05F00F02A9
:1054F00003EBC2032D11D3E90067EB0640F1CD8128
:105500004C4B50465946D3E9082302F0F1F8CDE957
:10551000100105F00F054FF003088DB1DFF814A15D
:1055200030463946EE0705D5DAE9002308F10108CF
:1055300001F0B4FF6D100AF1080AF3D106460F46D8
:10554000DDE9100132463B4602F0D2F882468B4636
:105550000E9D45B1504659460022374B02F010FAD5
:10556000002840F0AA82404601F032FF52465B46D6
:1055700001F094FF0022314B01F0DEFD0646A1F15F
:105580005077B9F1000F00F05A81079DC846179572
:105590000B9D002D00F02382254B002003EBC80358
:1055A00053E90223264902F0A3F832463B4601F0B4
:1055B000C1FDCDE910015946504602F009FA0546F1
:1055C00001F006FF02460B465046594601F0B2FD77
:1055D0003035099ECDE90401DDE90423DDE9100140
:1055E000EDB2357006F1010B02F0E8F9002840F049
:1055F000AB82DDE9042300200F4901F09BFD024648
:105600000B46DDE9100102F0D9F9002840F0A28232
:10561000B8F1010F40F38181B044CDF85090A2461B
:10562000C146DDE90467DDE9104519E0EEFBFFFF47
:1056300090824000588340000000F03F00001C4072
:105640000000E03F0020A84901F074FD22462B46EF
:1056500002F096F9002840F07B82CB4500F05A8199
:10566000204629460022A14B01F018FF00229F4B43
:1056700004460D463046394601F010FF0F460646F7
:1056800002F0A6F9804601F0A3FE02460B46304622
:10569000394601F04FFD08F130085FFA88F82246DC
:1056A0002B460BF8018B06460F4602F069F932468D
:1056B0003B460028C6D0179E5446079639E500267B
:1056C0000B96259800283CDD06460F908146ECE6B7
:1056D00001260B96F5E7B9F1000F3FF77CAC40F0DF
:1056E000C680DDE904010022814B01F0D7FE52465D
:1056F0005B4602F059F9C8464E4600287CD0259DED
:10570000DDF824B0ED4307954146204600F00CFF3C
:10571000002E7FF406AE0CE50A99204601F04EF803
:105720000A906AE5169D002D00F0B88103F233431C
:105730000C9F089D27E50146204600F0F5FE01225A
:105740007AE6012625960F96B14600216164BBE6F4
:105750000A98414601F0DEF80028BFF68FADDDF86B
:105760001CE00A990EF1FF3E20460A220023CDF8E4
:105770001CE000F0E3FE0A900B98002840F009823C
:10578000DDF83C907AE5D8F8103008EB830318690F
:1057900000F01EFFC0F1200047E50998FFF72CBB81
:1057A000BAF1000F7FF43BADCBF31303002B40F0B5
:1057B0007C812BF000473F0D3F05002F3FF430ADBB
:1057C000089A069B0132013308920693012727E5C8
:1057D000249902297FF756ADB9F1000F8FD14146C8
:1057E0004B460522204600F0A9FE804641460A9815
:1057F00001F090F8002882DD079D312301350795DF
:10580000099D2B7005F1010B7EE70798099931235B
:10581000013007900B7076E5A346039C89E440466F
:1058200001F0D6FD02460B465046594601F036FEC1
:105830000022304B01F080FC0646A1F15077504623
:10584000594600222A4B01F075FC32463B468246FF
:105850008B4602F0B3F8002840F0BD80324607F1D5
:1058600000435046594602F08BF8002855D04FF0BF
:105870000008464643E70A990C9A204600F09EFF2E
:105880000A90BAE401260B9602E60C9D0D9E7B1B46
:105890001E440C970D9600276FE4DDE912014FF0CE
:1058A0000208CDE9100138E6002ACDF82890D94643
:1058B00011DD0A990122204600F0CEFF41460A90F0
:1058C00001F028F8002840F35D81BAF1390F00F0AB
:1058D0001B8109F1310A069B354683F800A003F1CC
:1058E000010B3E460FE500BF0000F03F00002440E2
:1058F0000000144000001C4003D11AF0010F7FF497
:10590000F2AC5B4613F8012C9B46302A03F1FF33BF
:10591000F8D0F8E4DDF850905446DDE912ABFFF71B
:1059200047BB079E7542002D00F0C280A34B05F0D7
:105930000F0203EBC203D3E90023DDE9120101F0FA
:10594000ADFD2D1182468B4600F02E819C4E4FF00E
:105950000208EA0705D5D6E9002308F1010801F09D
:105960009DFD6D1006F10806F3D182468B46EFE5EA
:10597000079E099D30222A700136312207961A703F
:10598000FFF7D7BB7168204600F0A8FD33690546D4
:105990009A1C920006F10C010C30FDF70FFD204619
:1059A0002946012200F058FF074603E5BAF1390FF6
:1059B000CDF8289000F0A880069D0AF101032B7015
:1059C0003546069E06F1010B3E469CE43546CDF871
:1059D00028903E467BE44FF0000846460CE77749A6
:1059E00008F1FF3501EBC50132463B46D1E9000124
:1059F000109501F053FDCDE914015946504601F0D0
:105A0000E7FF054601F0E4FC02460B4650465946C6
:105A100001F090FBDDF824E03035B8F1010F0646C7
:105A20000F468EF800500EF1010B1ED0099D6B1E23
:105A300003EB080A0022634B01F030FD0F460646D7
:105A400001F0C6FF804601F0C3FC08F130080246B1
:105A50000B463046394601F06DFB05F8018F554580
:105A6000E8D1109D06460F46AB440022564BDDE9B7
:105A7000140101F061FB32463B4601F081FF002832
:105A80004DD0179E099A07961BF8015CFFF74ABB99
:105A9000089E0023C9EB0605FFF775BB189B0C9FFA
:105AA000C3F13603089DFFF76EBB5746FFF7B8BB3F
:105AB000DDE912AB4FF002084AE5B9F1000F3FF4FF
:105AC000AEAE0F9E002E7FF728AF00223D4B504612
:105AD000594601F0E3FC824608F101008B4601F0D3
