:020000040040BA
:1000000080270020A52D4000A12D4000A12D4000FB
:10001000A12D4000A12D4000A12D400000000000B6
:10002000000000000000000000000000A12D4000C2
:10003000A12D400000000000A12D4000A12D400096
:10004000A12D4000A12D4000A12D4000A12D400078
:10005000A12D4000A12D4000A12D4000A12D400068
:10006000A12D4000A12D4000A12D4000ED13400026
:1000700001144000A12D4000A12D4000A12D400001
:10008000A12D4000A12D4000A12D4000A12D400038
:10009000A12D4000A12D4000A12D4000A12D400028
:1000A000A12D4000A12D4000A12D4000A12D400018
:1000B000A12D400081014000A12D4000A12D400054
:1000C000A12D4000A12D4000AD1B4000A12D4000FE
:1000D00008B50548054B1B1A062B00D808BD044B74
:1000E000002BFBD09847F9E7B8314000BB31400006
:1000F0000000000008B50748074B1B1A9B1003EBD4
:10010000D373591000D108BD044A002AFBD0904790
:10011000F9E700BFB8314000B831400000000000EE
:1001200010B5064C237843B9FFF7D2FF044B13B147
:100130000448AFF300800123237010BDE8040020C1
:1001400000000000B831400008B5084B1BB108485A
:100150000849AFF300800848036813B1074B03B1A7
:100160009847BDE80840FFF7C5BF00BF000000008A
:10017000B8314000EC040020B8314000000000001D
:1001800010B5184B9847184B1860184C2046184B60
:100190009847184B18602046174B9847174B1B6819
:1001A000DBB1174A12681AB1013A154B1A600AE01E
:1001B0000D4A1268118A124A11600021114A116019
:1001C000013B0E4A1360084B1A680E4B1B68134420
:1001D0000648197A0C4B984710BD0C4800210C4B6F
:1001E000984710BD85034000400700200080034071
:1001F0004D1240003C070020451240003807002007
:10020000340700200C00002039124000000001409B
:100210000D16400038B51E20154CA0470C20A047F5
:10022000144D28464FF000514FF40052124CA04795
:1002300028464FF000514FF48042A0470F4C204613
:100240000F4B9847204600210E4B9847204600212F
:100250000D4DA84720460121A84720460121002234
:100260000F230A4DA8472046094B984738BD00BFC9
:100270001915400000100E40C512400000C0034098
:100280005112400065124000B1124000811240003E
:1002900059124000431C4278202A03D113F8012F41
:1002A000202AFBD0704700BF30B58FB0294B98474C
:1002B00000284CD0284B9847C4B22046274B98477B
:1002C000274B1B78112B04D8264AD4540133244AD7
:1002D00013700D2C3BD10A20204CA0470D20A047C5
:1002E00020481F4B1B780022C2541F491F4B9847C0
:1002F0000378532B04D0542B13D0522B24D121E05C
:1003000001221B4B1A7501AC1A4D0FCD0FC495E895
:10031000030044F8040B218001A81521164B9847CF
:1003200012E00122124B5A7501AC144D0FCD0FC4CF
:1003300095E8030044F8040B217001A814210E4B2A
:10034000984701E00E4B98470022054B1A700FB0FA
:1003500030BD00BF39094000F5094000290B4000BD
:100360000405002008050020543140003F304000C3
:10037000440700205C314000E10B40007431400034
:1003800095024000034801230372022343720323B2
:10039000837270474407002070B582B00E4B9847B7
:1003A0000E480F4B98470B200E4B98470E4E0024DB
:1003B000009430464FF40031224623460B4DA847A7
:1003C000009430464FF4802122462346A847084B2C
:1003D000984702B070BD00BF4504400050140E4065
:1003E000992D400019154000000E0E405513400095
:1003F0001502400010B500203E210A4B98470A4CD8
:10040000A0470028FCD0094B9847094A094BDA62FB
:10041000094CA0470028FCD00120084B9847084B06
:10042000984710BD79144000CD144000FD144000E1
:10043000023F0F0000040E4009154000C91540009E
:10044000DD15400010B50D480D4B984700203E21AA
:100450000C4B98470C4CA0470028FCD00B4B9847FE
:100460000B4A0C4B9A620C4CA0470028FCD0102081
:100470000A4B98470A4B984710BD00BF0090D00325
:10048000692F400079144000CD144000DD14400075
:10049000033F1F2000040E40ED14400015144000DF
:1004A000552E40000E4900230B700E4A13800E4A51
:1004B000A120107020205070538093800220D080A3
:1004C00013810A4A4FF4E13010601371537108230D
:1004D00093710B780133DBB20B700120704700BFC2
:1004E000B405002060060020CC0500201C0500207B
:1004F000024B1A78013AD2B21A707047B405002044
:10050000044B1A78013AD2B21A701B780022024BBF
:100510001A70704724050020C00500200020704795
:10052000002070471D4B1B7813F0800F12D003F092
:100530006003202B28D1194B5B78212B26D1174B38
:10054000DB88072B24D1154B154A9A6007229A8124
:100550000120704703F06003202B1BD10F4B58780C
:10056000202804D0222814BF0020012070470B4B04
:10057000DB88072B10D1094B0A4A1A61084A9A6096
:1005800007229A81012070470020704700207047A1
:100590000020704700207047002070476807002047
:1005A0001C050020A9054000704700BF30B583B08E
:1005B000424B1B7813F0FF0F7ED1414B984730B16F
:1005C000404B1C88404B9847844206D174E03D4B19
:1005D0001C883E4B984784426ED0EFF31083D3F1D2
:1005E000010538BF002572B6BFF35F8F0022384B7C
:1005F0001A70384B1C78E4B2374B33F81430DBB93F
:10060000364B1A8801321A802D4B984718B9334B54
:100610001B88632B07D92A4B984768B12F4B1B883F
:10062000B3F5487F08D2002D46D00122284B1A701E
:10063000BFF35F8F62B63FE00022284B1A80284B41
:100640001B7813F0FF0F06D1944214BF0022012241
:10065000204B1A7003E0D4F1010438BF00240122BA
:10066000164B1A7025B11A4B1A70BFF35F8F62B622
:100670002546194B33F81440403C18BF012464B19F
:100680000F4B984720B1104B98470E4B188007E04E
:100690000E4B98470B4B188002E00022094B1A8042
:1006A0000D4B33F815300F4A0092812021460E4A37
:1006B00002EB85120D4CA04703B030BDC8050020E9
:1006C00045274000BC050020AD2740009D27400085
:1006D000B0000020280500202C050020C2050020C5
:1006E0005C060020F106400030050020FD2A400095
:1006F00008B578B9084B1B7813F0FF0F14BF002220
:100700000122064B23F81200054B1870054B187098
:10071000054B984708BD00BF280500202C05002088
:100720005C060020C8050020AD05400008B500208B
:10073000014B984708BD00BFAD054000EFF31083A3
:1007400072B6BFF35F8F0021094A1170094A108801
:1007500080B2094A1178094A32F81120101A2BB9CF
:100760000122034B1A70BFF35F8F62B6704700BF60
:10077000B0000020B8050020C4050020B00500200E
:1007800008B5034B9847003018BF012008BD00BFD3
:100790003D07400010B582B0EFF31083D3F10103A1
:1007A00038BF002372B6BFF35F8F00211E4A11705D
:1007B0001E4A1478E4B21E4A127812F0FF0F07D1D5
:1007C0001C4A128892B21C4931F81410914208D97F
:1007D0003BB30122144B1A70BFF35F8F62B6002047
:1007E00020E00021134A11808C4214BF0021012116
:1007F0000E4A117001210E4A117023B10A4B197073
:10080000BFF35F8F62B600200C4B98470C4B0093F0
:10081000022001210B4A02EB841240230A4CA0471C
:1008200000E0002002B010BDB0000020C405002090
:1008300058060020B8050020B005002081074000C0
:10084000DD084000D8050020FD2A400010B5002436
:10085000154B1C70154B1C70154B1C70154B1C70E8
:10086000154B1C805C80154B1C802046144B984710
:10087000144B1C70144B1C70144B1C80144B1C80AC
:100880002046144B9847024658B1074B197801315E
:10089000C9B219701B78DBB2012B02D101210E4BBA
:1008A0001970104610BD00BF24050020C8050020A7
:1008B0005C060020280500202C050020BC05002037
:1008C000AD05400058060020C4050020B0050020FA
:1008D000B805002095074000C005002010B582B083
:1008E000D0B90E4B1B7813F0FF0F14BF0023012368
:1008F00051B90B490091104601210A4A02EB8312BB
:100900004023094CA04707E0084A22F813100020B2
:10091000074B1870074B984702B010BDC405002064
:10092000DD084000D8050020FD2A4000B005002069
:10093000580600209507400008B50020014B984755
:1009400008BD00BF810740002DE9F047214B93F817
:100950000690B9F1090F14BF4FF000094FF00109DB
:1009600000201D4C804607461C4D1D4EEFF31081A4
:1009700072B6BFF35F8F27702B889BB23278D2B2EA
:1009800021B901212170BFF35F8F62B6154931F89B
:100990001210994207D8144B1B7813F0FF0FE5D1C2
:1009A0000020BDE8F08703EB8212104911F802A085
:1009B00040EA0A0A01339BB22B8040460C4B984711
:1009C000B9F1000F03D04FEA0A20C146CEE75046E6
:1009D000BDE8F0871C050020B0000020B80500200D
:1009E000C4050020B0050020C0050020D805002067
:1009F0009507400008B50020014B984708BD00BF8F
:100A00004909400010B4EFF3108472B6BFF35F8F52
:100A10000022174B1A70174B1978C9B2164A32F8D0
:100A20001130D1F1010138BF002132F81100402B03
:100A300010D1124A127812F0FF0F0BD1104A12781F
:100A400012F0FF0F06D101220D4B1A70094B1970DD
:100A5000402000232CB90121054A1170BFF35F8F9C
:100A600062B61844C0F180005DF8044B704700BFC7
:100A7000B0000020280500202C050020C80500201B
:100A80005C06002008B5034B9847003018BF0120D2
:100A900008BD00BF050A40002DE9F0410C461B4B84
:100AA0009E79092E14BF00260126194D194FDFF833
:100AB00074800020A84730B9174B1B7813F0FF0F44
:100AC000F7D1BDE8F081EFF3108172B6BFF35F8F0D
:100AD00000233B7098F80030DBB2104830F8132048
:100AE00002F1010C20F813C002EB83130C4AD4541A
:100AF00021B901233B70BFF35F8F62B616B1241298
:100B00000026D6E70120BDE8F08100BF1C050020CB
:100B1000850A4000B0000020C00500202C05002000
:100B2000300500202805002008B501460020014BB3
:100B3000984708BD990A40002DE9F84F88461546A8
:100B40001F4B9B79092B08BF5500DFF88CA00020B4
:100B5000D04738B91B4B1B7813F0FF0FF7D128464D
:100B6000BDE8F88FEFF3108B72B6BFF35F8F0023F1
:100B7000154A1370154B1E78F6B2DFF8609039F8FD
:100B80001670C7F14004A54238BF2C4607EB861308
:100B90000F481844414622460E4B9847274429F8EF
:100BA00016705B462BB90123074A1370BFF35F8FA2
:100BB00062B6A0442D1BCAD10020BDE8F88F00BF4B
:100BC0001C050020C0050020B000002028050020E2
:100BD000300500202D304000850A40002C05002003
:100BE00008B503460A4600201946014B984708BD40
:100BF000390B40000F4B1B681B685A881A44037856
:100C00001844904210D24378042B0FD08B4205D168
:100C100070474378042B0BD08B420AD003781844DA
:100C20009042F6D3002070470020704700207047A4
:100C3000002070476806002008B5034B987800F044
:100C40007F00024B984708BD6807002049274000F5
:100C500010B4164B1B7803B3154B1B681B681A792D
:100C600082421CD9134A13605C881C44A34218D2E8
:100C70005A78042A09D19A78824206D1DA788A42CF
:100C800003D10C4A136001200CE01A781344A342EC
:100C9000EED3084A1360002004E0002002E00020A8
:100CA00000E000205DF8044B704700BF7006002094
:100CB00068060020740600202DE9F8430446002150
:100CC000124B98478046E8B1114B1B685B6853F89C
:100CD0002490D9F80C309847014620460B4B984792
:100CE000804678B10B4B1C6805260B4D0B4F2046F8
:100CF0003146A847044610B18078B847F7E7D9F8DD
:100D0000043098474046BDE8F88300BF510C4000CE
:100D10006806002074060020F50B4000C128400042
:100D20002DE9F0418046104B98470346C8B10F4B60
:100D30001C6805260E4D0F4F20463146A847044635
:100D400038B18078E178A288B84703460028F3D10B
:100D500007E0094B1B685B6853F828301B6898470D
:100D600003461846BDE8F081510C4000740600208F
:100D7000F50B4000BD2740006806002008B5014B78
:100D8000984708BD8D26400070B50D4B1B7883B188
:100D90000C4B1B681B681B795BB100240A4E094D84
:100DA0002046B0470134E4B22B681B681B79A3428C
:100DB000F6D80023024A1370044A138070BD00BFA6
:100DC0007006002068060020B90C40006E06002066
:100DD00038B50C4B1B789BB10B4B1B681A6812790A
:100DE00072B10024084D5B6853F824301B6903B1CD
:100DF00098470134E4B22B681A681279A242F2D8FB
:100E000038BD00BF70060020680600202DE9F041C3
:100E1000774B00229A811A615A611B7813F0800F78
:100E200000F0E681724AD288002A40F0E581DBE1D9
:100E300013F01F0367D16E49497806290DD00829A0
:100E400057D000295FD1022A05D16A4802216A4B96
:100E50009847012474E1002472E1654B5A88130A13
:100E6000013B0E2B3BD8DFE803F0080F2A3A3A3A51
:100E70003A3A3A3A3A3A3A3A2200604B1B681846F4
:100E800019785D4B984721E0D2B25C4B1B685B7CC4
:100E9000934226D9594B5B6853F83230184659882B
:100EA000554B9847524B9B6802225A700EE0534BA9
:100EB0009B68C3B1184659884F4B984706E012F01B
:100EC000FF0F12D14E4804214B4B9847484BDA880C
:100ED0009B8993420BD9464B9A81012430E100242F
:100EE0002EE100242CE100242AE1002428E1012441
:100EF00026E1012A05D1434801213F4B98470124AF
:100F00001EE100241CE1012B2AD1394949780A2924
:100F100026D1012A1ED13B4B1B78EBB1344B1D79F6
:100F2000394B1E6833681B79AB4217D9284600211C
:100F3000364B98470446002800F00281736853F846
:100F40002530DB689847324B1870184601212A4B30
:100F50009847F5E00024F3E00024F1E00024EFE0FE
:100F6000022B40F0EF80224B5B78002B40F0E380B7
:100F7000022A0BD11E4B1879264B9847264B188016
:100F8000184602211C4B98470124D9E00024D7E0E1
:100F900013F01F0340F08480154A5278013A082A62
:100FA0007ED8DFE812F013007D00CA007D00090042
:100FB0007D007D007D003D000D4BDB8823B9174A85
:100FC0000B4B1A610124BBE00024B9E0084BDB881D
:100FD00053B9074B5B88012B08D1064B1A8822F0C6
:100FE00002021A800124ABE00024A9E00024A7E05B
:100FF000680700206E060020B1274000380000205E
:10100000AC0000207006002068060020510C400053
:1010100064060020F92840006C060020390C4000CE
:10102000794BDB88002B31D1784B984700282FD0A3
:10103000754B9A78764B1B685B7C9A422ADC754B21
:101040009847714B9B78744A13702BB303F100538C
:10105000013B6F4A526802EBC3007049086052F8C6
:1010600033301B79D3B100252F466D4E8846284674
:101070003946B0470446002862D00135EDB2D8F8B1
:1010800000301B681B79AB42F1D859E0002457E0CF
:10109000002455E0002453E0012451E001244FE0F6
:1010A000012B1CD1584A52780B2A18D1564BDB8899
:1010B0008BB9594B1B7883B1534B1D795E882846F9
:1010C000584B9847044600283AD02846F1B2544B72
:1010D0009847044634E0002432E0002430E0022B3C
:1010E00030D1494B5B78012B02D0032B10D026E086
:1010F000454BDB8843B9444B5B883BB9424B18797D
:10110000494B984704461BE0002419E0002417E0EF
:101110003D4BDB885BB93C4B5B8853B93A4C20793B
:10112000424B98472079424B9847044608E00024F8
:1011300006E0002404E0002402E0002400E0002493
:10114000002C5DD1304B1B7803F01F03012B1ED107
:10115000314B1B78DBB12C4B1C79304B1D682B6855
:101160001B79A34213D920460021324B984770B116
:101170006B6853F82450EB689847014620462D4B86
:10118000984720B1AB6898470446002838D11E4BD9
:101190001B7803F01F03022B28D11F4B1B78FBB1D8
:1011A0001E4B1B681A681279E2B10025214FDFF847
:1011B0006C805B6853F82560F368984701462846C1
:1011C000B8470446E0B1B36898470446C0B9013552
:1011D000EDB2D8F800301A681279AA42E9D80FE0C7
:1011E00000240DE000240BE0002409E0002407E0C7
:1011F00013F0600FA6D1CBE613F0600FA2D117E673
:101200002046BDE8F08100BF68070020812740002C
:1012100038000020890D400070060020680600207C
:10122000210D4000B90C4000252A4000512C4000FF
:1012300039294000510C4000012303FA01F10161FA
:10124000704700BF4FF6FF7343617047006A7047F5
:1012500001230360704700BF436823F0010343602C
:10126000704700BF19B1044BC0F8E4307047034B1E
:10127000C0F8E430704700BF01434144004341449B
:1012800010B4446824F07C5424F47F44090289B2E9
:101290000C4312B144F4001401E024F400141B06C2
:1012A00003F07C531C43446000205DF8044B7047FE
:1012B000012905D8012303FA01F1016100207047DB
:1012C0000120704710B44264B1F1C05F2ED008D83D
:1012D000B1F1006F14D0B1F1805F1DD0002935D17C
:1012E00035E0B1F1205F32D003D8B1F1005F27D0F3
:1012F0002CE0B1F1405F2AD0B1F1605F27D025E04A
:10130000016F046FD343214019400167416F446F5F
:1013100021400B40436719E0036F13430367436F9A
:10132000416F0B4023EA020343670FE0036F016F35
:101330000B4023EA02030367436F1343436705E04F
:10134000036F13430367436F1343436742605DF8C2
:10135000044B704710B44164019C0CB1416600E03D
:1013600001660BB1016500E041650AB1016300E06F
:101370004163016101605DF8044B7047C06C7047C8
:10138000806C70472DE9F04180460E46124B98471D
:1013900005464046114B9847054012D0104C54F872
:1013A0000C3CB3420AD154F8081C294206D02368E9
:1013B0003046984754F8083C25EA03051034002DC0
:1013C000EDD1084B1B6823B1074B1B680BB140469E
:1013D0009847BDE8F08100BF7D13400081134000B5
:1013E00088060020640700207806002008B502481F
:1013F0000B21024B984708BD000E0E40851340009C
:1014000008B502480C21024B984708BD00100E4059
:1014100085134000174B1A6B22F0700210431863BB
:101420009B6E13F0080F09D14FF40063114901E0DE
:10143000013B19D08A6E12F0080FF9D00D4B1A6BD0
:1014400022F0030242F002021A63986E10F00800C4
:101450000CD14FF40063074901E0013B08D08A6ECC
:1014600012F0080FF9D07047012070470020704734
:101470000120704700040E4038B111490B6A114A2F
:101480001A40114B13430B6270470D4A136A23F441
:101490005C1323F0030343F45C1343F001030902DC
:1014A00089B20B431362936E13F0010FFBD0044A11
:1014B000136A43F09B7343F480331362704700BF99
:1014C00000040E40FCFFC8FE02003701024B986E7C
:1014D00000F48030704700BF00040E404FF000520F
:1014E000014B9A62704700BF00040E40024B986E99
:1014F00000F00200704700BF00040E400022014BC4
:10150000DA62704700040E40024B986E00F004004F
:10151000704700BF00040E40222820D81F280DD895
:10152000124B9A69012383401A40934219D0012338
:1015300003FA00F00D4B1861002070470B4BD3F8F5
:1015400008212038012383401A4093420BD0012305
:1015500003FA00F0054BC3F800010020704701209A
:101560007047002070470020704700BF00040E4005
:10157000222820D81F280DD8124B9A6901238340B6
:101580001A40934219D1012303FA00F00D4B586120
:10159000002070470B4BD3F80821203801238340EB
:1015A0001A4093420BD1012303FA00F0054BC3F814
:1015B0000401002070470120704700207047002080
:1015C000704700BF00040E40000200F4706242F059
:1015D0000102014B9A63704700040E408022014BC8
:1015E0001A60704700040E40034B1A6FC0F31200DC
:1015F00002431A67704700BF00040E40024B187880
:1016000080F00100704700BFEC0600208901022332
:1016100043507047034658BB184A12782AB3EFF379
:10162000108172B6BFF35F8F154A1070154A90781B
:1016300001389070C9B90121114A1170BFF35F8F51
:1016400062B612E0EFF3108172B6BFF35F8F002035
:101650000B4A10700B4A90780130907029B9012123
:10166000074A1170BFF35F8F62B6044A1370704768
:10167000024A1278002AE5D0F7E700BF2C070020C5
:10168000B00000205C070020034A0023136153616F
:101690009381024A137070476807002031070020C9
:1016A00082B005220E4B1A700E4B1A6B0092009AF4
:1016B00042F04F020092009A42F020020092009AFB
:1016C0001A6300230193019B132B06D800BF019BD3
:1016D00001330193019B132BF8D902B0704700BF6F
:1016E000310700200040034082B003220E4B1A70E5
:1016F0000E4B1A6B0092009A42F04F020092009A31
:1017000042F010020092009A1A6300230193019B99
:10171000132B06D800BF019B01330193019B132BB0
:10172000F8D902B0704700BF3107002000400340E5
:1017300008B5024B1B6903B1984708BD6807002034
:1017400070B58AB0754B1B78032B1DD1744B1A6B87
:101750000092009A42F04F020092009A22F0010299
:101760000092009A1A6300230193019B132B06D861
:1017700000BF019B01330193019B132BF8D9694BE7
:101780009847694B9847C6E0684B1B88684A94891C
:10179000E41AA4B2002C33D1664A11880B449BB2E0
:1017A0001380634AD2889A4202D0634B1B78EBB114
:1017B00004225A4B1A705A4B1A6B0292029A42F048
:1017C0004F020292029A22F001020292029A1A63D6
:1017D00000230393039B132B00F29D8000BF039B08
:1017E00001330393039B132BF8D994E0504B5B69AF
:1017F0006BB1984758B100224C4B1A804C4B9C89D6
:101800003F2C04D900224C4B1A70402402E00122E4
:10181000494B1A70464B9968444B1E88EFF3108071
:10182000D0F1010038BF002072B6BFF35F8F0022F5
:10183000424B1A703A4B1B6B13F0020F01D124BBC1
:101840002DE028B101223D4B1A70BFF35F8F62B6C5
:101850000422324B1A70324B1A6B0492049A42F0F3
:101860004F020492049A22F001020492049A1A632D
:1018700000230593059B132B4DD800BF059B013317
:101880000593059B132BF8D945E031440B46244DB5
:1018900013F8012B2A655A1AD2B2A242F8D3344463
:1018A000224B1C801E4B1A6B0692069A42F04F0286
:1018B0000692069A42F010020692069A1A630023D4
:1018C0000793079B132B06D800BF079B0133079391
:1018D000079B132BF8D9124B1A6B0892089A42F007
:1018E0004F020892089A22F001020892089A1A639D
:1018F00000230993099B132B06D800BF099B0133D2
:101900000993099B132BF8D928B101220B4B1A70AC
:10191000BFF35F8F62B60AB070BD00BF3107002011
:101920000040034031174000891640002E07002078
:1019300068070020EE06002030070020B0000020DD
:1019400038B50346447C14F0100F15D0447C6FF377
:101950000414447404687CB102F10C05074850F883
:10196000250010F4806F18BF42F08002012914BFD7
:10197000002001209968A04738BD00BF0040034007
:1019800084B0421E02EB82022F4B03EB82028300E3
:1019900003F1402303F54033196B01F04201422962
:1019A0000ED0196B11F0020F04D0517C6FF383013C
:1019B000517409E0517C012060F38301517424E0EB
:1019C000517C11F00C0F20D1196B0091009941F05E
:1019D0004F010091009921F00201009100991963D3
:1019E00000230193019B132B06D800BF019B0133F9
:1019F0000193019B132BF8D918B3032821D0537CF2
:101A0000012161F3830353741BE0196B0291029966
:101A100041F04F010291029921F040010291029997
:101A2000196300230393039B132B06D800BF039B6A
:101A300001330393039B132BF8D9537C6FF3830378
:101A4000537404B0704700BFF00600202DE9F00782
:101A500083B00746461E06EB8606524B03EB86060E
:101A6000737CC3F3810320B1032814BF0222012237
:101A700000E001229A4240F38980F368B268934201
:101A800004D3747C14F0400F00F0828074681C440E
:101A9000C3EB0209328AC2F30902914526BF91467F
:101AA0004FF000084FF001084B44F360B9F1070F05
:101AB00026D92346A9F1080A4FEADA0A04F1080CEC
:101AC0000CEBCA0C820002F1402202F540321D7874
:101AD00015655D7815659D781565DD7815651D7949
:101AE00015655D7915659D791565DD791565083391
:101AF0006345ECD10AF1010A04EBCA0409F00709B5
:101B0000B9F1000F09D0A144274D14F8012B07F1BA
:101B1000140345F823204C45F7D1737CC3F38102AD
:101B2000013262F383037374E1B1800000F140205D
:101B300000F54030036B0093009B43F04F0300938C
:101B4000009B43F010030093009B03630023019369
:101B5000019B132B06D800BF019B01330193019B0E
:101B6000132BF8D9B8F1000F03D0737C6FF38613F1
:101B70007374F268B3689A420CD3737C13F0400F0D
:101B80000AD143F080037374002006E0012004E0D2
:101B9000002002E0012000E0012003B0BDE8F007D2
:101BA000704700BFF0060020004003402DE9F047D9
:101BB000B0B0944B984760B9934BDB6913F4807FC6
:101BC00007D172B6BFF35F8F0022904B1A7000F0FE
:101BD00015BD22208E4B98478B4B9B6913F4006FE9
:101BE0000CD0894BDB6913F4006F07D04FF400620F
:101BF000854B1A62874B984700F000BD824BDB692A
:101C000013F0010F00F0F1817F4B1B6B13F0040FF9
:101C100000F0C080804B1B781BB1804B9847804BF5
:101C20009847794B1B6BC3F30A43082B1CD0764BA8
:101C30001A6B0292029A42F04F020292029A22F02A
:101C400004020292029A1A6300230393039B132B4C
:101C500006D800BF039B01330393039B132BF8D9D2
:101C6000704B984700F0CABC6F4B03F108006649FF
:101C70000A6D03F8012F8342FAD16C4B9847E0B903
:101C8000614B1A6B0492049A42F04F020492049A38
:101C900022F004020492049A1A6300230593059B20
:101CA000132B06D800BF059B01330593059B132B0F
:101CB000F8D95C4B984700F0A1BC5D4B93F900301C
:101CC000002B3DDA504B1A6B0692069A42F04F02F7
:101CD0000692069A42F080020692069A1A63002340
:101CE0000793079B132B06D800BF079B013307936D
:101CF000079B132BF8D9444B1A6B0892089A42F0B1
:101D00004F020892089A22F004020892089A1A6375
:101D100000230993099B132B06D800BF099B0133AD
:101D20000993099B132BF8D90023424A1380424A96
:101D300013800222384B1A70404B984700F05EBC6B
:101D4000314B1A6B0A920A9A42F04F020A920A9A8F
:101D500022F004020A920A9A1A6300230B930B9B47
:101D6000132B06D800BF0B9B01330B930B9B132B3C
:101D7000F8D92F4BDB881BB9314B984700F03EBC9C
:101D800000232C4A13802C4A13800122224B1A7004
:101D900000F034BC1C4B1B6B13F0010F03D0274B1E
:101DA000984700F02BBC184B1B6B13F0020F00F090
:101DB0001781194B1B78012B44D0022B01D0042B27
:101DC00002D1164B984701E0164B98470E4B1A6B01
:101DD0000C920C9A42F04F020C920C9A22F00202E2
:101DE0000C920C9A1A6300230D930D9B132B06D8AB
:101DF00000BF0D9B01330D930D9B132BF8D9084B9E
:101E00009847FBE3FD15400000400340B000002070
:101E100019154000D10D4000310700203117400056
:101E200089164000A1164000670700200D0E4000F3
:101E300068070020EE0600202E0700204117400012
:101E4000E9164000904B196BC1F30A418F4B9B89F7
:101E50008F4A15886A189342AEBF89B2C5EB030357
:101E600099B28A4B98682844A9B10346864C226DE2
:101E700003F8012B1A1AD2B28A42F8D30D44ADB23C
:101E8000834B1D80402906D1804BDA88814B1B880B
:101E90002B449A423EDC7D4B9D815B69F3B19847B0
:101EA000E0B97D4B9847784B1A6B0E920E9A42F030
:101EB0004F020E920E9A22F002020E920E9A1A63AE
:101EC00000230F930F9B132B00F2988300BF0F9BEF
:101ED00001330F930F9B132BF8D98FE36A4B1A6BC7
:101EE0001092109A42F04F021092109A22F00202C1
:101EF0001092109A1A6300231193119B132B06D88A
:101F000000BF119B01331193119B132BF8D9634B25
:101F1000984773E35D4B9B89AB4246D15B4B5B6952
:101F2000E3B95D4B9847584B1A6B1292129A42F0E4
:101F30004F021292129A22F002021292129A1A631D
:101F400000231393139B132B00F2588300BF139BA2
:101F500001331393139B132BF8D94FE39847E0B940
:101F60004D4B9847484B1A6B1492149A42F04F020B
:101F70001492149A22F002021492149A1A63002303
:101F80001593159B132B00F2398300BF159B01336A
:101F90001593159B132BF8D930E33E4A3C4B188818
:101FA00011880144118000221A80374B1A6B169257
:101FB000169A42F04F021692169A22F002021692D8
:101FC000169A1A6300231793179B132B00F216839C
:101FD00000BF179B01331793179B132BF8D90DE301
:101FE000294B1B6B13F0080F06D1DFF8B4C0644611
:101FF0000123254A1E461AE0234B1A6B0092009AD1
:1020000042F04F020092009A22F008020092009AD9
:102010001A6300230193019B132B00F2EF8200BF90
:10202000019B01330193019B132BF8D9E6E25FFA80
:1020300083F891691F4606FA03F50D4200F0F1811D
:10204000A146990001F1402101F54031086B10F0E3
:10205000420F44D0A268E368B4F810A0CAF3090A9A
:10206000606818440C460E6BC6F30A46002E00F05A
:10207000B682D11AB14200F2A982C9F80C20002917
:1020800040F0AA82B6E200BF00400340680700208B
:102090002E070020EE060020A1164000E9164000A1
:1020A000F0060020226DC25401338B42FAD3404621
:1020B000954B984717B9B24540F2A082236B13F0B5
:1020C000200F40F09B82914B5D61D9F80C30C9F82C
:1020D00008304846002142468D4B98478EE2086BF7
:1020E00010F0010F00F07381637CC3F381020332AF
:1020F00002F0030262F38303637413F0200F74D0C1
:10210000002A36D0BA0002F1402202F54032136BA9
:102110001893189B43F04F031893189B43F0100338
:102120001893189B136300231993199B132B06D83C
:1021300000BF199B01331993199B132BF8D9136B0B
:102140001A931A9B43F04F031A931A9B23F001032F
:102150001A931A9B136300231B931B9B132B00F2F0
:102160004D8200BF1B9B01331B931B9B132BF8D984
:1021700044E2BA0002F1402202F54032136B1C9394
:102180001C9B43F04F031C931C9B23F001031C93E7
:102190001C9B136300231D931D9B132B06D800BFAC
:1021A0001D9B01331D931D9B132BF8D9136B1E939D
:1021B0001E9B43F04F031E931E9B43F020031E9370
:1021C0001E9B136300231F931F9B132B06D800BF76
:1021D0001F9B01331F931F9B132BF8D999F81130C4
:1021E0006FF3451389F8113008E2637CDB090AD0EC
:1021F000637C6FF3C7136374E368A3602046002118
:102200004246434B9847D9F80C20D9F808309A42F7
:1022100034D399F8113013F04C0F2FD1EFF3108312
:1022200072B6BFF35F8F00213A4A1170374A556189
:102230002BB90122374B1A70BFF35F8F62B6BB0018
:1022400003F1402303F540331A6B2092209A42F0A9
:102250004F022092209A22F001022092209A1A63C3
:1022600000232193219B132B00F2C88100BF219BE7
:1022700001332193219B132BF8D9BFE1B8F1000F53
:1022800000F08280B8F1030F7ED099F8113013F07E
:102290000C0F43D0BA0002F1402202F54032136B1A
:1022A0002293229B43F04F032293229B43F010037F
:1022B0002293229B136300232393239B132B06D883
:1022C00000BF239B01332393239B132BF8D9136B5C
:1022D0002493249B43F04F032493249B23F0010376
:1022E0002493249B136300232593259B132B06D84B
:1022F00000BF259B01332593259B132BF8D940461E
:102300000021054B984779E18119400000400340C6
:1023100041194000B00000204D1A40004046012104
:10232000674B984770B999F811306FF3C71389F864
:102330001130D9F80C30C9F808304846002142461F
:10234000604B9847BB0003F1402303F540331A6B01
:102350002692269A42F04F022692269A22F00102F5
:102360002692269A1A6300232793279B132B06D8BD
:1023700000BF279B01332793279B132BF8D9404697
:1023800000214F4B984739E1404601214C4B98477B
:10239000BB0003F1402303F540331A6B2892289ABF
:1023A00042F04F022892289A22F001022892289A9D
:1023B0001A6300232993299B132B00F21F8100BF6E
:1023C000299B01332993299B132BF8D916E1096B1B
:1023D00011F0080F25D09A0002F1402202F5403298
:1023E000136B2A932A9B43F04F032A932A9B23F0D3
:1023F00008032A932A9B136300232B932B9B132BF5
:1024000006D800BF2B9B01332B932B9B132BF8D9A2
:10241000136B03F4E063B3F5807F00F0EF80136B80
:10242000ECE001331434042B7FF401AEDBE0264BE7
:10243000DB6913F4005F13D1234B9B6913F4007F16
:1024400004D0214BDB6913F4007F09D11E4B9B693B
:1024500013F4806F14D01C4BDB6913F4806F0FD022
:10246000194C4FF41853236263610120174B9847AE
:102470004FF48073236223614FF400632361BDE056
:10248000114B9B6913F4807F24D00F4BDB6913F44D
:10249000807F1FD00C4B4FF480721A625A614FF448
:1024A00000521A614FF400721A614FF480621A618F
:1024B0002220074B98470020044B98479EE000BF1E
:1024C0004D1A4000411940000040034015164000DD
:1024D000711540004B4BDB6913F4805F00F08E8078
:1024E0004FF48052474B1A62654600240127464E3E
:1024F0000134E4B2284639462246B0471435032C4D
:10250000F6D1424B98473F4B5A6822F001025A607D
:102510005A6822F002025A609A6842F480729A6005
:102520009A6822F07F029A601A6B2C922C9A42F0E1
:102530004F022C922C9A22F4074222F080022C9215
:102540002C9A42F400422C922C9A1A6300232D9369
:102550002D9B132B06D800BF2D9B01332D932D9B54
:10256000132BF8D9274B1A6B2E922E9A42F04F025A
:102570002E922E9A42F400422E922E9A1A63002333
:102580002F932F9B132B06D800BF2F9B01332F9324
:102590002F9B132BF8D9EFF3108372B6BFF35F8F25
:1025A00000211B4A11700121164A116123B9184BF1
:1025B0001970BFF35F8F62B6164B9847114B4FF4FB
:1025C00080721A614FF400621A6117E03344C9F84F
:1025D0000C303146002700E00127002362E5404629
:1025E0000D4B984767E5074B9B6913F4005F7FF439
:1025F0001EAF21E74046084B98475FE530B0BDE885
:10260000F08700BF0040034041194000890D4000A1
:10261000B0000020891640008119400010B5EFF38A
:10262000108472B6BFF35F8F0022144B1A70012022
:10263000134B98472220134B9847134B5A6F22F4A1
:1026400080725A675A6F42F400725A674FF4807270
:102650001A614FF400521A614FF400721A614FF47C
:1026600080621A614FF400621A612CB90122034B97
:102670001A70BFF35F8F62B610BD00BFB0000020BC
:1026800015164000191540000040034038B5EFF31F
:10269000108472B6BFF35F8F0025214B1D7022207E
:1026A000204B9847204B9847204B502283F82223F9
:1026B00004225A602B461E489900CA1800EB820279
:1026C000527C194400EB810102F083026FF3C712C0
:1026D0004A740133032BEFD14FF48020154B9847F8
:1026E0000022154B1A70EFF3108272B6BFF35F8FA2
:1026F00000210B4B1970114BD9780131D9702AB9CF
:102700000122074B1A70BFF35F8F62B60C4B9847DC
:102710002CB90122024B1A70BFF35F8F62B638BD2D
:10272000B000002019154000F503400000E100E072
:10273000F0060020E91540002C0700205C0700206F
:102740001D264000002070470C4B5A6822F0010201
:102750005A609A6822F480729A6070B1996800F0A9
:102760007F0221F07F010A439A609A6842F48072E6
:102770009A605A6842F001025A6070470040034074
:10278000054B5B6813F0010F04D0034B986800F011
:102790007F0070470020704700400340024B1868DC
:1027A000C0F30A00704700BF00400340002070479C
:1027B000014B9860998170476807002070B483B01E
:1027C00000F00F03032B66D89C0004F1402404F5AD
:1027D0004034256B15F4004F5FD101F00305012D46
:1027E00003D1002B5BD0032B5BD01D1FEDB2012D5D
:1027F0008CBF40254FF40075954254DB5D1E05EB00
:1028000085052D4E06EB85052E8A62F309062E827C
:102810006A7C02F07F026FF345126A74C00903D02C
:10282000D2B26FF383026A74244A956A012606FACB
:1028300003F31D439562956A25EA03039362236BB4
:102840000093009B43F04F030093009B23F4074346
:1028500023F08003009338B141F00402120202F425
:10286000E06242F4004204E00A0202F4E06242F450
:102870000042009B13430093009B236300230193BA
:10288000019B132B11D800BF019B01330193019BC6
:10289000132BF8D90BE000200AE0002008E000200C
:1028A00006E0002004E0002002E0012000E001201A
:1028B00003B070BC704700BFF0060020004003402A
:1028C00008B500F00F02032A11D8930003F140234A
:1028D00003F54033196B21F400411963501E00EBDE
:1028E0008000034B03EB80000121024B984708BD99
:1028F000F00600204119400000F00F00032815D811
:10290000431E03EB83030A4A02EB83035B7C13F051
:10291000200F09D10C30074B53F8203013F0280F4B
:102920000CBF002001207047012070470020704735
:10293000F00600200040034010B483B000F00F0206
:10294000032A5FD8EFF31081D1F1010138BF0021D4
:1029500072B6BFF35F8F00242F4B1C7010F0800FF6
:1029600025D0531E03EB83032C4800EB830302F1B5
:102970000C042B4850F8240010F0100F04D1587CA0
:10298000C0F38100012812DD587C40F0200058740B
:10299000012303FA02F2224B1A61002934D00122EA
:1029A0001D4B1A70BFF35F8F62B601202FE09300BA
:1029B00003F1402303F54033186B0090009840F07A
:1029C0004F000090009840F020000090009818639D
:1029D00000230193019B132B06D800BF019B0133F9
:1029E0000193019B132BF8D9012303FA02F20C4B3C
:1029F0001A6159B10122084B1A70BFF35F8F62B69A
:102A0000012004E0002002E0012000E0012003B0EA
:102A10005DF8044B704700BFB0000020F0060020B6
:102A200000400340F0B585B000F00F00032859D8EE
:102A3000304C431E03EB83039D0061194B7C6FF305
:102A400045134B74820002F1402202F54032136BB1
:102A500013F0200F48D0136B0093009B43F04F03FB
:102A60000093009B23F020030093009B136300233B
:102A70000193019B132B06D800BF019B01330193E7
:102A8000019B132BF8D91C4B9E6A012707FA00F013
:102A900006439E629E6A26EA00009862136B0293C8
:102AA000029B43F04F030293029B23F0080302931F
:102AB000029B136300230393039B132B06D800BFD1
:102AC000039B01330393039B132BF8D94B7C13F027
:102AD000100F0BD04B7C6FF304134B746359984762
:102AE000012004E0002002E0012000E0012005B008
:102AF000F0BD00BFF0060020004003402DE9F04784
:102B000000F00F04032C00F28980A50005F1402598
:102B100005F540352E6B16F4004F00F08280DFF88B
:102B20002CC1661E06EB8606B7000CEB070696F86E
:102B3000118018F0200F77D1D5F8308018F0200FD1
:102B400075D1EFF31088D8F1010A38BF4FF0000AB1
:102B500072B6BFF35F8F4FF00009DFF8E48088F8AA
:102B6000009096F8118018F0100F0BD0BAF1000FFA
:102B700060D00122324B1A70BFF35F8F62B6002023
:102B8000BDE8F08796F8118048F0100886F81180AB
:102B9000BAF1000F08D04FF00109DFF8A48088F8DF
:102BA0000090BFF35F8F62B67260B3600022F26084
:102BB000089A4CF8072021B9D3F1010238BF00224E
:102BC00000E00122737C62F386136FF3C713737402
:102BD000EFF3108672B6BFF35F8F0022184B1A70A6
:102BE0000122A240174B1A6110F0800F0CD02B6B02
:102BF00013F0110F08D120460121134B984718B14B
:102C000020460021104B9847BEB901220C4B1A7088
:102C1000BFF35F8F62B60120BDE8F0870020BDE8FA
:102C2000F0870020BDE8F0870020BDE8F087002095
:102C3000BDE8F0870020BDE8F0870120BDE8F087FF
:102C4000B0000020004003404D1A4000F006002074
:102C5000F0B585B000F00F04032C00F29080EFF384
:102C6000108372B6BFF35F8F0021464A11700126B0
:102C7000A640454A56612BB90122424B1A70BFF358
:102C80005F8F62B610F0800F09D1A50005F14025D5
:102C900005F540352B6B13F0420F57D15DE0A300D3
:102CA00003F1402303F540331A6B12F0100F2AD0C2
:102CB0008CB1032C0FD01A6B22F010021A631A6B1E
:102CC00012F0100FFBD11A6B42F010021A631A6B4C
:102CD00012F0100FFBD01A6B0092009A42F04F02D4
:102CE0000092009A22F010020092009A1A630022C9
:102CF0000192019A132A06D800BF019A013201926B
:102D0000019A132AF8D91A6B0292029A42F04F02E2
:102D10000292029A22F001020292029A1A6300239E
:102D20000393039B132B06D800BF039B013303932C
:102D3000039B132BF8D9631E03EB8303134A02EBA7
:102D400083035A7C6FF383025A7406E0104F2046C7
:102D5000B8472B6B13F0420FF9D10B4B9A6A3243F1
:102D60009A629A6A22EA06069E62601E00EB800062
:102D7000064B03EB800001212246064B984705B025
:102D8000F0BD00BFB000002000400340F00600206E
:102D900081194000411940004FF4004343607047DF
:102DA000FEE700BF10B51E4B1E4A9A4203D01E4BD1
:102DB0001B4A9A4204D31D4B1D4A9A420FD31AE074
:102DC0001C4B1D4CE41A24F0030404340023144863
:102DD00014495A581A500433A342FAD1EBE7174B5F
:102DE0001749C91A21F003011A1D1144002243F8A2
:102DF000042F8B42FBD1134A22F0604323F07F0360
:102E000011498B6002F16042B2F5404F03D28A68EB
:102E100042F000528A600D4B98470D4B9847FEE7F1
:102E200000000020B8314000E804002080070020A6
:102E3000E804002004000020EB040020E40400204B
:102E40007B0700200000400000ED00E0E12F400083
:102E5000AD2F40003D4B1B6B03F00303032B5DD8EC
:102E6000DFE803F0020E2B2B394B5B6913F0800F68
:102E700014BF4FF400424FF4FA42364B1A604DE053
:102E8000324B1B6A13F0807F03D0334A314B1A60F8
:102E900044E0324A2F4B1A602C4B1B6A03F070033C
:102EA000102B02D0202B04D038E02D4A294B1A6079
:102EB00034E0294A274B1A6030E0244B1B6A13F098
:102EC000807F03D0244A234B1A6012E0234A214B0F
:102ED0001A601E4B1B6A03F07003102B02D0202BCC
:102EE00004D006E01E4A1B4B1A6002E01A4A194B36
:102EF0001A60164B1B6B03F00303022B134B07BF27
:102F0000986A996AD86AD96A124BC0F30A401A685B
:102F100000FB0222C9B2B2FBF1F21A600B4B1B6B31
:102F200003F07003702B07D10A4B1A680D49A1FBFF
:102F3000020252081A607047044B196B054BC1F32B
:102F400002111A68CA401A60704700BF00040E40A0
:102F500010140E40B4000020001BB70000093D0013
:102F600000127A00ABAAAAAA0C4B984203D80022FE
:102F70000B4B1A6070470B4B984204D84FF4807289
:102F8000074B1A607047084B984294BF4FF4007289
:102F90004FF44072024B1A60704700BF3F66030156
:102FA000000A0E407FC3C9017FF9370308B5074BFC
:102FB0009847074B9847074B9847074E4BF2932586
:102FC000064CB0472846A047FBE700BF99034000E6
:102FD000450440007D0D4000A90240000100002092
:102FE00070B50E4B0E4D0024ED1AAD101E46AC42CE
:102FF00004D056F8242090470134F8E700F0CAF8CE
:10300000084D094B0024ED1AAD101E46AC4204D009
:1030100056F8242090470134F8E770BDA0314000F5
:10302000A0314000A8314000A031400010B500237D
:10303000934203D0CC5CC4540133F9E710BD70B5A2
:1030400003780A468BB1064610F8014B3CB10B469B
:103050001A4613F8015B002DF5D0AC42F8D1137875
:10306000002B14BF3046002070BD184670BD000014
:10307000024B13B1024800F005B870470000000091
:1030800091304000014600200246034600F016B889
:1030900038B5084D084C641BA41005EB840524B119
:1030A00055F8043D013C9847F9E7BDE8384000F089
:1030B0007BB800BFB4314000B83140002DE9F8437F
:1030C0009846224B06461C680F46D4F848019146A4
:1030D00018B904F5A670C4F8480143681F2B16DD23
:1030E0001B4B1BB94FF0FF30BDE8F8834FF4C8709D
:1030F000AFF300800028F5D0D4F8481100254560D2
:103100000160C4F84801C0F88851C0F88C51446887
:10311000A6B10122A24000EB8405C5F88890D0F842
:103120008811022E41EA0201C0F88811C5F8088111
:1031300004D1D0F88C311A43C0F88C21631C0234BE
:10314000436040F824700020BDE8F8838C314000D3
:1031500000000000535452414645440041637175DC
:1031600069736974696F6E20737461727465640A3F
:103170000D0000004163717569736974696F6E2099
:1031800073746F7065640A0D00000000C0000020B9
:1031900043000000F8B500BFF8BC08BC9E4670476D
:1031A0007130400049014000F8B500BFF8BC08BCD0
:0831B0009E467047210140001A
:1031B800BFF35F8F0138FBD1704700BF01000000EB
:1031C8004D084000010540001D0540002105400054
:1031D8002D074000A5044000F104400025054000EB
:1031E8002105400000000000540000204C00002091
:1031F80000000000240000201000002068000020CB
:10320800440000201201000202000040EB030424E5
:1032180000010000000100000902430002010080D3
:103228003209040000010202010005240010010413
:103238002402020524060001052401030107058371
:103248000340001009040100020A0000000705817C
:1032580002400000070502024000000004030904C0
:103268000100000000093D00C0000020000000002F
:1032780000000000AC030020140400207C0400209F
:103288000000000000000000000000000000000036
:103298000000000000000000000000000000000026
:1032A8000000000090314000000000000000000015
:1032B8000000000000000000000000000000000006
:1032C80000000000000000000000000000000000F6
:1032D80000000000000000000000000000000000E6
:1032E80000000000000000000000000000000000D6
:1032F80000000000000000000000000000000000C6
:1033080000000000000000000000000000000000B5
:1033180000000000000000000100000000000000A4
:103328000E33CDAB34126DE6ECDE05000B00000069
:103338000000000000000000000000000000000085
:103348000000000000000000000000000000000075
:103358000000000000000000000000000000000065
:103368000000000000000000000000000000000055
:0400000500402DA5E5
:00000001FF
