:020000040040BA
:1000000060270020E5294000E1294000E129400067
:10001000E1294000E1294000E12940000000000002
:10002000000000000000000000000000E129400086
:10003000E129400000000000E1294000E1294000E2
:10004000E1294000E1294000E1294000E129400088
:10005000E1294000E1294000E1294000E129400078
:10006000E1294000E1294000E129400071114000F0
:1000700085114000E1294000E1294000E1294000CC
:10008000E1294000E1294000E1294000E129400048
:10009000E1294000E1294000E1294000E129400038
:1000A000E1294000E1294000E1294000E129400028
:1000B000E129400095024000E1294000E12940008B
:1000C000E1294000E129400015194000E1294000E4
:1000D00008B50548054B1B1A062B00D808BD044B74
:1000E000002BFBD09847F9E7882D40008B2D40006E
:1000F0000000000008B50748074B1B1A9B1003EBD4
:10010000D373591000D108BD044A002AFBD0904790
:10011000F9E700BF882D4000882D40000000000056
:1001200010B5064C237843B9FFF7D2FF044B13B147
:100130000448AFF300800123237010BDE0040020C9
:1001400000000000882D400008B5084B1BB108488E
:100150000849AFF300800848036813B1074B03B1A7
:100160009847BDE80840FFF7C5BF00BF000000008A
:10017000882D4000E4040020882D4000000000008D
:1001800010B517200F4CA0470B20A0470E484FF08A
:10019000805101220D4B98470D4C204600210D4AFD
:1001A0000D4B9847204600214CF250320B4B98479C
:1001B0002046002164220A4B984720460021094B23
:1001C000984710BD81124000000E0E4049104000BB
:1001D0000000014003C006004113400075134000B9
:1001E0006D1340005D13400038B51D201B4CA04727
:1001F0000B20A0470C20A04719484FF000514FF4A6
:10020000F012184CA04718484FF000510F22A04799
:10021000164C20461649174A4FF48033164DA8470E
:100220002046002101220223144DA8472046002128
:10023000134B984720464FF08071124B9847204649
:1002400003210022104B9847204604210F4B98476A
:100250004FF000520E4B1A6038BD00BF81124000B3
:10026000000E0E404910400000100E400080034078
:100270000020A10740420F00450F4000990F4000A9
:10028000790F4000D10F4000890F4000B90F4000A6
:1002900000E100E010B5184B9847184B1860184C57
:1002A0002046184B9847184B18602046174B984724
:1002B000174B1B68DBB1174A12681AB1013A154B8C
:1002C0001A600AE00D4A1268118A124A1160002170
:1002D000114A1160013B0E4A1360084B1A680E4B1D
:1002E0001B6813440648197A0C4B984710BD0C48FC
:1002F00000210C4B984710BDA903400020070020A7
:1003000000800340CD0F40001C070020C50F4000B7
:10031000180700201407002000000020B90F40003B
:10032000000001406513400038B51E20154CA04761
:100330000C20A047144D28464FF000514FF40052B6
:10034000124CA04728464FF000514FF48042A0477E
:100350000F4C20460F4B9847204600210E4B9847E4
:10036000204600210D4DA84720460121A8472046E0
:10037000012100220F230A4DA8472046094B984728
:1003800038BD00BF8112400000100E4049104000EF
:1003900000C00340D50F4000E90F40003510400079
:1003A00005104000DD0F40000348012303720223C3
:1003B00043720323837270472407002070B582B014
:1003C0000E4B98470E480F4B98470B200E4B984703
:1003D0000E4E0024009430464FF40031224623464E
:1003E0000B4DA847009430464FF480212246234607
:1003F000A847084B984702B070BD00BF19044000E1
:1004000050140E40D929400081124000000E0E40C9
:10041000D91040002903400010B50D480D4B9847F6
:1004200000203E210C4B98470C4CA0470028FCD0E4
:100430000B4B98470B4A0C4B9A620C4CA047002878
:10044000FCD010200A4B98470A4B984710BD00BFBC
:100450000090D003A92B4000FD1140005112400034
:1004600061124000033F1F2000040E407112400043
:1004700099114000952A40000E4900230B700E4A46
:1004800013800E4AA120107020205070538093805A
:100490000220D08013810A4A4FF4E13010601371BA
:1004A0005371082393710B780133DBB20B70012079
:1004B000704700BF9405002040060020AC050020D6
:1004C000FC040020024B1A78013AD2B21A7070472D
:1004D00094050020044B1A78013AD2B21A701B78A6
:1004E0000022024B1A70704704050020A00500206E
:1004F00000207047002070471D4B1B7813F0800FC1
:1005000012D003F06003202B28D1194B5B78212BEC
:1005100026D1174BDB88072B24D1154B154A9A603F
:1005200007229A810120704703F06003202B1BD122
:100530000F4B5878202804D0222814BF0020012017
:1005400070470B4BDB88072B10D1094B0A4A1A6105
:10055000084A9A6007229A8101207047002070475C
:10056000002070470020704700207047002070472F
:1005700044070020FC0400207D054000704700BFB8
:1005800030B583B0424B1B7813F0FF0F7ED1414B47
:10059000984730B1404B1C88404B9847844206D165
:1005A00074E03D4B1C883E4B984784426ED0EFF37D
:1005B0001083D3F1010538BF002572B6BFF35F8FFA
:1005C0000022384B1A70384B1C78E4B2374B33F8A2
:1005D0001430DBB9364B1A8801321A802D4B9847FC
:1005E00018B9334B1B88632B07D92A4B984768B13E
:1005F0002F4B1B88B3F5487F08D2002D46D001222F
:10060000284B1A70BFF35F8F62B63FE00022284B81
:100610001A80284B1B7813F0FF0F06D1944214BFA9
:1006200000220122204B1A7003E0D4F1010438BFEC
:1006300000240122164B1A7025B11A4B1A70BFF311
:100640005F8F62B62546194B33F81440403C18BF03
:10065000012464B10F4B984720B1104B98470E4BC3
:10066000188007E00E4B98470B4B188002E00022E1
:10067000094B1A800D4B33F815300F4A0092812038
:1006800021460E4A02EB85120D4CA04703B030BD47
:10069000A8050020852340009C050020ED23400094
:1006A000DD234000A4000020080500200C050020E8
:1006B000A20500203C060020C506400010050020D1
:1006C0003D27400008B578B9084B1B7813F0FF0FA1
:1006D00014BF00220122064B23F81200054B1870AC
:1006E000054B1870054B984708BD00BF0805002052
:1006F0000C0500203C060020A805002081054000D4
:1007000008B50020014B984708BD00BF8105400097
:10071000EFF3108372B6BFF35F8F0021094A1170A7
:10072000094A108880B2094A1178094A32F8112022
:10073000101A2BB90122034B1A70BFF35F8F62B6F8
:10074000704700BFA400002098050020A4050020E9
:100750009005002008B5034B9847003018BF0120D2
:1007600008BD00BF1107400010B582B0EFF3108341
:10077000D3F1010338BF002372B6BFF35F8F0021AE
:100780001E4A11701E4A1478E4B21E4A127812F002
:10079000FF0F07D11C4A128892B21C4931F814107D
:1007A000914208D93BB30122144B1A70BFF35F8FFB
:1007B00062B6002020E00021134A11808C4214BF51
:1007C000002101210E4A117001210E4A117023B13E
:1007D0000A4B1970BFF35F8F62B600200C4B98472D
:1007E0000C4B0093022001210B4A02EB84124023A0
:1007F0000A4CA04700E0002002B010BDA400002079
:10080000A40500203806002098050020900500204F
:1008100055074000B1084000B80500203D274000C2
:1008200010B50024154B1C70154B1C70154B1C701B
:10083000154B1C70154B1C805C80154B1C80204692
:10084000144B9847144B1C70144B1C70144B1C8099
:10085000144B1C802046144B9847024658B1074B56
:1008600019780131C9B219701B78DBB2012B02D1A2
:1008700001210E4B1970104610BD00BF0405002069
:10088000A80500203C060020080500200C050020DB
:100890009C0500208105400038060020A4050020AA
:1008A000900500209805002069074000A005002061
:1008B00010B582B0D0B90E4B1B7813F0FF0F14BFE8
:1008C0000023012351B90B490091104601210A4A26
:1008D00002EB83124023094CA04707E0084A22F8A4
:1008E00013100020074B1870074B984702B010BD3B
:1008F000A4050020B1084000B80500203D274000B5
:100900009005002038060020690740000F4B1B6847
:100910001B685A881A4403781844904210D24378CE
:10092000042B0FD08B4205D170474378042B0BD09A
:100930008B420AD0037818449042F6D300207047C7
:1009400000207047002070470020704748060020B4
:1009500008B5034B987800F07F00024B984708BD1C
:10096000440700208923400010B4164B1B7803B3C2
:10097000154B1B681B681A7982421CD9134A1360F5
:100980005C881C44A34218D25A78042A09D19A7868
:10099000824206D1DA788A4203D10C4A13600120E0
:1009A0000CE01A781344A342EED3084A13600020E7
:1009B00004E0002002E0002000E000205DF8044B8D
:1009C000704700BF50060020480600205406002053
:1009D0002DE9F84304460021124B98478046E8B1C0
:1009E000114B1B685B6853F82490D9F80C3098477A
:1009F000014620460B4B9847804678B10B4B1C684C
:100A000005260B4D0B4F20463146A847044610B132
:100A10008078B847F7E7D9F8043098474046BDE8F2
:100A2000F88300BF690940004806002054060020F2
:100A30000D094000012540002DE9F0418046104B92
:100A400098470346C8B10F4B1C6805260E4D0F4F43
:100A500020463146A847044638B18078E178A2881C
:100A6000B84703460028F3D107E0094B1B685B68D1
:100A700053F828301B68984703461846BDE8F081B4
:100A800069094000540600200D094000FD23400084
:100A90004806002070B50D4B1B7883B10C4B1B68CA
:100AA0001B681B795BB100240A4E094D2046B047F4
:100AB0000134E4B22B681B681B79A342F6D80023EB
:100AC000024A1370044A138070BD00BF5006002014
:100AD00048060020D10940004E06002038B50C4BD6
:100AE0001B789BB10B4B1B681A68127972B10024FA
:100AF000084D5B6853F824301B6903B198470134F3
:100B0000E4B22B681A681279A242F2D838BD00BF4D
:100B100050060020480600202DE9F041774B0022C6
:100B20009A811A615A611B7813F0800F00F0E681F8
:100B3000724AD288002A40F0E581DBE113F01F03FE
:100B400067D16E49497806290DD0082957D0002968
:100B50005FD1022A05D16A4802216A4B98470124D5
:100B600074E1002472E1654B5A88130A013B0E2B95
:100B70003BD8DFE803F0080F2A3A3A3A3A3A3A3AD1
:100B80003A3A3A3A2200604B1B68184619785D4B96
:100B9000984721E0D2B25C4B1B685B7C934226D91C
:100BA000594B5B6853F8323018465988554B984773
:100BB000524B9B6802225A700EE0534B9B68C3B1A4
:100BC000184659884F4B984706E012F0FF0F12D194
:100BD0004E4804214B4B9847484BDA889B899342F7
:100BE0000BD9464B9A81012430E100242EE10024E8
:100BF0002CE100242AE1002428E1012426E1012A35
:100C000005D1434801213F4B984701241EE10024B0
:100C10001CE1012B2AD1394949780A2926D1012A18
:100C20001ED13B4B1B78EBB1344B1D79394B1E6801
:100C300033681B79AB4217D928460021364B9847B9
:100C40000446002800F00281736853F82530DB6801
:100C50009847324B1870184601212A4B9847F5E007
:100C60000024F3E00024F1E00024EFE0022B40F048
:100C7000EF80224B5B78002B40F0E380022A0BD1FF
:100C80001E4B1879264B9847264B18801846022190
:100C90001C4B98470124D9E00024D7E013F01F0330
:100CA00040F08480154A5278013A082A7ED8DFE85D
:100CB00012F013007D00CA007D0009007D007D0058
:100CC0007D003D000D4BDB8823B9174A0B4B1A61A1
:100CD0000124BBE00024B9E0084BDB8853B9074B83
:100CE0005B88012B08D1064B1A8822F002021A8079
:100CF0000124ABE00024A9E00024A7E04407002081
:100D00004E060020F12340002C000020A00000200F
:100D100050060020480600206909400044060020D3
:100D2000392540004C06002051094000794BDB88F2
:100D3000002B31D1784B984700282FD0754B9A78EB
:100D4000764B1B685B7C9A422ADC754B9847714B4B
:100D50009B78744A13702BB303F10053013B6F4A25
:100D6000526802EBC3007049086052F833301B79B7
:100D7000D3B100252F466D4E884628463946B047E8
:100D80000446002862D00135EDB2D8F800301B6867
:100D90001B79AB42F1D859E0002457E0002455E01C
:100DA000002453E0012451E001244FE0012B1CD129
:100DB000584A52780B2A18D1564BDB888BB9594BBD
:100DC0001B7883B1534B1D795E882846584B984752
:100DD000044600283AD02846F1B2544B98470446BE
:100DE00034E0002432E0002430E0022B30D1494BC3
:100DF0005B78012B02D0032B10D026E0454BDB881B
:100E000043B9444B5B883BB9424B1879494B9847EF
:100E100004461BE0002419E0002417E03D4BDB886A
:100E20005BB93C4B5B8853B93A4C2079424B9847AD
:100E30002079424B9847044608E0002406E000244D
:100E400004E0002402E0002400E00024002C5DD136
:100E5000304B1B7803F01F03012B1ED1314B1B7845
:100E6000DBB12C4B1C79304B1D682B681B79A342DE
:100E700013D920460021324B984770B16B6853F864
:100E80002450EB689847014620462D4B984720B1E7
:100E9000AB6898470446002838D11E4B1B7803F0F6
:100EA0001F03022B28D11F4B1B78FBB11E4B1B6865
:100EB0001A681279E2B10025214FDFF86C805B6877
:100EC00053F82560F368984701462846B84704461A
:100ED000E0B1B36898470446C0B90135EDB2D8F81F
:100EE00000301A681279AA42E9D80FE000240DE018
:100EF00000240BE0002409E0002407E013F0600F59
:100F0000A6D1CBE613F0600FA2D117E62046BDE8CC
:100F1000F08100BF44070020C12340002C000020C6
:100F2000950A40005006002048060020390A40007B
:100F3000D1094000652640009128400079254000F5
:100F40006909400030B4012404600024446040F288
:100F50000225C0F82051C0F80441C0F8144145688A
:100F60002B435200B1FBF2F14D1E2D02ADB22B43CB
:100F70004360204630BC7047436823F01003436051
:100F8000436819434160704743681943D201D3B2A3
:100F900019434160704700BF10B4446822430906FA
:100FA00001F0706422431B0703F040531A43426070
:100FB0005DF8044B704700BF012303FA01F10161A2
:100FC000704700BF4FF6FF7343617047006A704778
:100FD0004162704701230360704700BF436823F0FC
:100FE00001034360704700BF19B1044BC0F8E430FF
:100FF0007047034BC0F8E430704700BF01434144E1
:101000000043414410B4446824F07C5424F47F44E9
:10101000090289B20C4312B144F4001401E024F433
:1010200000141B0603F07C531C43446000205DF851
:10103000044B7047012905D8012303FA01F101612E
:10104000002070470120704710B44264B1F1C05FC6
:101050002ED008D8B1F1006F14D0B1F1805F1DD04F
:10106000002935D135E0B1F1205F32D003D8B1F19C
:10107000005F27D02CE0B1F1405F2AD0B1F1605F72
:1010800027D025E0016F046FD34321401940016749
:10109000416F446F21400B40436719E0036F1343D6
:1010A0000367436F416F0B4023EA020343670FE07E
:1010B000036F016F0B4023EA02030367436F13437F
:1010C000436705E0036F13430367436F13434367AD
:1010D00042605DF8044B704710B44164019C0CB150
:1010E000416600E001660BB1016500E041650AB1AF
:1010F000016300E04163016101605DF8044B7047EA
:10110000C06C7047806C70472DE9F04180460E46F8
:10111000124B984705464046114B9847054012D060
:10112000104C54F80C3CB3420AD154F8081C294224
:1011300006D023683046984754F8083C25EA030552
:101140001034002DEDD1084B1B6823B1074B1B68F1
:101150000BB140469847BDE8F08100BF0111400047
:1011600005114000680600204007002058060020B6
:1011700008B502480B21024B984708BD000E0E40EF
:101180000911400008B502480C21024B984708BDE0
:1011900000100E4009114000174B1A6B22F070022C
:1011A000104318639B6E13F0080F09D14FF40063CE
:1011B000114901E0013B19D08A6E12F0080FF9D0F5
:1011C0000D4B1A6B22F0030242F002021A63986E72
:1011D00010F008000CD14FF40063074901E0013B17
:1011E00008D08A6E12F0080FF9D0704701207047BE
:1011F000002070470120704700040E4038B11149AB
:101200000B6A114A1A40114B13430B6270470D4A87
:10121000136A23F45C1323F0030343F45C1343F0D9
:101220000103090289B20B431362936E13F0010F9D
:10123000FBD0044A136A43F09B7343F48033136278
:10124000704700BF00040E40FCFFC8FE02003701DB
:10125000024B986E00F48030704700BF00040E40CF
:101260004FF00052014B9A62704700BF00040E40DD
:10127000024B986E00F00200704700BF00040E4061
:10128000222820D81F280DD8124B9A6901238340A9
:101290001A40934219D0012303FA00F00D4B186154
:1012A000002070470B4BD3F80821203801238340DE
:1012B0001A4093420BD0012303FA00F0054BC3F808
:1012C0000001002070470120704700207047002077
:1012D000704700BF00040E40222820D81F280DD8D8
:1012E000124B9A69012383401A40934219D101237A
:1012F00003FA00F00D4B5861002070470B4BD3F8F8
:1013000008212038012383401A4093420BD1012346
:1013100003FA00F0054BC3F80401002070470120D8
:101320007047002070470020704700BF00040E4047
:10133000024B187880F00100704700BFCC060020F7
:1013400010B489014318022444504FF0FF319962D0
:10135000196A5A605DF8044B704700BF8901052384
:1013600043507047890102234350704700EB8111BD
:101370004A61704700EB8111CA617047034658BB50
:10138000184A12782AB3EFF3108172B6BFF35F8F59
:10139000154A1070154A907801389070C9B901212A
:1013A000114A1170BFF35F8F62B612E0EFF3108144
:1013B00072B6BFF35F8F00200B4A10700B4A907813
:1013C0000130907029B90121074A1170BFF35F8F76
:1013D00062B6044A13707047024A1278002AE5D0B8
:1013E000F7E700BF0C070020A4000020380700200A
:1013F000034A0023136153619381024A13707047BB
:10140000440700201107002082B005220E4B1A70FD
:101410000E4B1A6B0092009A42F04F020092009A13
:1014200042F020020092009A1A6300230193019B6C
:10143000132B06D800BF019B01330193019B132B93
:10144000F8D902B0704700BF1107002000400340E8
:1014500082B003220E4B1A700E4B1A6B0092009A48
:1014600042F04F020092009A42F010020092009A5D
:101470001A6300230193019B132B06D800BF019B25
:1014800001330193019B132BF8D902B0704700BFC1
:10149000110700200040034008B5024B1B6903B14F
:1014A000984708BD4407002070B58AB0754B1B787B
:1014B000032B1DD1744B1A6B0092009A42F04F021D
:1014C0000092009A22F001020092009A1A6300230F
:1014D0000193019B132B06D800BF019B013301939D
:1014E000019B132BF8D9694B9847694B9847C6E085
:1014F000684B1B88684A9489E41AA4B2002C33D143
:10150000664A11880B449BB21380634AD2889A4280
:1015100002D0634B1B78EBB104225A4B1A705A4B22
:101520001A6B0292029A42F04F020292029A22F041
:1015300001020292029A1A6300230393039B132B66
:1015400000F29D8000BF039B01330393039B132B89
:10155000F8D994E0504B5B696BB1984758B10022C1
:101560004C4B1A804C4B9C893F2C04D900224C4B8D
:101570001A70402402E00122494B1A70464B9968C8
:10158000444B1E88EFF31080D0F1010038BF0020DB
:1015900072B6BFF35F8F0022424B1A703A4B1B6B3F
:1015A00013F0020F01D124BB2DE028B101223D4BE5
:1015B0001A70BFF35F8F62B60422324B1A70324B3F
:1015C0001A6B0492049A42F04F020492049A22F099
:1015D00001020492049A1A6300230593059B132BBE
:1015E0004DD800BF059B01330593059B132BF8D9FC
:1015F00045E031440B46244D13F8012B2A655A1A55
:10160000D2B2A242F8D33444224B1C801E4B1A6B38
:101610000692069A42F04F020692069A42F0100293
:101620000692069A1A6300230793079B132B06D88A
:1016300000BF079B01330793079B132BF8D9124B6D
:101640001A6B0892089A42F04F020892089A22F008
:1016500001020892089A1A6300230993099B132B2D
:1016600006D800BF099B01330993099B132BF8D9B6
:1016700028B101220B4B1A70BFF35F8F62B60AB01C
:1016800070BD00BF110700200040034099144000C6
:10169000F11340000E07002044070020CE06002072
:1016A00010070020A400002038B50346447C14F045
:1016B000100F15D0447C6FF30414447404687CB19B
:1016C00002F10C05074850F8250010F4806F18BF90
:1016D00042F08002012914BF002001209968A04730
:1016E00038BD00BF0040034084B0421E02EB8202BE
:1016F0002F4B03EB8202830003F1402303F54033B9
:10170000196B01F0420142290ED0196B11F0020F42
:1017100004D0517C6FF38301517409E0517C0120A6
:1017200060F38301517424E0517C11F00C0F20D13F
:10173000196B0091009941F04F010091009921F03F
:10174000020100910099196300230193019B132B5F
:1017500006D800BF019B01330193019B132BF8D9DD
:1017600018B3032821D0537C012161F38303537400
:101770001BE0196B0291029941F04F01029102990D
:1017800021F0400102910299196300230393039B06
:10179000132B06D800BF039B01330393039B132B2A
:1017A000F8D9537C6FF38303537404B0704700BFC0
:1017B000D00600202DE9F00783B00746461E06EB51
:1017C0008606524B03EB8606737CC3F3810320B17C
:1017D000032814BF0222012200E001229A4240F3B2
:1017E0008980F368B268934204D3747C14F0400F8C
:1017F00000F0828074681C44C3EB0209328AC2F391
:101800000902914526BF91464FF000084FF00108AC
:101810004B44F360B9F1070F26D92346A9F1080A12
:101820004FEADA0A04F1080C0CEBCA0C820002F150
:10183000402202F540321D7815655D7815659D786A
:101840001565DD7815651D7915655D7915659D79D9
:101850001565DD79156508336345ECD10AF1010A98
:1018600004EBCA0409F00709B9F1000F09D0A1443B
:10187000274D14F8012B07F1140345F823204C459C
:10188000F7D1737CC3F38102013262F38303737473
:10189000E1B1800000F1402000F54030036B00937F
:1018A000009B43F04F030093009B43F01003009311
:1018B000009B036300230193019B132B06D800BFF9
:1018C000019B01330193019B132BF8D9B8F1000F51
:1018D00003D0737C6FF386137374F268B3689A4213
:1018E0000CD3737C13F0400F0AD143F08003737460
:1018F000002006E0012004E0002002E0012000E0DA
:10190000012003B0BDE8F007704700BFD0060020FB
:10191000004003402DE9F047B0B0944B984760B9C0
:10192000934BDB6913F4807F07D172B6BFF35F8FEF
:101930000022904B1A7000F015BD22208E4B984764
:101940008B4B9B6913F4006F0CD0894BDB6913F44C
:10195000006F07D04FF40062854B1A62874B98479F
:1019600000F000BD824BDB6913F0010F00F0F18144
:101970007F4B1B6B13F0040F00F0C080804B1B7873
:101980001BB1804B9847804B9847794B1B6BC3F337
:101990000A43082B1CD0764B1A6B0292029A42F033
:1019A0004F020292029A22F004020292029A1A63F1
:1019B00000230393039B132B06D800BF039B013323
:1019C0000393039B132BF8D9704B984700F0CABCC4
:1019D0006F4B03F1080066490A6D03F8012F83423B
:1019E000FAD16C4B9847E0B9614B1A6B0492049A98
:1019F00042F04F020492049A22F004020492049AE4
:101A00001A6300230593059B132B06D800BF059B83
:101A100001330593059B132BF8D95C4B984700F0D5
:101A2000A1BC5D4B93F90030002B3DDA504B1A6B93
:101A30000692069A42F04F020692069A42F08002FF
:101A40000692069A1A6300230793079B132B06D866
:101A500000BF079B01330793079B132BF8D9444B17
:101A60001A6B0892089A42F04F020892089A22F0E4
:101A700004020892089A1A6300230993099B132B06
:101A800006D800BF099B01330993099B132BF8D992
:101A90000023424A1380424A13800222384B1A70B4
:101AA000404B984700F05EBC314B1A6B0A920A9A81
:101AB00042F04F020A920A9A22F004020A920A9A0B
:101AC0001A6300230B930B9B132B06D800BF0B9BB1
:101AD00001330B930B9B132BF8D92F4BDB881BB9CE
:101AE000314B984700F03EBC00232C4A13802C4A0F
:101AF00013800122224B1A7000F034BC1C4B1B6B6C
:101B000013F0010F03D0274B984700F02BBC184B64
:101B10001B6B13F0020F00F01781194B1B78012B80
:101B200044D0022B01D0042B02D1164B984701E080
:101B3000164B98470E4B1A6B0C920C9A42F04F02C0
:101B40000C920C9A22F002020C920C9A1A63002357
:101B50000D930D9B132B06D800BF0D9B01330D93E6
:101B60000D9B132BF8D9084B9847FBE3311340002A
:101B700000400340A400002081124000DD0A400024
:101B80001107002099144000F1134000091440008F
:101B900043070020190B400044070020CE06002018
:101BA0000E070020A914400051144000904B196BFF
:101BB000C1F30A418F4B9B898F4A15886A1893425B
:101BC000AEBF89B2C5EB030399B28A4B986828442B
:101BD000A9B10346864C226D03F8012B1A1AD2B222
:101BE0008A42F8D30D44ADB2834B1D80402906D103
:101BF000804BDA88814B1B882B449A423EDC7D4B1C
:101C00009D815B69F3B19847E0B97D4B9847784B6C
:101C10001A6B0E920E9A42F04F020E920E9A22F01A
:101C200002020E920E9A1A6300230F930F9B132B3E
:101C300000F2988300BF0F9B01330F930F9B132B70
:101C4000F8D98FE36A4B1A6B1092109A42F04F0248
:101C50001092109A22F002021092109A1A63002336
:101C60001193119B132B06D800BF119B01331193C5
:101C7000119B132BF8D9634B984773E35D4B9B89FA
:101C8000AB4246D15B4B5B69E3B95D4B9847584B20
:101C90001A6B1292129A42F04F021292129A22F08A
:101CA00002021292129A1A6300231393139B132BAE
:101CB00000F2588300BF139B01331393139B132B24
:101CC000F8D94FE39847E0B94D4B9847484B1A6B0A
:101CD0001492149A42F04F021492149A22F00202C3
:101CE0001492149A1A6300231593159B132B00F278
:101CF000398300BF159B01331593159B132BF8D91E
:101D000030E33E4A3C4B1888118801441180002280
:101D10001A80374B1A6B1692169A42F04F0216929F
:101D2000169A22F002021692169A1A63002317934B
:101D3000179B132B00F2168300BF179B01331793D9
:101D4000179B132BF8D90DE3294B1B6B13F0080FCE
:101D500006D1DFF8B4C064460123254A1E461AE0C6
:101D6000234B1A6B0092009A42F04F020092009AA5
:101D700022F008020092009A1A6300230193019B4B
:101D8000132B00F2EF8200BF019B01330193019BF3
:101D9000132BF8D9E6E25FFA83F891691F4606FA39
:101DA00003F50D4200F0F181A146990001F14021B7
:101DB00001F54031086B10F0420F44D0A268E3688F
:101DC000B4F810A0CAF3090A606818440C460E6BF8
:101DD000C6F30A46002E00F0B682D11AB14200F2D4
:101DE000A982C9F80C20002940F0AA82B6E200BFFF
:101DF00000400340440700200E070020CE060020CC
:101E00000914400051144000D0060020226DC25435
:101E100001338B42FAD34046954B984717B9B245E8
:101E200040F2A082236B13F0200F40F09B82914B75
:101E30005D61D9F80C30C9F80830484600214246A7
:101E40008D4B98478EE2086B10F0010F00F0738104
:101E5000637CC3F38102033202F0030262F3830363
:101E6000637413F0200F74D0002A36D0BA0002F148
:101E7000402202F54032136B1893189B43F04F0336
:101E80001893189B43F010031893189B13630023B7
:101E90001993199B132B06D800BF199B0133199373
:101EA000199B132BF8D9136B1A931A9B43F04F030A
:101EB0001A931A9B23F001031A931A9B13630023AE
:101EC0001B931B9B132B00F24D8200BF1B9B013306
:101ED0001B931B9B132BF8D944E2BA0002F140225A
:101EE00002F54032136B1C931C9B43F04F031C9371
:101EF0001C9B23F001031C931C9B136300231D9365
:101F00001D9B132B06D800BF1D9B01331D931D9BEA
:101F1000132BF8D9136B1E931E9B43F04F031E9394
:101F20001E9B43F020031E931E9B136300231F93ED
:101F30001F9B132B06D800BF1F9B01331F931F9BB2
:101F4000132BF8D999F811306FF3451389F8113034
:101F500008E2637CDB090AD0637C6FF3C713637408
:101F6000E368A360204600214246434B9847D9F8D6
:101F70000C20D9F808309A4234D399F8113013F074
:101F80004C0F2FD1EFF3108372B6BFF35F8F002198
:101F90003A4A1170374A55612BB90122374B1A70F2
:101FA000BFF35F8F62B6BB0003F1402303F54033FC
:101FB0001A6B2092209A42F04F022092209A22F02F
:101FC00001022092209A1A6300232193219B132B54
:101FD00000F2C88100BF219B01332193219B132B69
:101FE000F8D9BFE1B8F1000F00F08280B8F1030F1B
:101FF0007ED099F8113013F00C0F43D0BA0002F1E3
:10200000402202F54032136B2293229B43F04F0390
:102010002293229B43F010032293229B13630023FD
:102020002393239B132B06D800BF239B01332393B9
:10203000239B132BF8D9136B2493249B43F04F035A
:102040002493249B23F001032493249B13630023F4
:102050002593259B132B06D800BF259B0133259381
:10206000259B132BF8D940460021054B984779E171
:10207000E916400000400340A9164000A4000020DB
:10208000B517400040460121674B984770B999F851
:1020900011306FF3C71389F81130D9F80C30C9F833
:1020A0000830484600214246604B9847BB0003F188
:1020B000402303F540331A6B2692269A42F04F02D2
:1020C0002692269A22F001022692269A1A6300236B
:1020D0002793279B132B06D800BF279B01332793F9
:1020E000279B132BF8D9404600214F4B984739E1E5
:1020F000404601214C4B9847BB0003F1402303F5B8
:1021000040331A6B2892289A42F04F022892289A5C
:1021100022F001022892289A1A6300232993299B0E
:10212000132B00F21F8100BF299B01332993299BA8
:10213000132BF8D916E1096B11F0080F25D09A007E
:1021400002F1402202F54032136B2A932A9B43F09E
:102150004F032A932A9B23F008032A932A9B136395
:1021600000232B932B9B132B06D800BF2B9B0133F3
:102170002B932B9B132BF8D9136B03F4E063B3F56C
:10218000807F00F0EF80136BECE001331434042BFC
:102190007FF401AEDBE0264BDB6913F4005F13D163
:1021A000234B9B6913F4007F04D0214BDB6913F4AC
:1021B000007F09D11E4B9B6913F4806F14D01C4B18
:1021C000DB6913F4806F0FD0194C4FF4185323625E
:1021D00063610120174B98474FF48073236223619A
:1021E0004FF400632361BDE0114B9B6913F4807FC2
:1021F00024D00F4BDB6913F4807F1FD00C4B4FF4BE
:1022000080721A625A614FF400521A614FF40072E0
:102210001A614FF480621A612220074B9847002010
:10222000044B98479EE000BFB5174000A916400038
:10223000004003407D134000D91240004B4BDB6946
:1022400013F4805F00F08E804FF48052474B1A6287
:10225000654600240127464E0134E4B2284639463B
:102260002246B0471435032CF6D1424B98473F4BDA
:102270005A6822F001025A605A6822F002025A603B
:102280009A6842F480729A609A6822F07F029A609B
:102290001A6B2C922C9A42F04F022C922C9A22F418
:1022A000074222F080022C922C9A42F400422C9297
:1022B0002C9A1A6300232D932D9B132B06D800BF55
:1022C0002D9B01332D932D9B132BF8D9274B1A6B84
:1022D0002E922E9A42F04F022E922E9A42F40042F3
:1022E0002E922E9A1A6300232F932F9B132B06D81E
:1022F00000BF2F9B01332F932F9B132BF8D9EFF3A4
:10230000108372B6BFF35F8F00211B4A1170012149
:10231000164A116123B9184B1970BFF35F8F62B66B
:10232000164B9847114B4FF480721A614FF40062BC
:102330001A6117E03344C9F80C303146002700E039
:102340000127002362E540460D4B984767E5074BA0
:102350009B6913F4005F7FF41EAF21E74046084BF2
:1023600098475FE530B0BDE8F08700BF004003400C
:10237000A9164000950A4000A4000020F113400077
:10238000E9164000002070470C4B5A6822F0010209
:102390005A609A6822F480729A6070B1996800F06D
:1023A0007F0221F07F010A439A609A6842F48072AA
:1023B0009A605A6842F001025A6070470040034038
:1023C000054B5B6813F0010F04D0034B986800F0D5
:1023D0007F0070470020704700400340024B1868A0
:1023E000C0F30A00704700BF004003400020704760
:1023F000014B9860998170474407002070B483B006
:1024000000F00F03032B66D89C0004F1402404F570
:102410004034256B15F4004F5FD101F00305012D09
:1024200003D1002B5BD0032B5BD01D1FEDB2012D20
:102430008CBF40254FF40075954254DB5D1E05EBC3
:1024400085052D4E06EB85052E8A62F309062E8240
:102450006A7C02F07F026FF345126A74C00903D0F0
:10246000D2B26FF383026A74244A956A012606FA8F
:1024700003F31D439562956A25EA03039362236B78
:102480000093009B43F04F030093009B23F407430A
:1024900023F08003009338B141F00402120202F4E9
:1024A000E06242F4004204E00A0202F4E06242F414
:1024B0000042009B13430093009B2363002301937E
:1024C000019B132B11D800BF019B01330193019B8A
:1024D000132BF8D90BE000200AE0002008E00020D0
:1024E00006E0002004E0002002E0012000E00120DE
:1024F00003B070BC704700BFD0060020004003400E
:1025000008B500F00F02032A11D8930003F140230D
:1025100003F54033196B21F400411963501E00EBA1
:102520008000034B03EB80000121024B984708BD5C
:10253000D0060020A916400000F00F00032815D88F
:10254000431E03EB83030A4A02EB83035B7C13F015
:10255000200F09D10C30074B53F8203013F0280F0F
:102560000CBF0020012070470120704700207047F9
:10257000D00600200040034010B483B000F00F02EA
:10258000032A5FD8EFF31081D1F1010138BF002198
:1025900072B6BFF35F8F00242F4B1C7010F0800FBA
:1025A00025D0531E03EB83032C4800EB830302F179
:1025B0000C042B4850F8240010F0100F04D1587C64
:1025C000C0F38100012812DD587C40F020005874CF
:1025D000012303FA02F2224B1A61002934D00122AE
:1025E0001D4B1A70BFF35F8F62B601202FE093007E
:1025F00003F1402303F54033186B0090009840F03E
:102600004F000090009840F0200000900098186360
:1026100000230193019B132B06D800BF019B0133BC
:102620000193019B132BF8D9012303FA02F20C4BFF
:102630001A6159B10122084B1A70BFF35F8F62B65D
:10264000012004E0002002E0012000E0012003B0AE
:102650005DF8044B704700BFA4000020D0060020A6
:1026600000400340F0B585B000F00F00032859D8B2
:10267000304C431E03EB83039D0061194B7C6FF3C9
:1026800045134B74820002F1402202F54032136B75
:1026900013F0200F48D0136B0093009B43F04F03BF
:1026A0000093009B23F020030093009B13630023FF
:1026B0000193019B132B06D800BF019B01330193AB
:1026C000019B132BF8D91C4B9E6A012707FA00F0D7
:1026D00006439E629E6A26EA00009862136B02938C
:1026E000029B43F04F030293029B23F008030293E3
:1026F000029B136300230393039B132B06D800BF95
:10270000039B01330393039B132BF8D94B7C13F0EA
:10271000100F0BD04B7C6FF304134B746359984725
:10272000012004E0002002E0012000E0012005B0CB
:10273000F0BD00BFD0060020004003402DE9F04767
:1027400000F00F04032C00F28980A50005F140255C
:1027500005F540352E6B16F4004F00F08280DFF84F
:102760002CC1661E06EB8606B7000CEB070696F832
:10277000118018F0200F77D1D5F8308018F0200F95
:1027800075D1EFF31088D8F1010A38BF4FF0000A75
:1027900072B6BFF35F8F4FF00009DFF8E48088F86E
:1027A000009096F8118018F0100F0BD0BAF1000FBE
:1027B00060D00122324B1A70BFF35F8F62B60020E7
:1027C000BDE8F08796F8118048F0100886F811806F
:1027D000BAF1000F08D04FF00109DFF8A48088F8A3
:1027E0000090BFF35F8F62B67260B3600022F26048
:1027F000089A4CF8072021B9D3F1010238BF002212
:1028000000E00122737C62F386136FF3C7137374C5
:10281000EFF3108672B6BFF35F8F0022184B1A7069
:102820000122A240174B1A6110F0800F0CD02B6BC5
:1028300013F0110F08D120460121134B984718B10E
:1028400020460021104B9847BEB901220C4B1A704C
:10285000BFF35F8F62B60120BDE8F0870020BDE8BE
:10286000F0870020BDE8F0870020BDE8F087002059
:10287000BDE8F0870020BDE8F0870120BDE8F087C3
:10288000A400002000400340B5174000D0060020FF
:10289000F0B585B000F00F04032C00F29080EFF348
:1028A000108372B6BFF35F8F0021464A1170012674
:1028B000A640454A56612BB90122424B1A70BFF31C
:1028C0005F8F62B610F0800F09D1A50005F1402599
:1028D00005F540352B6B13F0420F57D15DE0A30097
:1028E00003F1402303F540331A6B12F0100F2AD086
:1028F0008CB1032C0FD01A6B22F010021A631A6BE2
:1029000012F0100FFBD11A6B42F010021A631A6B0F
:1029100012F0100FFBD01A6B0092009A42F04F0297
:102920000092009A22F010020092009A1A6300228C
:102930000192019A132A06D800BF019A013201922E
:10294000019A132AF8D91A6B0292029A42F04F02A6
:102950000292029A22F001020292029A1A63002362
:102960000393039B132B06D800BF039B01330393F0
:10297000039B132BF8D9631E03EB8303134A02EB6B
:1029800083035A7C6FF383025A7406E0104F20468B
:10299000B8472B6B13F0420FF9D10B4B9A6A3243B5
:1029A0009A629A6A22EA06069E62601E00EB800026
:1029B000064B03EB800001212246064B984705B0E9
:1029C000F0BD00BFA400002000400340D00600205E
:1029D000E9164000A91640004FF4004343607047D9
:1029E000FEE700BF10B51E4B1E4A9A4203D01E4B95
:1029F0001B4A9A4204D31D4B1D4A9A420FD31AE038
:102A00001C4B1D4CE41A24F0030404340023144826
:102A100014495A581A500433A342FAD1EBE7174B22
:102A20001749C91A21F003011A1D1144002243F865
:102A3000042F8B42FBD1134A22F0604323F07F0323
:102A400011498B6002F16042B2F5404F03D28A68AF
:102A500042F000528A600D4B98470D4B9847FEE7B5
:102A600000000020882D4000E00400205C070020CA
:102A7000E004002004000020E3040020DC04002027
:102A8000570700200000400000ED00E02D2C400022
:102A9000ED2B40003D4B1B6B03F00303032B5DD874
:102AA000DFE803F0020E2B2B394B5B6913F0800F2C
:102AB00014BF4FF400424FF4FA42364B1A604DE017
:102AC000324B1B6A13F0807F03D0334A314B1A60BC
:102AD00044E0324A2F4B1A602C4B1B6A03F0700300
:102AE000102B02D0202B04D038E02D4A294B1A603D
:102AF00034E0294A274B1A6030E0244B1B6A13F05C
:102B0000807F03D0244A234B1A6012E0234A214BD2
:102B10001A601E4B1B6A03F07003102B02D0202B8F
:102B200004D006E01E4A1B4B1A6002E01A4A194BF9
:102B30001A60164B1B6B03F00303022B134B07BFEA
:102B4000986A996AD86AD96A124BC0F30A401A681F
:102B500000FB0222C9B2B2FBF1F21A600B4B1B6BF5
:102B600003F07003702B07D10A4B1A680D49A1FBC3
:102B7000020252081A607047044B196B054BC1F3EF
:102B800002111A68CA401A60704700BF00040E4064
:102B900010140E40A8000020001BB70000093D00E3
:102BA00000127A00ABAAAAAA0C4B984203D80022C2
:102BB0000B4B1A6070470B4B984204D84FF480724D
:102BC000074B1A607047084B984294BF4FF400724D
:102BD0004FF44072024B1A60704700BF3F6603011A
:102BE000000A0E407FC3C9017FF9370300B583B0E7
:102BF000084B9847084B9847084B9847084B98470D
:102C00000023009307484FF400311A46064CA047B2
:102C1000FEE700BFBD03400019044000E901400089
:102C200081014000000E0E40D910400070B50E4BDF
:102C30000E4D0024ED1AAD101E46AC4204D056F8DD
:102C4000242090470134F8E700F08CF8084D094B38
:102C50000024ED1AAD101E46AC4204D056F82420D4
:102C600090470134F8E770BD702D4000702D400092
:102C7000782D4000702D4000024B13B1024800F047
:102C800005B8704700000000992C40000146002064
:102C90000246034600F016B838B5084D084C641BD0
:102CA000A41005EB840524B155F8043D013C984778
:102CB000F9E7BDE8384000F05FB800BF842D400060
:102CC000882D40002DE9F8439846224B06461C68A3
:102CD0000F46D4F84801914618B904F5A670C4F817
:102CE000480143681F2B16DD1B4B1BB94FF0FF300B
:102CF000BDE8F8834FF4C870AFF300800028F5D02A
:102D0000D4F84811002545600160C4F84801C0F8B6
:102D10008851C0F88C514468A6B10122A24000EB52
:102D20008405C5F88890D0F88811022E41EA020186
:102D3000C0F88811C5F8088104D1D0F88C311A4345
:102D4000C0F88C21631C0234436040F824700020DA
:102D5000BDE8F8835C2D400000000000B8000020B2
:102D600043000000F8B500BFF8BC08BC9E467047A1
:102D7000792C400049014000F8B500BFF8BC08BC00
:082D80009E467047210140004E
:102D88000100000021084000D5044000F104400083
:102D9800F50440000107400079044000C5044000E4
:102DA800F9044000F504400000000000480000203D
:102DB800400000200000000018000020040000204F
:102DC8005C000020380000201201000202000040D0
:102DD800EB03042400010000000100000902430085
:102DE80002010080320904000001020201000524EA
:102DF8000010010424020205240600010524010331
:102E0800010705830340001009040100020A0000BD
:102E1800000705810240000007050202400000008B
:102E2800040309040100000000093D00000000003F
:102E3800B80000200000000000000000A4030020EB
:102E48000C040020740400200000000000000000B2
:102E5800000000000000000000000000000000006A
:102E6800000000000000000000000000602D40008D
:102E7800000000000000000000000000000000004A
:102E8800000000000000000000000000000000003A
:102E9800000000000000000000000000000000002A
:102EA800000000000000000000000000000000001A
:102EB800000000000000000000000000000000000A
:102EC80000000000000000000000000000000000FA
:102ED80000000000000000000000000000000000EA
:102EE80001000000000000000E33CDAB34126DE687
:102EF800ECDE05000B0000000000000000000000F0
:102F080000000000000000000000000000000000B9
:102F180000000000000000000000000000000000A9
:102F28000000000000000000000000000000000099
:102F38000000000000000000000000000000000089
:04000005004029E5A9
:00000001FF
