:020000040040BA
:10000000582C0020F92E4000F52E4000F52E40001F
:10001000F52E4000F52E4000F52E400000000000B7
:10002000000000000000000000000000F52E40006D
:10003000F52E400000000000F52E4000F52E400097
:10004000F52E4000F52E4000F52E4000F52E400024
:10005000F52E4000F52E4000F52E4000F52E400014
:10006000F52E4000F52E4000F52E400041154000D1
:1000700055154000F52E4000F52E4000F52E4000AD
:10008000F52E4000F52E4000F52E4000F52E4000E4
:10009000F52E4000F52E4000F52E4000F52E4000D4
:1000A000F52E4000F52E4000F52E4000F52E4000C4
:1000B000F52E400081014000F52E4000F52E400055
:1000C000F52E4000F52E4000011D4000F52E4000A9
:1000D00008B50548054B1B1A062B00D808BD044B74
:1000E000002BFBD09847F9E7847E4000877E4000D4
:1000F0000000000008B50748074B1B1A9B1003EBD4
:10010000D373591000D108BD044A002AFBD0904790
:10011000F9E700BF847E4000847E400000000000BC
:1001200010B5064C237843B9FFF7D2FF044B13B147
:100130000448AFF300800123237010BD780900202C
:1001400000000000847E400008B5084B1BB1084841
:100150000849AFF300800848036813B1074B03B1A7
:100160009847BDE80840FFF7C5BF00BF000000008A
:10017000847E40007C090020847E40000000000056
:1001800010B5184B9847184B1860184C2046184B60
:100190009847184B18602046174B9847174B1B6819
:1001A000DBB1174A12681AB1013A154B1A600AE01E
:1001B0000D4A1268118A124A11600021114A116019
:1001C000013B0E4A1360084B1A680E4B1B68134420
:1001D0000648197A0C4B984710BD0C4800210C4B6F
:1001E000984710BDD9044000140C00200080034043
:1001F000A1134000100C0020991340000C0C0020AB
:10020000080C00200C0000208D134000000001406D
:100210006117400038B51E20154CA0470C20A047A0
:10022000144D28464FF000514FF40052124CA04795
:1002300028464FF000514FF48042A0470F4C204613
:100240000F4B9847204600210E4B9847204600212F
:100250000D4DA84720460121A84720460121002234
:100260000F230A4DA8472046094B984738BD00BFC9
:100270006D16400000100E401914400000C00340ED
:10028000A5134000B913400005144000D5134000E9
:10029000AD1340002DE9F0418EB07C4B984700280B
:1002A00000F0F1807A4B9847C4B22046794B9847CA
:1002B000794B1B78112B04D8784AD4540133764AF1
:1002C00013700D2C40F0DF800A20724CA0470D20E7
:1002D000A0477248704B1B780022C2547049714B82
:1002E00098470478A4F14103132B00F2C980DFE89A
:1002F00013F03600C700C700C7009B003600C700D8
:10030000C700C700C700C700C700C700C700C700B5
:10031000C700C7003600140025000122624B1A7581
:1003200001AC624D0FCD0FC495E8030044F8040BF7
:10033000218001A815215E4B9847A1E001225A4B6C
:100340005A7501AC5B4D0FCD0FC495E8030044F81E
:10035000040B217001A81421554B984790E0564B8F
:100360001C70421C4378A3F13001C9B2092914D88A
:1003700052498A4213D84E1C0021514D02E0B2422C
:100380000ED00146481CC0B26B5412F8013FA3F1D5
:100390003001C9B20929F2D902E0002000E00020B2
:1003A000522C13D10D2B6BD1454B00221A541846F9
:1003B000444B984702463C4B586001A84249434B86
:1003C0009847014601A83A4B984759E0412C14D16F
:1003D0000D2B55D13A4B00221A541846394B9847E9
:1003E0000246314B188201A8394992B2374B9847DF
:1003F000014601A82E4B984742E0462C40D10D2BD8
:100400003ED12F4B00221A5418462E4B98470246D5
:10041000254B588201A82F4992B22C4B9847014690
:1004200001A8234B98472BE0431C0026244DA846E7
:10043000244F08E0501CC0B21C46A9541A780D2A5B
:1004400008D0024600E000221C4613F8011B2C29AC
:10045000F0D100E002460023AB544046B84730B12B
:10046000114A3244107223780D2B05D108E00E4B4F
:100470001E440023337203E00136631C082EE2D1D0
:100480000022054B1A700EB0BDE8F0818D0A4000C5
:10049000490B40007D0C4000950900209809002080
:1004A000E47A400081324000180C0020EC7A4000D1
:1004B000350D4000047B400094090020AB0900206A
:1004C000AC090020693140001C7B4000293240000B
:1004D0003C7B4000707B40000348012303720223F1
:1004E0004372032383727047180C002070B582B0EA
:1004F0000E4B98470E480F4B98470B200E4B9847D2
:100500000E4E0024009430464FF40031224623461C
:100510000B4DA847009430464FF4802122462346D5
:10052000A847084B984702B070BD00BF990540002E
:1005300050140E40ED2E40006D164000000E0E408F
:10054000A91440001502400010B500203E210A4BBE
:1005500098470A4CA0470028FCD0094B9847094A05
:10056000094BDA62094CA0470028FCD00120084B57
:100570009847084B984710BDCD1540002116400004
:1005800051164000023F0F0000040E405D1640006F
:100590001D1740003117400010B50D480D4B98470E
:1005A00000203E210C4B98470C4CA0470028FCD063
:1005B0000B4B98470B4A0C4B9A620C4CA0470028F7
:1005C000FCD010200A4B98470A4B984710BD00BF3B
:1005D0000090D003BD304000CD15400021164000F2
:1005E00031164000033F1F2000040E40411640001A
:1005F00069154000A92F40000E4900230B700E4AD8
:1006000013800E4AA12010702020507053809380D8
:100610000220D08013810A4A4FF4E1301060137138
:100620005371082393710B780133DBB20B700120F7
:10063000704700BF500A0020FC0A0020680A002012
:10064000B8090020024B1A78013AD2B21A707047EA
:10065000500A0020044B1A78013AD2B21A701B7863
:100660000022024B1A707047C00900205C0A00206B
:1006700000207047002070471D4B1B7813F0800F3F
:1006800012D003F06003202B28D1194B5B78212B6B
:1006900026D1174BDB88072B24D1154B154A9A60BE
:1006A00007229A810120704703F06003202B1BD1A1
:1006B0000F4B5878202804D0222814BF0020012096
:1006C00070470B4BDB88072B10D1094B0A4A1A6184
:1006D000084A9A6007229A810120704700207047DB
:1006E00000207047002070470020704700207047AE
:1006F0003C0C0020B8090020FD064000704700BFF8
:1007000030B583B0424B1B7813F0FF0F7ED1414BC5
:10071000984730B1404B1C88404B9847844206D1E3
:1007200074E03D4B1C883E4B984784426ED0EFF3FB
:100730001083D3F1010538BF002572B6BFF35F8F78
:100740000022384B1A70384B1C78E4B2374B33F820
:100750001430DBB9364B1A8801321A802D4B98477A
:1007600018B9334B1B88632B07D92A4B984768B1BC
:100770002F4B1B88B3F5487F08D2002D46D00122AD
:10078000284B1A70BFF35F8F62B63FE00022284B00
:100790001A80284B1B7813F0FF0F06D1944214BF28
:1007A00000220122204B1A7003E0D4F1010438BF6B
:1007B00000240122164B1A7025B11A4B1A70BFF390
:1007C0005F8F62B62546194B33F81440403C18BF82
:1007D000012464B10F4B984720B1104B98470E4B42
:1007E000188007E00E4B98470B4B188002E0002260
:1007F000094B1A800D4B33F815300F4A00928120B7
:1008000021460E4A02EB85120D4CA04703B030BDC5
:10081000640A002099284000580A0020012940005D
:10082000F1284000B0000020C4090020C8090020C1
:100830005E0A0020F80A002045084000CC0900208C
:10084000512C400008B578B9084B1B7813F0FF0F06
:1008500014BF00220122064B23F81200054B18702A
:10086000054B1870054B984708BD00BFC409002010
:10087000C8090020F80A0020640A0020010740008F
:1008800008B50020014B984708BD00BF0107400094
:10089000EFF3108372B6BFF35F8F0021094A117026
:1008A000094A108880B2094A1178094A32F81120A1
:1008B000101A2BB90122034B1A70BFF35F8F62B677
:1008C000704700BFB0000020540A0020600A0020DA
:1008D0004C0A002008B5034B9847003018BF012090
:1008E00008BD00BF9108400010B582B0EFF310833F
:1008F000D3F1010338BF002372B6BFF35F8F00212D
:100900001E4A11701E4A1478E4B21E4A127812F080
:10091000FF0F07D11C4A128892B21C4931F81410FB
:10092000914208D93BB30122144B1A70BFF35F8F79
:1009300062B6002020E00021134A11808C4214BFCF
:10094000002101210E4A117001210E4A117023B1BC
:100950000A4B1970BFF35F8F62B600200C4B9847AB
:100960000C4B0093022001210B4A02EB841240231E
:100970000A4CA04700E0002002B010BDB0000020EB
:10098000600A0020F40A0020540A00204C0A0020CB
:10099000D5084000310A4000740A0020512C400064
:1009A00010B50024154B1C70154B1C70154B1C709A
:1009B000154B1C70154B1C805C80154B1C80204611
:1009C000144B9847144B1C70144B1C70144B1C8018
:1009D000144B1C802046144B9847024658B1074BD5
:1009E00019780131C9B219701B78DBB2012B02D121
:1009F00001210E4B1970104610BD00BFC009002028
:100A0000640A0020F80A0020C4090020C809002058
:100A1000580A002001074000F40A0020600A002064
:100A20004C0A0020540A0020E90840005C0A00201B
:100A300010B582B0D0B90E4B1B7813F0FF0F14BF66
:100A40000023012351B90B490091104601210A4AA4
:100A500002EB83124023094CA04707E0084A22F822
:100A600013100020074B1870074B984702B010BDB9
:100A7000600A0020310A4000740A0020512C400016
:100A80004C0A0020F40A0020E908400008B50020C4
:100A9000014B984708BD00BFD50840002DE9F0473D
:100AA000214B93F80690B9F1090F14BF4FF00009DC
:100AB0004FF0010900201D4C804607461C4D1D4E7D
:100AC000EFF3108172B6BFF35F8F27702B889BB254
:100AD0003278D2B221B901212170BFF35F8F62B6A3
:100AE000154931F81210994207D8144B1B7813F0AE
:100AF000FF0FE5D10020BDE8F08703EB821210491B
:100B000011F802A040EA0A0A01339BB22B8040464A
:100B10000C4B9847B9F1000F03D04FEA0A20C146A9
:100B2000CEE75046BDE8F087B8090020B0000020AD
:100B3000540A0020600A00204C0A00205C0A0020B1
:100B4000740A0020E908400008B50020014B9847CE
:100B500008BD00BF9D0A400010B4EFF3108472B6C8
:100B6000BFF35F8F0022174B1A70174B1978C9B269
:100B7000164A32F81130D1F1010138BF002132F8A4
:100B80001100402B10D1124A127812F0FF0F0BD136
:100B9000104A127812F0FF0F06D101220D4B1A7085
:100BA000094B1970402000232CB90121054A11700E
:100BB000BFF35F8F62B61844C0F180005DF8044B4C
:100BC000704700BFB0000020C4090020C809002001
:100BD000640A0020F80A002008B5034B984700304B
:100BE00018BF012008BD00BF590B40002DE9F0419E
:100BF0000C461B4B9E79092E14BF00260126194D69
:100C0000194FDFF874800020A84730B9174B1B78C4
:100C100013F0FF0FF7D1BDE8F081EFF3108172B64A
:100C2000BFF35F8F00233B7098F80030DBB21048B1
:100C300030F8132002F1010C20F813C002EB8313EB
:100C40000C4AD45421B901233B70BFF35F8F62B6C5
:100C500016B124120026D6E70120BDE8F08100BFBE
:100C6000B8090020D90B4000B00000205C0A002029
:100C7000C8090020CC090020C409002008B501469D
:100C80000020014B984708BDED0B40002DE9F84FBF
:100C9000884615461F4B9B79092B08BF5500DFF886
:100CA0008CA00020D04738B91B4B1B7813F0FF0FE6
:100CB000F7D12846BDE8F88FEFF3108B72B6BFF37B
:100CC0005F8F0023154A1370154B1E78F6B2DFF8BC
:100CD000609039F81670C7F14004A54238BF2C4621
:100CE00007EB86130F481844414622460E4B98479F
:100CF000274429F816705B462BB90123074A137065
:100D0000BFF35F8F62B6A0442D1BCAD10020BDE89F
:100D1000F88F00BFB80900205C0A0020B000002056
:100D2000C4090020CC090020C5314000D90B400087
:100D3000C809002008B503460A4600201946014BA1
:100D4000984708BD8D0C40000F4B1B681B685A88E4
:100D50001A4403781844904210D24378042B0FD0E1
:100D60008B4205D170474378042B0BD08B420AD0BD
:100D7000037818449042F6D3002070470020704753
:100D80000020704700207047040B002008B5034B7B
:100D9000987800F07F00024B984708BD3C0C00207B
:100DA0009D28400010B4164B1B7803B3154B1B68ED
:100DB0001B681A7982421CD9134A13605C881C4450
:100DC000A34218D25A78042A09D19A78824206D1CD
:100DD000DA788A4203D10C4A136001200CE01A78B9
:100DE0001344A342EED3084A1360002004E000201D
:100DF00002E0002000E000205DF8044B704700BFD7
:100E00000C0B0020040B0020100B00202DE9F843F0
:100E100004460021124B98478046E8B1114B1B68ED
:100E20005B6853F82490D9F80C3098470146204667
:100E30000B4B9847804678B10B4B1C6805260B4D31
:100E40000B4F20463146A847044610B18078B8477A
:100E5000F7E7D9F8043098474046BDE8F88300BF6B
:100E6000A50D4000040B0020100B0020490D400090
:100E7000152A40002DE9F0418046104B9847034663
:100E8000C8B10F4B1C6805260E4D0F4F204631464A
:100E9000A847044638B18078E178A288B84703466D
:100EA0000028F3D107E0094B1B685B6853F8283032
:100EB0001B68984703461846BDE8F081A50D400021
:100EC000100B0020490D400011294000040B0020A8
:100ED00008B5014B984708BDE127400070B50D4BA0
:100EE0001B7883B10C4B1B681B681B795BB100241A
:100EF0000A4E094D2046B0470134E4B22B681B6806
:100F00001B79A342F6D80023024A1370044A1380C7
:100F100070BD00BF0C0B0020040B00200D0E400024
:100F20000A0B002038B50C4B1B789BB10B4B1B6890
:100F30001A68127972B10024084D5B6853F82430A6
:100F40001B6903B198470134E4B22B681A6812791F
:100F5000A242F2D838BD00BF0C0B0020040B0020C9
:100F60002DE9F041774B00229A811A615A611B7872
:100F700013F0800F00F0E681724AD288002A40F018
:100F8000E581DBE113F01F0367D16E49497806293B
:100F90000DD0082957D000295FD1022A05D16A480F
:100FA00002216A4B9847012474E1002472E1654BE9
:100FB0005A88130A013B0E2B3BD8DFE803F0080FD9
:100FC0002A3A3A3A3A3A3A3A3A3A3A3A2200604BAC
:100FD0001B68184619785D4B984721E0D2B25C4BEC
:100FE0001B685B7C934226D9594B5B6853F83230BF
:100FF00018465988554B9847524B9B6802225A70A5
:101000000EE0534B9B68C3B1184659884F4B984725
:1010100006E012F0FF0F12D14E4804214B4B9847C7
:10102000484BDA889B8993420BD9464B9A8101241D
:1010300030E100242EE100242CE100242AE10024E8
:1010400028E1012426E1012A05D1434801213F4B33
:10105000984701241EE100241CE1012B2AD13949C3
:1010600049780A2926D1012A1ED13B4B1B78EBB1C6
:10107000344B1D79394B1E6833681B79AB4217D945
:1010800028460021364B98470446002800F002818C
:10109000736853F82530DB689847324B1870184650
:1010A00001212A4B9847F5E00024F3E00024F1E009
:1010B0000024EFE0022B40F0EF80224B5B78002B06
:1010C00040F0E380022A0BD11E4B1879264B98473B
:1010D000264B1880184602211C4B98470124D9E062
:1010E0000024D7E013F01F0340F08480154A5278A3
:1010F000013A082A7ED8DFE812F013007D00CA000A
:101100007D0009007D007D007D003D000D4BDB88EA
:1011100023B9174A0B4B1A610124BBE00024B9E044
:10112000084BDB8853B9074B5B88012B08D1064B72
:101130001A8822F002021A800124ABE00024A9E000
:101140000024A7E03C0C00200A0B002005294000E9
:1011500038000020AC0000200C0B0020040B002005
:10116000A50D4000000B00204D2A4000080B002078
:101170008D0D4000794BDB88002B31D1784B98479F
:1011800000282FD0754B9A78764B1B685B7C9A426F
:101190002ADC754B9847714B9B78744A13702BB3BC
:1011A00003F10053013B6F4A526802EBC3007049E0
:1011B000086052F833301B79D3B100252F466D4EAD
:1011C000884628463946B0470446002862D0013593
:1011D000EDB2D8F800301B681B79AB42F1D859E06A
:1011E000002457E0002455E0002453E0012451E09E
:1011F00001244FE0012B1CD1584A52780B2A18D1F8
:10120000564BDB888BB9594B1B7883B1534B1D79F7
:101210005E882846584B9847044600283AD028460E
:10122000F1B2544B9847044634E0002432E00024E5
:1012300030E0022B30D1494B5B78012B02D0032BDD
:1012400010D026E0454BDB8843B9444B5B883BB963
:10125000424B1879494B984704461BE0002419E09B
:10126000002417E03D4BDB885BB93C4B5B8853B9EE
:101270003A4C2079424B98472079424B9847044694
:1012800008E0002406E0002404E0002402E000243A
:1012900000E00024002C5DD1304B1B7803F01F03CD
:1012A000012B1ED1314B1B78DBB12C4B1C79304B01
:1012B0001D682B681B79A34213D920460021324BAD
:1012C000984770B16B6853F82450EB689847014613
:1012D00020462D4B984720B1AB689847044600281C
:1012E00038D11E4B1B7803F01F03022B28D11F4B54
:1012F0001B78FBB11E4B1B681A681279E2B10025FE
:10130000214FDFF86C805B6853F82560F3689847DD
:1013100001462846B8470446E0B1B36898470446FA
:10132000C0B90135EDB2D8F800301A681279AA4276
:10133000E9D80FE000240DE000240BE0002409E0D0
:10134000002407E013F0600FA6D1CBE613F0600F86
:10135000A2D117E62046BDE8F08100BF3C0C00207A
:10136000D528400038000020DD0E40000C0B002086
:10137000040B0020750E40000D0E4000792B40003C
:10138000A52D40008D2A4000A50D4000012303FA41
:1013900001F10161704700BF4FF6FF734361704771
:1013A000006A704701230360704700BF436823F061
:1013B00001034360704700BF19B1044BC0F8E4302B
:1013C0007047034BC0F8E430704700BF014341440D
:1013D0000043414410B4446824F07C5424F47F4416
:1013E000090289B20C4312B144F4001401E024F460
:1013F00000141B0603F07C531C43446000205DF87E
:10140000044B7047012905D8012303FA01F101615A
:10141000002070470120704710B44264B1F1C05FF2
:101420002ED008D8B1F1006F14D0B1F1805F1DD07B
:10143000002935D135E0B1F1205F32D003D8B1F1C8
:10144000005F27D02CE0B1F1405F2AD0B1F1605F9E
:1014500027D025E0016F046FD34321401940016775
:10146000416F446F21400B40436719E0036F134302
:101470000367436F416F0B4023EA020343670FE0AA
:10148000036F016F0B4023EA02030367436F1343AB
:10149000436705E0036F13430367436F13434367D9
:1014A00042605DF8044B704710B44164019C0CB17C
:1014B000416600E001660BB1016500E041650AB1DB
:1014C000016300E04163016101605DF8044B704716
:1014D000C06C7047806C70472DE9F04180460E4625
:1014E000124B984705464046114B9847054012D08D
:1014F000104C54F80C3CB3420AD154F8081C294251
:1015000006D023683046984754F8083C25EA03057E
:101510001034002DEDD1084B1B6823B1074B1B681D
:101520000BB140469847BDE8F08100BFD1144000A0
:10153000D5144000240B0020380C0020140B002090
:1015400008B502480B21024B984708BD000E0E401B
:10155000D914400008B502480C21024B984708BD39
:1015600000100E40D9144000174B1A6B22F0700285
:10157000104318639B6E13F0080F09D14FF40063FA
:10158000114901E0013B19D08A6E12F0080FF9D021
:101590000D4B1A6B22F0030242F002021A63986E9E
:1015A00010F008000CD14FF40063074901E0013B43
:1015B00008D08A6E12F0080FF9D0704701207047EA
:1015C000002070470120704700040E4038B11149D7
:1015D0000B6A114A1A40114B13430B6270470D4AB4
:1015E000136A23F45C1323F0030343F45C1343F006
:1015F0000103090289B20B431362936E13F0010FCA
:10160000FBD0044A136A43F09B7343F480331362A4
:10161000704700BF00040E40FCFFC8FE0200370107
:10162000024B986E00F48030704700BF00040E40FB
:101630004FF00052014B9A62704700BF00040E4009
:10164000024B986E00F00200704700BF00040E408D
:101650000022014BDA62704700040E40024B986E84
:1016600000F00400704700BF00040E40222820D87C
:101670001F280DD8124B9A69012383401A409342C8
:1016800019D0012303FA00F00D4B186100207047B8
:101690000B4BD3F808212038012383401A40934292
:1016A0000BD0012303FA00F0054BC3F80001002022
:1016B000704701207047002070470020704700BF2E
:1016C00000040E40222820D81F280DD8124B9A69FA
:1016D000012383401A40934219D1012303FA00F0F9
:1016E0000D4B5861002070470B4BD3F80821203870
:1016F000012383401A4093420BD1012303FA00F0E7
:10170000054BC3F8040100207047012070470020FA
:1017100070470020704700BF00040E40000200F434
:10172000706242F00102014B9A63704700040E4060
:101730008022014B1A60704700040E40034B1A6F61
:10174000C0F3120002431A67704700BF00040E4046
:10175000024B187880F00100704700BF880B002012
:101760008901022343507047034658BB184A127838
:101770002AB3EFF3108172B6BFF35F8F154A107072
:10178000154A907801389070C9B90121114A117039
:10179000BFF35F8F62B612E0EFF3108172B6BFF352
:1017A0005F8F00200B4A10700B4A907801309070C8
:1017B00029B90121074A1170BFF35F8F62B6044A4D
:1017C00013707047024A1278002AE5D0F7E700BF8D
:1017D000C80B0020B0000020300C0020034A00237A
:1017E000136153619381024A137070473C0C0020CF
:1017F000CD0B002082B005220E4B1A700E4B1A6BD7
:101800000092009A42F04F020092009A42F02002A9
:101810000092009A1A6300230193019B132B06D8B0
:1018200000BF019B01330193019B132BF8D902B038
:10183000704700BFCD0B00200040034082B0032260
:101840000E4B1A700E4B1A6B0092009A42F04F0228
:101850000092009A42F010020092009A1A6300234C
:101860000193019B132B06D800BF019B0133019309
:10187000019B132BF8D902B0704700BFCD0B00209D
:101880000040034008B5024B1B6903B1984708BDEF
:101890003C0C002070B58AB0754B1B78032B1DD112
:1018A000744B1A6B0092009A42F04F020092009A19
:1018B00022F001020092009A1A6300230193019B17
:1018C000132B06D800BF019B01330193019B132BFF
:1018D000F8D9694B9847694B9847C6E0684B1B8815
:1018E000684A9489E41AA4B2002C33D1664A11885C
:1018F0000B449BB21380634AD2889A4202D0634B56
:101900001B78EBB104225A4B1A705A4B1A6B029295
:10191000029A42F04F020292029A22F001020292CF
:10192000029A1A6300230393039B132B00F29D80FA
:1019300000BF039B01330393039B132BF8D994E05F
:10194000504B5B696BB1984758B100224C4B1A80E1
:101950004C4B9C893F2C04D900224C4B1A704024DC
:1019600002E00122494B1A70464B9968444B1E888D
:10197000EFF31080D0F1010038BF002072B6BFF342
:101980005F8F0022424B1A703A4B1B6B13F0020F11
:1019900001D124BB2DE028B101223D4B1A70BFF3C9
:1019A0005F8F62B60422324B1A70324B1A6B04926C
:1019B000049A42F04F020492049A22F00102049227
:1019C000049A1A6300230593059B132B4DD800BF7F
:1019D000059B01330593059B132BF8D945E0314452
:1019E0000B46244D13F8012B2A655A1AD2B2A24293
:1019F000F8D33444224B1C801E4B1A6B0692069A75
:101A000042F04F020692069A42F010020692069A9F
:101A10001A6300230793079B132B06D800BF079B6D
:101A200001330793079B132BF8D9124B1A6B0892BB
:101A3000089A42F04F020892089A22F00102089296
:101A4000089A1A6300230993099B132B06D800BF39
:101A5000099B01330993099B132BF8D928B1012263
:101A60000B4B1A70BFF35F8F62B60AB070BD00BF38
:101A7000CD0B00200040034085184000DD174000DA
:101A8000CA0B00203C0C00208A0B0020CC0B00204D
:101A9000B000002038B50346447C14F0100F15D078
:101AA000447C6FF30414447404687CB102F10C05A7
:101AB000074850F8250010F4806F18BF42F08002EC
:101AC000012914BF002001209968A04738BD00BF3C
:101AD0000040034084B0421E02EB82022F4B03EB16
:101AE0008202830003F1402303F54033196B01F0B8
:101AF000420142290ED0196B11F0020F04D0517C23
:101B00006FF38301517409E0517C012060F383017C
:101B1000517424E0517C11F00C0F20D1196B00910D
:101B2000009941F04F010091009921F002010091CC
:101B30000099196300230193019B132B06D800BF62
:101B4000019B01330193019B132BF8D918B3032890
:101B500021D0537C012161F3830353741BE0196B83
:101B60000291029941F04F010291029921F0400146
:101B700002910299196300230393039B132B06D848
:101B800000BF039B01330393039B132BF8D9537CB2
:101B90006FF38303537404B0704700BF8C0B0020B5
:101BA0002DE9F00783B00746461E06EB8606524B2A
:101BB00003EB8606737CC3F3810320B1032814BFB3
:101BC0000222012200E001229A4240F38980F36858
:101BD000B268934204D3747C14F0400F00F082800A
:101BE00074681C44C3EB0209328AC2F309029145AE
:101BF00026BF91464FF000084FF001084B44F360B8
:101C0000B9F1070F26D92346A9F1080A4FEADA0AE3
:101C100004F1080C0CEBCA0C820002F1402202F520
:101C200040321D7815655D7815659D781565DD7800
:101C300015651D7915655D7915659D791565DD79E4
:101C4000156508336345ECD10AF1010A04EBCA04B7
:101C500009F00709B9F1000F09D0A144274D14F884
:101C6000012B07F1140345F823204C45F7D1737C71
:101C7000C3F38102013262F383037374E1B1800024
:101C800000F1402000F54030036B0093009B43F0CF
:101C90004F030093009B43F010030093009B0363EA
:101CA00000230193019B132B06D800BF019B013336
:101CB0000193019B132BF8D9B8F1000F03D0737C6B
:101CC0006FF386137374F268B3689A420CD3737C13
:101CD00013F0400F0AD143F080037374002006E034
:101CE000012004E0002002E0012000E0012003B018
:101CF000BDE8F007704700BF8C0B00200040034098
:101D00002DE9F047B0B0944B984760B9934BDB692D
:101D100013F4807F07D172B6BFF35F8F0022904B20
:101D20001A7000F015BD22208E4B98478B4B9B6993
:101D300013F4006F0CD0894BDB6913F4006F07D0EC
:101D40004FF40062854B1A62874B984700F000BD44
:101D5000824BDB6913F0010F00F0F1817F4B1B6BAD
:101D600013F0040F00F0C080804B1B781BB1804B38
:101D70009847804B9847794B1B6BC3F30A43082B5A
:101D80001CD0764B1A6B0292029A42F04F020292DA
:101D9000029A22F004020292029A1A630023039329
:101DA000039B132B06D800BF039B01330393039BB4
:101DB000132BF8D9704B984700F0CABC6F4B03F156
:101DC000080066490A6D03F8012F8342FAD16C4B73
:101DD0009847E0B9614B1A6B0492049A42F04F02A3
:101DE0000492049A22F004020492049A1A630023D3
:101DF0000593059B132B06D800BF059B0133059364
:101E0000059B132BF8D95C4B984700F0A1BC5D4BA8
:101E100093F90030002B3DDA504B1A6B0692069A6C
:101E200042F04F020692069A42F080020692069A0B
:101E30001A6300230793079B132B06D800BF079B49
:101E400001330793079B132BF8D9444B1A6B089265
:101E5000089A42F04F020892089A22F0040208926F
:101E6000089A1A6300230993099B132B06D800BF15
:101E7000099B01330993099B132BF8D90023424A8C
:101E80001380424A13800222384B1A70404B984705
:101E900000F05EBC314B1A6B0A920A9A42F04F0274
:101EA0000A920A9A22F004020A920A9A1A630023FA
:101EB0000B930B9B132B06D800BF0B9B01330B938B
:101EC0000B9B132BF8D92F4BDB881BB9314B984751
:101ED00000F03EBC00232C4A13802C4A13800122C0
:101EE000224B1A7000F034BC1C4B1B6B13F0010F1B
:101EF00003D0274B984700F02BBC184B1B6B13F0FB
:101F0000020F00F01781194B1B78012B44D0022BD4
:101F100001D0042B02D1164B984701E0164B98478D
:101F20000E4B1A6B0C920C9A42F04F020C920C9AC8
:101F300022F002020C920C9A1A6300230D930D9B5F
:101F4000132B06D800BF0D9B01330D930D9B132B54
:101F5000F8D9084B9847FBE3511740000040034075
:101F6000B00000206D164000250F4000CD0B002072
:101F700085184000DD174000F51740003B0C00209D
:101F8000610F40003C0C00208A0B0020CA0B00208F
:101F9000951840003D184000904B196BC1F30A4161
:101FA0008F4B9B898F4A15886A189342AEBF89B2BE
:101FB000C5EB030399B28A4B98682844A9B103463C
:101FC000864C226D03F8012B1A1AD2B28A42F8D33A
:101FD0000D44ADB2834B1D80402906D1804BDA8879
:101FE000814B1B882B449A423EDC7D4B9D815B6973
:101FF000F3B19847E0B97D4B9847784B1A6B0E9236
:102000000E9A42F04F020E920E9A22F002020E92A7
:102010000E9A1A6300230F930F9B132B00F29883E1
:1020200000BF0F9B01330F930F9B132BF8D98FE346
:102030006A4B1A6B1092109A42F04F021092109A4B
:1020400022F002021092109A1A6300231193119B3E
:10205000132B06D800BF119B01331193119B132B37
:10206000F8D9634B984773E35D4B9B89AB4246D1EC
:102070005B4B5B69E3B95D4B9847584B1A6B129207
:10208000129A42F04F021292129A22F00202129217
:10209000129A1A6300231393139B132B00F2588395
:1020A00000BF139B01331393139B132BF8D94FE3FA
:1020B0009847E0B94D4B9847484B1A6B1492149AC5
:1020C00042F04F021492149A22F002021492149ACF
:1020D0001A6300231593159B132B00F2398300BF5D
:1020E000159B01331593159B132BF8D930E33E4A0A
:1020F0003C4B188811880144118000221A80374B0C
:102100001A6B1692169A42F04F021692169A22F005
:1021100002021692169A1A6300231793179B132B29
:1021200000F2168300BF179B01331793179B132BE5
:10213000F8D90DE3294B1B6B13F0080F06D1DFF81C
:10214000B4C064460123254A1E461AE0234B1A6B8D
:102150000092009A42F04F020092009A22F0080288
:102160000092009A1A6300230193019B132B00F243
:10217000EF8200BF019B01330193019B132BF8D920
:10218000E6E25FFA83F891691F4606FA03F50D420D
:1021900000F0F181A146990001F1402101F54031A3
:1021A000086B10F0420F44D0A268E368B4F810A0A6
:1021B000CAF3090A606818440C460E6BC6F30A4657
:1021C000002E00F0B682D11AB14200F2A982C9F8FD
:1021D0000C20002940F0AA82B6E200BF0040034074
:1021E0003C0C0020CA0B00208A0B0020F517400091
:1021F0003D1840008C0B0020226DC25401338B42ED
:10220000FAD34046954B984717B9B24540F2A082A1
:10221000236B13F0200F40F09B82914B5D61D9F846
:102220000C30C9F808304846002142468D4B98478B
:102230008EE2086B10F0010F00F07381637CC3F332
:102240008102033202F0030262F38303637413F02A
:10225000200F74D0002A36D0BA0002F1402202F5D5
:102260004032136B1893189B43F04F031893189B3D
:1022700043F010031893189B136300231993199BC1
:10228000132B06D800BF199B01331993199B132BED
:10229000F8D9136B1A931A9B43F04F031A931A9BA6
:1022A00023F001031A931A9B136300231B931B9BB8
:1022B000132B00F24D8200BF1B9B01331B931B9B12
:1022C000132BF8D944E2BA0002F1402202F5403261
:1022D000136B1C931C9B43F04F031C931C9B23F01C
:1022E00001031C931C9B136300231D931D9B132B45
:1022F00006D800BF1D9B01331D931D9B132BF8D9DE
:10230000136B1E931E9B43F04F031E931E9B43F0C3
:1023100020031E931E9B136300231F931F9B132BED
:1023200006D800BF1F9B01331F931F9B132BF8D9A7
:1023300099F811306FF3451389F8113008E2637C86
:10234000DB090AD0637C6FF3C7136374E368A3608F
:10235000204600214246434B9847D9F80C20D9F833
:1023600008309A4234D399F8113013F04C0F2FD122
:10237000EFF3108372B6BFF35F8F00213A4A1170FA
:10238000374A55612BB90122374B1A70BFF35F8F63
:1023900062B6BB0003F1402303F540331A6B209271
:1023A000209A42F04F022092209A22F001022092BD
:1023B000209A1A6300232193219B132B00F2C881DA
:1023C00000BF219B01332193219B132BF8D9BFE13F
:1023D000B8F1000F00F08280B8F1030F7ED099F8B9
:1023E000113013F00C0F43D0BA0002F1402202F575
:1023F0004032136B2293229B43F04F032293229B84
:1024000043F010032293229B136300232393239B07
:10241000132B06D800BF239B01332393239B132B3D
:10242000F8D9136B2493249B43F04F032493249BEC
:1024300023F001032493249B136300232593259BFE
:10244000132B06D800BF259B01332593259B132B07
:10245000F8D940460021054B984779E1D51A40004C
:1024600000400340951A4000B0000020A11B40002E
:1024700040460121674B984770B999F811306FF3C6
:10248000C71389F81130D9F80C30C9F8083048461C
:1024900000214246604B9847BB0003F1402303F5FF
:1024A00040331A6B2692269A42F04F022692269AC1
:1024B00022F001022692269A1A6300232793279B73
:1024C000132B06D800BF279B01332793279B132B81
:1024D000F8D9404600214F4B984739E14046012149
:1024E0004C4B9847BB0003F1402303F540331A6B74
:1024F0002892289A42F04F022892289A22F001024C
:102500002892289A1A6300232993299B132B00F2FF
:102510001F8100BF299B01332993299B132BF8D9D5
:1025200016E1096B11F0080F25D09A0002F1402244
:1025300002F54032136B2A932A9B43F04F032A93F0
:102540002A9B23F008032A932A9B136300232B93CF
:102550002B9B132B06D800BF2B9B01332B932B9B5C
:10256000132BF8D9136B03F4E063B3F5807F00F00D
:10257000EF80136BECE001331434042B7FF401AED5
:10258000DBE0264BDB6913F4005F13D1234B9B691F
:1025900013F4007F04D0214BDB6913F4007F09D1D1
:1025A0001E4B9B6913F4806F14D01C4BDB6913F432
:1025B000806F0FD0194C4FF41853236263610120D0
:1025C000174B98474FF48073236223614FF40063E5
:1025D0002361BDE0114B9B6913F4807F24D00F4B26
:1025E000DB6913F4807F1FD00C4B4FF480721A62AA
:1025F0005A614FF400521A614FF400721A614FF49D
:1026000080621A612220074B98470020044B9847AC
:102610009EE000BFA11B4000951A4000004003400F
:1026200069174000C51640004B4BDB6913F4805F0F
:1026300000F08E804FF48052474B1A6265460024AA
:102640000127464E0134E4B2284639462246B047B7
:102650001435032CF6D1424B98473F4B5A6822F071
:1026600001025A605A6822F002025A609A6842F4E3
:1026700080729A609A6822F07F029A601A6B2C929C
:102680002C9A42F04F022C922C9A22F4074222F00C
:1026900080022C922C9A42F400422C922C9A1A63BB
:1026A00000232D932D9B132B06D800BF2D9B0133A8
:1026B0002D932D9B132BF8D9274B1A6B2E922E9A04
:1026C00042F04F022E922E9A42F400422E922E9AFF
:1026D0001A6300232F932F9B132B06D800BF2F9B29
:1026E00001332F932F9B132BF8D9EFF3108372B67E
:1026F000BFF35F8F00211B4A11700121164A11613F
:1027000023B9184B1970BFF35F8F62B6164B984709
:10271000114B4FF480721A614FF400621A6117E096
:102720003344C9F80C303146002700E0012700236C
:1027300062E540460D4B984767E5074B9B6913F4EC
:10274000005F7FF41EAF21E74046084B98475FE5E6
:1027500030B0BDE8F08700BF00400340951A40004C
:10276000DD0E4000B0000020DD174000D51A40000B
:1027700010B5EFF3108472B6BFF35F8F0022144BD5
:102780001A700120134B98472220134B9847134B84
:102790005A6F22F480725A675A6F42F400725A6775
:1027A0004FF480721A614FF400521A614FF40072B4
:1027B0001A614FF480621A614FF400621A612CB9F9
:1027C0000122034B1A70BFF35F8F62B610BD00BFCA
:1027D000B0000020691740006D1640000040034023
:1027E00038B5EFF3108472B6BFF35F8F0025214B2D
:1027F0001D702220204B9847204B9847204B502299
:1028000083F8222304225A602B461E489900CA18D6
:1028100000EB8202527C194400EB810102F083023A
:102820006FF3C7124A740133032BEFD14FF48020AA
:10283000154B98470022154B1A70EFF3108272B6B1
:10284000BFF35F8F00210B4B1970114BD978013109
:10285000D9702AB90122074B1A70BFF35F8F62B695
:102860000C4B98472CB90122024B1A70BFF35F8FB3
:1028700062B638BDB00000206D164000490540002A
:1028800000E100E08C0B00203D174000C80B002049
:10289000300C002071274000002070470C4B5A6814
:1028A00022F001025A609A6822F480729A6070B134
:1028B000996800F07F0221F07F010A439A609A68CC
:1028C00042F480729A605A6842F001025A6070477E
:1028D00000400340054B5B6813F0010F04D0034B2D
:1028E000986800F07F007047002070470040034068
:1028F000024B1868C0F30A00704700BF0040034055
:1029000000207047014B9860998170473C0C002073
:1029100070B483B000F00F03032B66D89C0004F161
:10292000402404F54034256B15F4004F5FD101F0CD
:102930000305012D03D1002B5BD0032B5BD01D1FA2
:10294000EDB2012D8CBF40254FF40075954254DB4C
:102950005D1E05EB85052D4E06EB85052E8A62F37F
:1029600009062E826A7C02F07F026FF345126A74B8
:10297000C00903D0D2B26FF383026A74244A956A05
:10298000012606FA03F31D439562956A25EA0303BF
:102990009362236B0093009B43F04F030093009BD3
:1029A00023F4074323F08003009338B141F004027D
:1029B000120202F4E06242F4004204E00A0202F46D
:1029C000E06242F40042009B13430093009B2363A8
:1029D00000230193019B132B11D800BF019B0133EE
:1029E0000193019B132BF8D90BE000200AE0002093
:1029F00008E0002006E0002004E0002002E00120C2
:102A000000E0012003B070BC704700BF8C0B0020B9
:102A10000040034008B500F00F02032A11D89300CC
:102A200003F1402303F54033196B21F4004119638E
:102A3000501E00EB8000034B03EB80000121024B92
:102A4000984708BD8C0B0020951A400000F00F003D
:102A5000032815D8431E03EB83030A4A02EB8303C2
:102A60005B7C13F0200F09D10C30074B53F820305A
:102A700013F0280F0CBF0020012070470120704781
:102A8000002070478C0B00200040034010B483B03E
:102A900000F00F02032A5FD8EFF31081D1F101019A
:102AA00038BF002172B6BFF35F8F00242F4B1C701C
:102AB00010F0800F25D0531E03EB83032C4800EB4E
:102AC000830302F10C042B4850F8240010F0100F7F
:102AD00004D1587CC0F38100012812DD587C40F0FD
:102AE00020005874012303FA02F2224B1A610029D4
:102AF00034D001221D4B1A70BFF35F8F62B60120E4
:102B00002FE0930003F1402303F54033186B00904E
:102B1000009840F04F000090009840F02000009096
:102B20000098186300230193019B132B06D800BF64
:102B3000019B01330193019B132BF8D9012303FA65
:102B400002F20C4B1A6159B10122084B1A70BFF303
:102B50005F8F62B6012004E0002002E0012000E067
:102B6000012003B05DF8044B704700BFB0000020A7
:102B70008C0B002000400340F0B585B000F00F0042
:102B8000032859D8304C431E03EB83039D00611981
:102B90004B7C6FF345134B74820002F1402202F527
:102BA0004032136B13F0200F48D0136B0093009B3F
:102BB00043F04F030093009B23F020030093009BFE
:102BC000136300230193019B132B06D800BF019BC5
:102BD00001330193019B132BF8D91C4B9E6A0127EB
:102BE00007FA00F006439E629E6A26EA0000986299
:102BF000136B0293029B43F04F030293029B23F05B
:102C000008030293029B136300230393039B132B7C
:102C100006D800BF039B01330393039B132BF8D902
:102C20004B7C13F0100F0BD04B7C6FF304134B74E1
:102C300063599847012004E0002002E0012000E0F1
:102C4000012005B0F0BD00BF8C0B00200040034008
:102C50002DE9F04700F00F04032C00F28980A50055
:102C600005F1402505F540352E6B16F4004F00F0B8
:102C70008280DFF82CC1661E06EB8606B7000CEBDF
:102C8000070696F8118018F0200F77D1D5F830801C
:102C900018F0200F75D1EFF31088D8F1010A38BF72
:102CA0004FF0000A72B6BFF35F8F4FF00009DFF8F4
:102CB000E48088F8009096F8118018F0100F0BD07F
:102CC000BAF1000F60D00122324B1A70BFF35F8F50
:102CD00062B60020BDE8F08796F8118048F0100831
:102CE00086F81180BAF1000F08D04FF00109DFF823
:102CF000A48088F80090BFF35F8F62B67260B36003
:102D00000022F260089A4CF8072021B9D3F10102A1
:102D100038BF002200E00122737C62F386136FF358
:102D2000C7137374EFF3108672B6BFF35F8F002280
:102D3000184B1A700122A240174B1A6110F0800F35
:102D40000CD02B6B13F0110F08D120460121134B2F
:102D5000984718B120460021104B9847BEB9012270
:102D60000C4B1A70BFF35F8F62B60120BDE8F0878D
:102D70000020BDE8F0870020BDE8F0870020BDE816
:102D8000F0870020BDE8F0870020BDE8F087012033
:102D9000BDE8F087B000002000400340A11B4000C8
:102DA0008C0B0020F0B585B000F00F04032C00F26E
:102DB0009080EFF3108372B6BFF35F8F0021464A15
:102DC00011700126A640454A56612BB90122424B9B
:102DD0001A70BFF35F8F62B610F0800F09D1A500A3
:102DE00005F1402505F540352B6B13F0420F57D107
:102DF0005DE0A30003F1402303F540331A6B12F0AA
:102E0000100F2AD08CB1032C0FD01A6B22F01002B5
:102E10001A631A6B12F0100FFBD11A6B42F01002FA
:102E20001A631A6B12F0100FFBD01A6B0092009A03
:102E300042F04F020092009A22F010020092009A93
:102E40001A6300220192019A132A06D800BF019A40
:102E500001320192019A132AF8D91A6B0292029A4E
:102E600042F04F020292029A22F001020292029A6A
:102E70001A6300230393039B132B06D800BF039B05
:102E800001330393039B132BF8D9631E03EB8303D6
:102E9000134A02EB83035A7C6FF383025A7406E0F1
:102EA000104F2046B8472B6B13F0420FF9D10B4B54
:102EB0009A6A32439A629A6A22EA06069E62601E03
:102EC00000EB8000064B03EB800001212246064BFD
:102ED000984705B0F0BD00BFB0000020004003409F
:102EE0008C0B0020D51A4000951A40004FF4004387
:102EF00043607047FEE700BF10B51E4B1E4A9A4262
:102F000003D01E4B1B4A9A4204D31D4B1D4A9A42C2
:102F10000FD31AE01C4B1D4CE41A24F003040434B4
:102F20000023144814495A581A500433A342FAD1C2
:102F3000EBE7174B1749C91A21F003011A1D114479
:102F4000002243F8042F8B42FBD1134A22F0604346
:102F500023F07F0311498B6002F16042B2F5404FCC
:102F600003D28A6842F000528A600D4B98470D4B9D
:102F70009847FEE700000020847E4000780900208A
:102F8000580C002078090020040000207B09002054
:102F900074090020530C00200000400000ED00E008
:102FA00079314000353140003D4B1B6B03F003038A
:102FB000032B5DD8DFE803F0020E2B2B394B5B6946
:102FC00013F0800F14BF4FF400424FF4FA42364B17
:102FD0001A604DE0324B1B6A13F0807F03D0334AF6
:102FE000314B1A6044E0324A2F4B1A602C4B1B6A5B
:102FF00003F07003102B02D0202B04D038E02D4AB0
:10300000294B1A6034E0294A274B1A6030E0244BE0
:103010001B6A13F0807F03D0244A234B1A6012E00E
:10302000234A214B1A601E4B1B6A03F07003102BBE
:1030300002D0202B04D006E01E4A1B4B1A6002E08F
:103040001A4A194B1A60164B1B6B03F00303022B31
:10305000134B07BF986A996AD86AD96A124BC0F3B2
:103060000A401A6800FB0222C9B2B2FBF1F21A60F0
:103070000B4B1B6B03F07003702B07D10A4B1A68C4
:103080000D49A1FB020252081A607047044B196BEC
:10309000054BC1F302111A68CA401A60704700BF9D
:1030A00000040E4010140E40B4000020001BB700B6
:1030B00000093D0000127A00ABAAAAAA0C4B984264
:1030C00003D800220B4B1A6070470B4B984204D870
:1030D0004FF48072074B1A607047084B984294BFB8
:1030E0004FF400724FF44072024B1A60704700BFF9
:1030F0003F660301000A0E407FC3C9017FF9370311
:10310000094B1B6813B9094A074B1A60064B1B6829
:103110001A180749914204DB1046034A106018460A
:1031200070474FF0FF307047D00B0020582C002024
:10313000FCBF002008B5074B9847074B9847074B43
:103140009847074E4BF29325064CB0472846A047B8
:10315000FBE700BFED04400099054000D10E4000A0
:10316000950240000100002000210A2200F022B94F
:1031700000220A2300F09CB870B50E4B0E4D0024BF
:10318000ED1AAD101E46AC4204D056F824209047EC
:103190000134F8E704F060FE084D094B0024ED1AF5
:1031A000AD101E46AC4204D056F82420904701349E
:1031B000F8E770BD647E4000647E40006C7E400095
:1031C000647E400010B50023934203D0CC5CC4540D
:1031D0000133F9E710BD02440346934202D003F8DD
:1031E000011BFAE7704700000CB410B59CB01EAB91
:1031F000029106916FF0004153F8042B049107915E
:103200004FF6FF71ADF816104FF4027402A9019346
:10321000ADF8144000F0DCF8029B00221A701CB0DC
:10322000BDE8104002B070470EB400B54FF4027113
:103230009CB0ADF814106FF00041049107914FF667
:10324000FF711DABADF81610084953F8042B02901E
:103250000690086802A9019300F0BAF8029B0022C8
:103260001A701CB05DF804EB03B07047B800002082
:10327000034613F8012B002AFBD1181A01387047B6
:1032800070B503780A468BB1064610F8014B3CB185
:103290000B461A4613F8015B002DF5D0AC42F8D16D
:1032A0001378002B14BF3046002070BD184670BD47
:1032B00084463F482DE9F04FD0F800800E46344652
:1032C00014F8015B08EB0500407800F0080000F0FE
:1032D000FF0708B12646F2E72D2D03D1B41C7578FF
:1032E000012703E02B2D04BF7578B41C33F01000C8
:1032F0000DD1302D08D1207800F0DF00582851D1B1
:1033000065781023023402E0002B08BF0A23002F47
:103310000CBF6FF0004A4FF0004ABAFBF3F903FB11
:1033200019AA0026304608EB050B9BF801B01BF0EC
:10333000040F01D0303D0BE01BF0030B1BD0BBF1A1
:10334000010F14BF4FF0570B4FF0370BCBEB0505B8
:103350009D4210DAB6F1FF3F0AD0484506D801D1A8
:10336000554503DC03FB0050012601E04FF0FF361A
:1033700014F8015BD7E7731C0CD1002F4FF0220328
:103380000CBF6FF000404FF00040CCF800302AB97D
:10339000BDE8F08F07B1404242B106B1611E116035
:1033A000BDE8F08F002B08BF0823B0E7BDE8F08F21
:1033B000E804002030B51346044A05460C46106860
:1033C00029462246BDE83040FFF772BFB800002012
:1033D0002DE9F04FC3B08B4698460B92824601F020
:1033E0002BFF00681890FFF743FFBBF80C301090DC
:1033F000190615D5DBF8103093B95046402101F07D
:103400002DFFCBF80000CBF8100030B90C23CAF820
:1034100000304FF0FF3000F06EBF4023CBF8143087
:1034200000240025CDE90C45002332AE25962793D4
:10343000269309931B931A930F930B9B1C4613F827
:10344000012B1AB90B98251A03D11BE0252AF5D1B7
:10345000F8E7279B0B992B442793269B86E82200AD
:103460000133072B269301DC083608E05046594605
:1034700025AA02F0F7FE002840F0358732AE0F9AF9
:103480002A440F922378002B00F026870023013472
:103490008DF877304FF0FF390E931F46651C247866
:1034A0000B950894089CA4F12002582A00F2858309
:1034B000DFE812F06D00830383037100830383034D
:1034C00083038303830383035B0059008303770033
:1034D0007A0083039F00A200A200A200A200A20023
:1034E000A200A200A200A20083038303830383033C
:1034F000830383038303830383038303D300FE00D7
:103500008303FE008303830383038303B6008303E3
:1035100083036B0283038303830383038303BB025D
:103520008303830368008303830383038303830389
:1035300083038303830383038303C9006500FE00C1
:10354000FE00FE00B900650083038303BC00830313
:103550004C026D028C02C60083039E028303BD02EF
:1035600083038303D8022B2307E0D8F8005008F127
:103570000402002D0E9511DB90460B9C8EE78DF812
:1035800077306EE0AB4C8DF877301B946EE2002BF9
:1035900008BF2023F1E747F00107EEE76D420E95E3
:1035A000904647F00407E8E70B9C2578621C2A2D1B
:1035B000089502D04FF000090BE0D8F8009008F110
:1035C0000401B9F1000F88460B92D6DA4FF0FF39AB
:1035D000D3E7089DA5F13001092906D812F8014B5F
:1035E0000A2000FB09190894F3E749EAE9790B92EC
:1035F00058E747F08007C0E700240E94089D0E9C12
:10360000A5F130020A2101FB04240B9A0E9412F852
:10361000015BA5F1300109290895E8D80B92EDE787
:1036200047F00807A9E747F04007A6E70B9C227878
:103630006C2A02D101340B9402E047F010079CE79A
:1036400047F0200799E7D8F8003000258DF8A03022
:103650008DF8775008F10408BAE28DF8773047F01A
:103660001007BA0608D508F1070828F0070303F188
:103670000808D3E900450FE017F0100F08F1040324
:1036800002D0D8F8004005E0D8F8004017F0400F0D
:1036900018BF24B2E5179846002C75F1000180F29E
:1036A00010822D23644265EB45058DF8773008E2E2
:1036B000089C08F107088DF877300A9728F007036F
:1036C0001194D3E90045CDE90C45DDE90C0103F186
:1036D000080802F08BFD0128DDE90C0114D100225D
:1036E000002303F0CFFE10B12D238DF87730089D15
:1036F000514B524A27F08007472DD8BF1A460792F0
:103700004FF0030900256AE202F070FD58B94C4BF6
:103710004C4A089C27F08007472CD8BF1A460792CE
:103720004FF003095AE2B9F1FF3F0AD0089D25F096
:103730002003472B07D1B9F1000F08BF4FF0010953
:1037400001E04FF00609DDE90C23002B47F48077F8
:1037500008DA0D990C9801F100412D241290139173
:10376000199405E0DDE90C45CDE9124500251995D0
:10377000089D25F02004462C04D0452C05D109F1E4
:10378000010503E04D46032301E04D4602238DE889
:1037900028001FAB029320AB039323AB0493504646
:1037A000DDE9122300F04BFE472C07900AD10A985E
:1037B000C30707D4239B079D472CC5EB030309933D
:1037C00042D12DE0DDF81CC0462CAC4413D1079843
:1037D0000378302B0DD1DDE9120100220023CDF852
:1037E00018C003F045FEDDF818C010B9C5F1010599
:1037F0001F951F9B9C44DDE9120100220023CDF898
:1038000018C003F035FEDDF818C008B1CDF88CC043
:10381000239B6345CED25A1C239230221A70F7E7BD
:103820001F9BDC1C01DB4B456EDD089C023C0894B1
:103830000DE000BFD67B4000C67B4000CA7B400045
:10384000CE7B4000D27B4000089D652D43DC1F9B52
:10385000089C013B002B1F93BABF5B422D222B22F9
:10386000092B8DF884408DF885201DDD0DF1920225
:103870000A2093FBF0F100FB1133092903F1300317
:10388000144602F801390B46F2DC01F1300304F86A
:10389000013D0DF186030DF1930294420BD214F811
:1038A000012B03F8012BF6E7302213448DF8873003
:1038B0008DF8862022AB099D21AA9A1A9146012DE6
:1038C0001A92A94403DC0A9D15F0010437D009F1CE
:1038D0000109002433E0089C662C15D11F9B002BA6
:1038E00009DDB9F1000F02D10A9DE80723D509F1DE
:1038F00001094B441FE0B9F1000F02D10A9CE10716
:1039000015D509F1020316E01F9B099DAB4204DBAC
:103910000A9CE2070DD5013306E0002B099CD4BFB9
:10392000C3F10203012323446725119503E001231A
:1039300001E067241194119D1F9C08959946199DDB
:1039400015B12D238DF87730002549E117F0200FB0
:103950008DF8773008F1040108D00F9CD8F80000EA
:10396000E51722462B46C0E900230CE0FB0606D4EF
:103970007D0604D5D8F800300F9C1C8003E0D8F8F1
:1039800000300F9D1D60884657E547F0100717F07F
:10399000200309D008F1070828F0070303F10808FD
:1039A000D3E90045002388E017F0100108F1040274
:1039B00007D117F0400304D0B8F800400025904626
:1039C000F0E7D8F800400025904676E0A94830237B
:1039D0007822D8F800408DF87830002547F00207AB
:1039E0008DF8792008F104081B900223089264E006
:1039F000434600251B68A945079308F104088DF884
:103A000077500DDB184629464A4601F02FFE002864
:103A100000F0E480079C001B4845B8BF8146DEE00B
:103A20000798FFF725FC8146D9E047F01007BC0650
:103A300008D508F1070828F0070303F10808D3E9BF
:103A400000450DE017F0100F08F1040304D17806CB
:103A500002D5B8F8004001E0D8F8004000259846AB
:103A600001232AE0834D8DF877301B95B90608D5E0
:103A700008F1070828F0070303F10808D3E9004517
:103A80000DE017F0100F08F1040304D17A0602D5F7
:103A9000B8F8004001E0D8F8004000259846FB0740
:103AA0000AD554EA050007D0089930238DF87830FC
:103AB0008DF8791047F00207022300228DF8772055
:103AC00000E00123B9F1000FA8BF27F0800754EAF6
:103AD000050202D1B9F1000F5AD0012B1FD0022BE1
:103AE0000DF1C70341D0E10841EA4570E90804F04F
:103AF0000702149015913032DDE9144554EA0500AF
:103B000007931A7003F1FF33EDD1F80707994CD5ED
:103B1000302A4AD00793302301F8013C45E0002DBC
:103B200008BF0A2C05D230348DF8C7400DF1C70408
:103B30003AE00DF1C7000A900A99204607910A223F
:103B40002946002303F0EEFC0A9B303203F80129DA
:103B50000A93204629460A22002303F0E3FC044688
:103B60000D4654EA0500E7D11FE01B9904F00F024F
:103B70008A5C079303F80129220942EA05702909A2
:103B800016901791DDE9164554EA0502EDD10CE0D7
:103B900033B9FB0707D542AC302304F8413D03E0BD
:103BA00032AD079501E032AC0794079C4D460DF10C
:103BB000C809C4EB0909002412E0089D8DF877308C
:103BC000002D00F089838DF8A05000258DF87750E6
:103BD00028A84FF001092C46079001E005462C4625
:103BE0009DF87730A945ACBF494629460A910BB1EB
:103BF00001310A9117F00203119302D00A980230A2
:103C00000A9017F08403199341D10E980A99C1EBD9
:103C1000000CBCF1000F3ADD174BBCF1100F336004
:103C20001BDD10237360279B10332793269B0133E2
:103C3000072B269301DC08360CE05046594625AA8E
:103C4000CDF818C002F00EFBDDF818C0002840F0D7
:103C50004A8332AEACF1100CDEE7279BC6F804C0F5
:103C600063442793269B0133072B269306DC0836F3
:103C70000DE000BFE77B4000A67B40005046594660
:103C800025AA02F0EFFA002840F02D8332AE9DF80D
:103C90007730BBB10DF17703336001237360279B4D
:103CA00001332793269B0133072B269301DC08362B
:103CB00008E05046594625AA02F0D4FA002840F000
:103CC000128332AE119BB3B11EAB3360022373601B
:103CD000279B02332793269B0133072B269301DC76
:103CE000083608E05046594625AA02F0BBFA0028DB
:103CF00040F0F98232AE199B802B3CD10E980A9984
:103D0000C1EB000CBCF1000F35DD9C4BBCF1100F7A
:103D100033601BDD10237360279B10332793269B92
:103D20000133072B269301DC08360CE05046594638
:103D300025AACDF818C002F095FADDF818C00028C1
:103D400040F0D18232AEACF1100CDEE7279BC6F812
:103D500004C063442793269B0133072B269301DC81
:103D6000083608E05046594625AA02F07BFA00289A
:103D700040F0B98232AEC9EB0505002D2EDD7F4B38
:103D8000102D336016DD10237360279B10332793AB
:103D9000269B0133072B269301DC083608E05046AA
:103DA000594625AA02F05EFA002840F09C8232AE05
:103DB000103DE4E7279B75601D44269B2795013342
:103DC000072B269301DC083608E05046594625AA01
:103DD00002F048FA002840F0868232AEFD0505D494
:103DE000079C279B86E810024B44DAE0089D652D6E
:103DF00040F3A781DDE90C010022002303F038FB2A
:103E0000002859D05E4B336001237360279B013338
:103E10002793269B0133072B269301DC083608E005
:103E20005046594625AA02F01DFA002840F05B8250
:103E300032AE1F9B099CA34202DBFC0740F10282C9
:103E4000109C279B189D23442793269B35600133A4
:103E5000072B7460269301DC083608E0504659466B
:103E600025AA02F0FFF9002840F03D8232AE099DFC
:103E70006C1E002C40F3E681404B102C336016DDA5
:103E800010237360279B10332793269B0133072B46
:103E9000269301DC083608E05046594625AA02F070
:103EA000E1F9002840F01F8232AE103CE4E7279B86
:103EB00074601C44279434E11F9B002B73DC304B4F
:103EC000336001237360279B01332793269B0133C3
:103ED000072B269301DC083608E05046594625AAF0
:103EE00002F0C0F9002840F0FE8132AE1F9B23B9DA
:103EF000099C14B9F80740F1A581109C279B189DD7
:103F000023442793269B35600133072B7460269347
:103F100001DC083608E05046594625AA02F0A2F90D
:103F2000002840F0E08132AE1F9C6442002C32DD5C
:103F3000124B102C336016DD10237360279B103357
:103F40002793269B0133072B269301DC083608E0D4
:103F50005046594625AA02F085F9002840F0C38151
:103F600032AE103CE4E7279B74601C44269B2794E8
:103F70000133072B269305DC08360CE0B67B4000A6
:103F8000F87B40005046594625AA02F06BF90028FC
:103F900040F0A98132AE079D099C35607460279B73
:103FA00023442793BDE00998079D8146A145A8BFFA
:103FB000A146B9F1000F054415DD279B07994B4435
:103FC0002793269B86E802020133072B269301DC08
:103FD000083608E05046594625AA02F043F9002861
:103FE00040F0818132AE29EAE979C9EB0409B9F1DF
:103FF000000F31DD9A4BB9F1100F336017DD10233C
:104000007360279B10332793269B0133072B26933E
:1040100001DC083608E05046594625AA02F022F98C
:10402000002840F0608132AEA9F11009E2E7279B39
:10403000C6F804904B442793269B0133072B269305
:1040400001DC083608E05046594625AA02F00AF974
:10405000002840F0488132AE1F9B0998079A83429E
:10406000144401DBF90716D5109A279B18991344BD
:104070002793269B31600133072B7260269301DC66
:10408000083608E05046594625AA02F0EBF8002809
:1040900040F0298132AE1F9B09982D1BC31A9D4207
:1040A000A8BF1D46002D14DD279B86E830002B4459
:1040B0002793269B0133072B269301DC083608E063
:1040C0005046594625AA02F0CDF8002840F00B8151
:1040D00032AE1F9B099C25EAE575E31A5D1B002D96
:1040E00040F3B0805E4B102D336016DD10237360FB
:1040F000279B10332793269B0133072B269301DC44
:10410000083608E05046594625AA02F0ABF80028C8
:1041100040F0E98032AE103DE4E7279B75601D4416
:104120002795269B0133072B269340F38A80504620
:10413000594625AA02F096F8002840F0D48032AE05
:1041400080E0099D012D01DCFA076DD50123736024
:10415000279B079C01332793269B34600133072B51
:10416000269301DC083608E05046594625AA02F09D
:1041700079F8002840F0B78032AE109C279B189D3C
:1041800023442793269B35600133072B74602693C5
:1041900001DC083608E05046594625AA02F062F8CC
:1041A000002840F0A08032AEDDE90C01002200239F
:1041B00003F05EF9099D6C1E40B9079D6B1C86E8F3
:1041C0001800279B099C013B234433E0002C34DD7D
:1041D000234B102C336015DD10237360279B1033A5
:1041E0002793269B0133072B269301DC083607E033
:1041F0005046594625AA02F035F8002873D132AE50
:10420000103CE5E7279B74601C442794269B0133F0
:10421000072B269310DD5046594625AA02F022F8B6
:10422000002860D132AE08E00123079D7360279B10
:10423000356001332793E9E7083621AB33601A9CD8
:10424000ACE608367B070DD40F9D0A980E9C279B81
:10425000A042ACBF2D182D190F95002B37D030E0A0
:10426000B67B40000E9D0A982C1A002CECDD234BE7
:10427000102C336014DD10237360279B10332793B9
:10428000269B0133072B269301DC083606E05046B7
:10429000594625AA01F0E6FF28BB32AE103CE6E7FE
:1042A000279B74601C44269B27940133072B26937D
:1042B000CADD5046594625AA01F0D4FF0028C3D0D4
:1042C00011E05046594625AA01F0CCFF58B9002309
:1042D000269332AEFFF7B1B8279B23B1504659461B
:1042E00025AA01F0BFFFBBF80C300F9813F0400F68
:1042F00018BF4FF0FF3043B0BDE8F08FA67B400001
:10430000024B13B1024800F005B8704700000000EE
:10431000A14F4000014600200246034602F00EBCB9
:104320002DE9F74F03690C698046A342C0F28380F0
:10433000013CA20001F1140700F11405914600921E
:1043400057F824602A44019255F824200136B2FB24
:10435000F6F6B944002E3BD04FF0000E3A46284600
:10436000F34652F804CB03681FFA8CFA4FEA1C4C50
:104370000AFB06EA0CFB06FC0CEB1A4C1FFA8AFA45
:10438000CAEB0B0B4FEA1C4E1FFA83FA1FFA8CFC88
:10439000DA44CCEB134C0CEB2A4C1FFA8AFA4AEAAB
:1043A0000C4A4A454FEA2C4B40F804ABD9D9009A45
:1043B000AB586BB9019A131FAB421A4602D8C8F822
:1043C000104005E01268043B002AF8D1013CF3E7F5
:1043D000404601F0A2FB00282BDB01362B460020D3
:1043E00057F804CB1A681FFA8CF1411A1FFA82FAA7
:1043F0004FEA1C4C5144CCEB124202EB214289B2F1
:1044000010144F4541EA024243F8042BE8D955F80D
:10441000242005EB840362B9043BAB421A4602D860
:10442000C8F8104005E01268043B002AF8D1013CAE
:10443000F3E7304600E0002003B0BDE8F08F2DE93F
:10444000F04F016C9BB08246279CCDE9042351B10B
:10445000436C01224B6002FA03F38B6001F058F9C0
:104460000023CAF840300598002805DA012320F01F
:1044700000412360059101E000232360059F9C4AD1
:1044800027F000431B0D1B0593421DD1269A42F2D3
:104490000F731360049B43B9964B974AC7F31300FD
:1044A00000280CBF1046184600E09248289F002FB5
:1044B00000F06F85C37813B100F1080300E0C31C5E
:1044C000289F3B6000F065BDDDE9044500222046E1
:1044D0002946002302F0CCFF804658B1269F0123D5
:1044E0003B60289F002F00F05185844838600138D8
:1044F00000F04FBD19AB009318AB01935046224614
:104500002B4601F0FAFBC7F30A5683465EB1C5F3AA
:10451000130343F07F51204641F44011A6F2FF36C9
:10452000CDF854801CE0199B189E1E446FF48263E2
:104530009E4209DB04991F3306F212409B1B21FAAD
:1045400000F09F40384304E06D48049A801B02FA53
:1045500000F002F0AFFC0127A1F1F871013E1597C0
:104560000022684B02F068FB5BA3D3E9002302F052
:1045700017FD5BA3D3E9002302F060FB044630463D
:104580000D4602F0A7FC58A3D3E9002302F008FD72
:1045900002460B462046294602F050FB04460D46D3
:1045A00002F098FF2946814600222046002302F0AF
:1045B00069FF58B1484602F08DFC02460B46204682
:1045C000294602F055FF08B909F1FF39B9F1160F74
:1045D0000DD84D4B03EBC903D3E90001DDE90423FA
:1045E00002F06EFF30B109F1FF39002700E001272A
:1045F000149700E01490189B9E1B013E0A9604D568
:104600007742089700270A9701E000270897B9F139
:10461000000F07DB0A9FCDF844904F440A9700270C
:104620000E9708E0089FC9EB07070897C9F1000734
:104630000E9700271197249F092F29D8052FC4BF53
:10464000043F2497249FC8BF0024A7F10203D8BFCA
:104650000124032B21D8DFE803F0060F0204012711
:1046600002E0012709E000270F97259F002F1EDD9C
:104670000B9707973B461FE000270F97259F4F4456
:104680000B9701373B460797012BB8BF012313E077
:104690000124002724970F9401E001270F974FF082
:1046A000FF370B97079700271223259704E0012770
:1046B0000B9707973B4625970022CAF8442004220F
:1046C00002F11401994221D8DAF844105200013164
:1046D000CAF84410F4E700BF61436F63A787D23F75
:1046E000B3C8608B288AC63FFB799F501344D33FE1
:1046F0000000F07F047D4000FB7C4000F97B40001F
:10470000EEFBFFFF0000F83F207D40005046DAF846
:10471000441000F0D7FF079F09900E2FCAF8400001
:1047200000F26A81002C00F06781B9F1000FDDE929
:104730000401CDE9120131DD804A09F00F0302EBDB
:10474000C3034FEA2914D3E90001CDE90C01E006C7
:104750000CD5DDE912017A4B04F00F04D3E90823EC
:1047600002F048FD0327CDE9040100E00227744D63
:104770006CB1E10708D5DDE90C01D5E9002302F0B1
:104780000FFCCDE90C01013764100835F0E7DDE9D5
:104790000401DDE90C2302F02DFD1BE0C9F100044A
:1047A000DCB1664B04F00F0203EBC203DDE912013A
:1047B000D3E9002302F0F4FB614D241102274CB130
:1047C000E20704D5D5E90023013702F0E9FB6410C4
:1047D0000835F4E7CDE9040100E002271499E9B1B6
:1047E000DDE90445002220462946564B02F04AFEE8
:1047F000C8B1079AE2B10B9B002B40F3F98009F195
:10480000FF3010902946204600224F4B02F0C8FB93
:10481000CDE904010B9901370C910DE0079ACDF811
:1048200040900C9208E0079BCDF840900C9303E079
:104830000798CDF840900C90384602F04BFBDDE92C
:10484000042302F0ADFB0022404B02F0F7F90C9F6D
:104850000446A1F15075CFB900223D4BDDE90401BA
:1048600002F0EAF922462B4606460F4602F028FEE1
:10487000002840F05282224605F100433046394676
:1048800002F000FE002840F03E82B1E00C9F2B4B6E
:104890007A1E0F9F03EBC203002F5DD0D3E90023E4
:1048A00000202C4902F0A6FC22462B4602F0C4F957
:1048B000DDE90467DDF8248004460D4639463046BC
:1048C00002F008FE029002F005FB02460B4630465D
:1048D000394602F0B1F9DDF808C022460CF1300388
:1048E00008F8013B2B4606460F4602F0CBFD002898
:1048F00040F03A8332463B460020124902F09CF9D0
:1049000022462B4602F0BEFD002840F0D4800998D4
:104910000C99C0EB08038B426ADA20462946002234
:10492000094B02F03DFB002204460D463046394655
:10493000054B02F035FB06460F46BFE7207D4000E1
:10494000107E40000000F03F0000244000001C40AA
:10495000000014400000E03F2246D3E900012B464E
:1049600002F01EFBDDE90467DDF824800C9ACDE936
:104970001601099C90443946304602F0ABFD0546CD
:1049800002F0A8FA02460B463046394602F054F9C6
:10499000303504F8015B444506460F4621D100221C
:1049A000874BDDE9160102F049F902460B46304615
:1049B000394602F085FD00287DD1DDE9162300206F
:1049C0007F4902F039F902460B463046394602F07B
:1049D00059FD68B1A04618F8013C013C302BF9D0D4
:1049E000C2E20022774B02F0DBFA06460F46C2E72E
:1049F000DDE91201CDE90401199B002B7CDBB9F143
:104A00000E0F79DC704B259F03EBC903002FD3E910
:104A1000004514DA079F002F11DC40F07681204614
:104A200029460022694B02F0BBFADDE9042302F0BB
:104A30003DFD079D2C46002840F0698171E1DDF8BD
:104A40002480DDE9046722462B463046394602F0D1
:104A5000D1FB02F03FFD049002F03CFA22462B46C7
:104A600002F09EFA02460B463046394602F0E4F860
:104A7000049F024607F13006099F08F8016BC7EB57
:104A80000806079F0B46BE4229D102F0D7F82246FE
:104A90002B4606460F4602F013FD70B930463946E4
:104AA00022462B4602F0E4FC002800F05F82049FBF
:104AB000FB0702D45AE2DDF840904346984618F8C6
:104AC000012C013B392A06D1099F9F42F6D13022A1
:104AD00009F101093A701A7801321A7046E200228F
:104AE000384B02F05DFA0022002306460F4602F022
:104AF000BFFC0028A7D039E20F9F002F30D0249FA1
:104B0000012F0ADC159F17B103F2334302E0189B13
:104B1000C3F136030E9D089E16E0079F7D1E0E9F73
:104B2000AF4201DB7D1B06E00E9F0E95EB1B119F34
:104B300000251F441197079F002F03DA08980023D0
:104B4000C61B01E0089E079B089F50461F4408971C
:104B50000A9F01211F440A9700F0ACFE044602E0C0
:104B60000E9D089E0F9C6EB10A9F002F0ADD3B46EA
:104B7000089FB342A8BF3346FF1A08970A9FF61A48
:104B8000FF1A0A970E9F002F28DD0F9F07B3002DF5
:104B900010DD21462A46504600F02DFF04465A46B5
:104BA0002146504600F08FFE59460746504600F019
:104BB000AFFDBB460E9F7A1B10D0504659460AE007
:104BC0000000E03F00002440207D40000000144031
:104BD0000E9A5046594600F00EFF8346504601217A
:104BE00000F068FE119F0546002F05DD294650465E
:104BF0003A4600F000FF0546249F012F12DC04987E
:104C000080B90599C1F3130373B921F000473F0D33
:104C10003F0557B1089F013708970A9F01370A9748
:104C2000012702E0002700E0049F119840B12B69A2
:104C300005EB8303186900F0F0FDC0F1200000E0EF
:104C400001200A9B034413F01F030FD0C3F120027D
:104C5000042A09DD08990A9AC3F11C0319441A446D
:104C600008911E440A9209E008D0134608980A9950
:104C70001C331844194408901E440A91089A002ACB
:104C800004DD5946504600F0F5FE83460A9B002B92
:104C900005DD294650461A4600F0ECFE05461498FC
:104CA000E0B15846294600F038FF002816DA594688
:104CB00050460A22002300F034FD0F9909F1FF3914
:104CC000834649B121460A225046002300F029FDBF
:104CD0000B9A0446079201E00B9B07930798002864
:104CE00029DC2499022926DD88B929460522079B5B
:104CF000504600F016FD05462946584600F00DFFC7
:104D000000280EDC03E00C9D00E000252C46259FCA
:104D1000DDF824806FEA07090AE00C9DDDF8409079
:104D20002C46099F312307F101083B7009F1010965
:104D30002746002407E10F98002800F0BB80002ED2
:104D400005DD21465046324600F094FE04469FB1F0
:104D50006168504600F0B6FC22690646023204F152
:104D60000C0192000C30FEF72DFA5046314601221C
:104D700000F080FE074600E02746099E2946584677
:104D8000FFF7CEFA214600F1300C80465846CDF8A8
:104D900008C000F0C2FE3A4608902946504600F08E
:104DA000D9FEC3680246DDF808C04BB91146584623
:104DB000039200F0B2FE039A0346DDF808C000E05B
:104DC0000123504611460393CDF808C000F0A0FC23
:104DD000039BDDF808C063B9249951B9049800F029
:104DE000010232B9BCF1390F35D0089B002B24DC0D
:104DF00025E00898002802DA002B08DC1FE023D108
:104E0000249909BB049800F00102EAB9F4E7594675
:104E100001225046CDF808C000F02CFE29468346FA
:104E200000F07BFE0028DDF808C003DC07D11CF091
:104E3000010F04D0BCF1390F0DD008F1310C06F18F
:104E4000010886F800C07EE0002B06F1010809DDAC
:104E5000BCF1390F03D13923337001365BE00CF11B
:104E6000010368E00999079AC1EB0803464693429B
:104E700006F801CC3CD059460A220023504600F0E7
:104E800050FCBC428346214650464FF00A024FF088
:104E9000000304D100F045FC044607466EE700F02D
:104EA00040FC394604460A225046002300F039FCF3
:104EB000074663E70F9E58462946FFF731FA099FD8
:104EC00000F1300C07F806C0079F0136BE4207DB31
:104ED000099E012FACBFF61901362746002407E0D2
:104EE000594650460A22002300F01BFC8346E2E7A5
:104EF000594601225046CDF808C000F0BBFD2946B6
:104F0000834600F00AFE0028DDF808C003DC14D157
:104F10001CF0010F11D016F8013CB046392B06F1F8
:104F2000FF3607D10998B042F5D1312309F10109C3
:104F3000037008E00133337005E0B04618F8013C17
:104F4000013E302BF9D05046294600F0E1FB6FB10D
:104F50002CB1BC4203D05046214600F0D9FB50464C
:104F6000394600F0D5FB01E0DDF840905046594647
:104F700000F0CEFB0023269F88F8003009F10103E2
:104F80003B60289F27B1C7F8008001E0024800E09D
:104F900009981BB0BDE8F08FF87B4000AFF30080AC
:104FA00038B5084D084C641BA41005EB840524B1EA
:104FB00055F8043D013C9847F9E7BDE8384002F058
:104FC00055BF00BF787E40007C7E4000F8B5234D81
:104FD0000E46044600F073FBAB685F6827F00307DA
:104FE000BE1B06F6EF7626F47F6626F00F06A6F5C2
:104FF0008056B6F5805F04DA204600F061FB0020A1
:10500000F8BD2046002101F013F9AB683B449842FB
:10501000F2D12046714201F00BF9013010D1204647
:10502000002101F005F9AB68C21A0F2AE4DD0C4932
:1050300042F0010209685A60401A0A490860DBE739
:10504000AB68BF1B47F001075F60064B20461A683C
:10505000961B1E6000F034FB0120F8BD680500209F
:1050600070090020D80B0020F8B506460D4600292F
:1050700000F0A98000F023FB55F804CC524CA5F1B8
:1050800008032CF001029818A1684768884227F0AD
:1050900003070CF001011BD13A4439B955F8081C3B
:1050A0005B1A98680A44D968C160886042F00101BF
:1050B0005960A360454B1B689A4204D3444B304669
:1050C0001968FFF783FF3046BDE8F84000F0F8BAF2
:1050D000476079B955F8085C04F1080C5B1B2A4459
:1050E0009D68654508D0D3F80CC0C5F80CC0CCF855
:1050F000085002E0002100E00121C5196D68ED07AC
:105100000ED43A44856841B9324FBD4205D163613E
:1051100023610121DD609D6002E0C068E860856078
:1051200042F0010058609A500029CCD1B2F5007FBE
:105130000ED2D2089110012088406168014361605D
:1051400004EBC204A268DC609A60A360D360BAE793
:10515000510A042902D89109383115E0142901D8DF
:105160005B3111E0542902D8110B6E310CE0B1F51E
:10517000AA7F02D8D10B773106E040F25450814229
:105180009ABF910C7C317E2104EBC104A5680E48C6
:10519000A54201D029460BE00122891002FA01F153
:1051A00042680A434260294608E08968A14204D067
:1051B000486820F003008242F7D3CD68DD60996033
:1051C000AB60CB607FE7F8BD680500207409002064
:1051D000D40B00207005002010B514460AB90B4806
:1051E00010BD10460A4901F033F80028F7D02046D8
:1051F000064901F02DF80028F1D02046054901F0BC
:1052000027F80028014818BF002010BDA47B4000EB
:10521000087D40000F7D400000487047EC040020EE
:10522000014B186A704700BFEC040020004870472B
:10523000100500200020704700487047300500200E
:105240000A460349034608681946FFF7C5BF00BF71
:10525000B800002000487047300500202DE9F74FC6
:1052600001F10B04162C074603D934F0070401D5CD
:1052700002E010248C4202D20C233B60DEE138466F
:1052800000F01DFAB4F5FC7FA34D14D2E20805EB43
:10529000C203DE689E4206D106F1080376699E428B
:1052A00008BF023243D07368F268B16823F0030389
:1052B000CA6091605DE0620A1AD0042A02D8A2098D
:1052C000383218E0142A01D85B3214E0542A02D88C
:1052D000220B6E320FE0B2F5AA7F02D8E20B7732D2
:1052E00009E040F254539A4204D8A20C7C3202E006
:1052F0003F2200E07E2205EBC203DE689E4215D00D
:10530000716821F00301081B0F2801DD013A0DE04F
:10531000002809DBF368B268D3609A6073185A6892
:1053200042F001025A6094E1F668E7E701327A49F7
:105330002E6901F10800864286466DD0736823F01D
:105340000303C4EB030CBCF10F0F0DDD33194CF05C
:10535000010244F0010474604B610B61D8609860F5
:105360005A6043F80CC074E1BCF1000F4861086159
:1053700001DB3344D3E7B3F5007F11D2DB0898108B
:105380004FF0010C0CFA00FC48684CEA0000486041
:1053900001EBC3018B68F160B3608E60DE603BE0BF
:1053A000580A042802D89809383015E0142801D882
:1053B0005B3011E0542802D8180B6E300CE0B0F5C9
:1053C000AA7F02D8D80B773006E040F254518842C9
:1053D0009ABF980C7C307E2005EBC00CDCF80810DE
:1053E000DFF8348161450DD10123801003FA00F00C
:1053F000D8F804300343C8F804300B4608E0896845
:10540000614504D0486820F003008342F7D3CB689D
:10541000F360B1609E60CE600121931001FA03F346
:1054200069688B425DD80B4206D122F003025B0013
:105430000B4202F10402FAD005EBC200804694460A
:10544000D8F80C6046452DD0716821F00309C4EBF3
:1054500009010F2913DD331944F00104F268746067
:1054600056F8080FC260906041F001026B612B6139
:10547000C3F80CE0C3F808E05A6059500CE000296A
:105480000EDB06EB09014B6843F001034B60F36848
:1054900056F8082FD3609A60384600F011F9DCE026
:1054A000F668CFE70CF1010C1CF0030F08F10808B7
:1054B000C6D1910704D16A6822EA03026A6005E056
:1054C000A0F108010068013A8842F2D069685B00E7
:1054D0008B4206D82BB162460B42ADD104325B0041
:1054E000FAE7D5F80890D9F8043023F0030BA34568
:1054F00004D3C4EB0B030F2B00F3A280074909EB85
:105500000B030A68884604EB020AD5F80824013226
:1055100006D10AF1100A0BE068050020D40B002028
:105520000AF5805A0AF10F0A2AF47F6A2AF00F0A54
:1055300038465146019300F07BFE421C0646019B13
:105540006FD0984201D2A9456BD1D8F804209E4271
:105550005244C8F8042008D1C6F30B0129B9AB683E
:10556000DA444AF001025A604DE0D5F808140131DE
:1055700003D13C4BC3F8086403E0F31A1A44C8F89B
:10558000042016F007031CBFC3F10803F618B24449
:1055900003F58053CAF30B0ACAEB030A5146384697
:1055A00000F046FE431C04BF30464FF0000AD8F816
:1055B0000430801B5044534440F00100A945AE60C4
:1055C000C8F8043070601ED0BBF10F0F02D8012361
:1055D000736026E0D9F80430ABF10C0B2BF0070B0D
:1055E00003F001034BEA0303C9F80430052209EB79
:1055F0000B03BBF10F0F5A609A6004D9384609F1CA
:105600000801FFF731FDD8F80430D8F82C20934278
:1056100084BF154AD362D8F83020934284BF124A1F
:105620001363AB685A6822F00302A242C4EB020380
:1056300001D30F2B04DC384600F042F800260CE0C2
:10564000AE6844F0010243F0010334447260AC6080
:105650006360384600F034F80836304603B0BDE8E1
:10566000F08F00BF68050020D40B002010B5C9B230
:1056700002449042034605D01C7801308C42F8D198
:10568000184610BD002010BD814270B501D3002323
:105690000EE08C18A042FAD28518134613F1FF339E
:1056A00005D351426618F65C2944CE54F6E770BD26
:1056B000934203D0CC5CC4540133F9E770BD70470A
:1056C00070470000C36C70B505460C463BB1EA6CF0
:1056D00052F8240060B1016842F8241014E004215B
:1056E000212201F077FAE8640028F0D1002070BD93
:1056F000012101FA04F6721D2846920001F06AFAAF
:105700000028F3D04460866000220261C26070BD50
:1057100031B1C36C4A6853F82200086043F8221084
:1057200070472DE9F0410C461E460D6907461431BD
:105730000023086801331FFA80FC000C02FB0C6C8C
:10574000504300EB1C401FFA8CFC060CAB420CEBE8
:10575000004041F8040BECDBD6B1A3689D4212DB9C
:10576000616838460131FFF7ADFF226904F10C0191
:105770000232804692000C30FDF724FD2146384667
:10578000FFF7C6FF444604EB850301355E612561E2
:105790002046BDE8F0812DE9F8431446984603F110
:1057A000080209230D4692FBF3F20646012300216D
:1057B0009A4202DD5B000131FAE73046FFF782FFD3
:1057C000089B092C43614FF001030146036111DD81
:1057D00005F109094F46254417F8013B30460A22D6
:1057E000303BFFF79EFFAF420146F5D109EB0407BE
:1057F000083F02E005F10A0709242546454509DA74
:105800003B1B5B5D30460A22303BFFF78AFF0135C8
:105810000146F3E70846BDE8F883030C1B0413B9FF
:105820000004102300E0002310F07F4F04BF0002AB
:10583000083310F0704F04BF0001043310F0404FE4
:1058400004BF80000233002803DB420003D5581C4C
:1058500070471846704720207047036813F007020E
:105860000BD0D90722D49A0703D55B080360012027
:1058700070479B0803600220704799B209B91B0C5E
:10588000102213F0FF0F04BF1B0A0832190704BFD0
:105890001B090432990704BF9B080232D90702D4BE
:1058A0005B0805D001320360104670470020704746
:1058B0002020704710B50C460121FFF703FF01229D
:1058C0004461026110BD2DE9F04F164633690A6943
:1058D00085B09A420D4601DA35460E46D5F810805D
:1058E0003769AB68696808EB07049C42C8BF01319F
:1058F000FFF7E8FE00F1140303EB840101911A465F
:10590000DDF804A0524503D2002142F8041BF7E75A
:1059100005F1140106F1140201EB880802EB870778
:10592000CDF808800397039E1546B24256D2B5F8CB
:1059300000C00432BCF1000F25D00F461D460026E2
:1059400057F8049BD5F800801FFA89FB1FFA88FAE4
:105950000CFB0BAA4FEA19494FEA18480CFB0988BF
:10596000B24408EB1A481FFA8AFA4AEA084A4FEA90
:105970001846DDF80880AB46B8454BF804AB01D9B2
:105980005D46DDE76E6032F8028CB8F1000F23D07F
:105990001E680F461D464FF00009B7F800A0B5F885
:1059A00002C0B6B208FB0ACCE14446EA0946AC465E
:1059B0004CF8046B57F8046BB5F804A0360C08FBE0
:1059C00006A6DDF808A006EB194657454FEA16492A
:1059D00001D26546E1E76E600433A4E7019B002C29
:1059E00003DC046105B0BDE8F08F53F8042D002AF4
:1059F000F7D1013CF3E712F003032DE9F04105462E
:105A00000E46174607D01A4A013B52F823200023BE
:105A1000FFF787FE0646BF1027D0AC6C74B9284646
:105A200040F27121FFF746FF0023A864044603609B
:105A300004E07F1019D0206870B10446FB07F8D548
:105A4000314622462846FFF73EFF3146804628462B
:105A5000FFF75EFE4646ECE7284621462246FFF762
:105A600032FF002320600360E7E73046BDE8F081A5
:105A7000107D40002DE9F0470C4623694FEA621A79
:105A80000AEB03094968A3688046154609F1010736
:105A90009F4202DD01315B00FAE74046FFF712FE4C
:105AA0000023064600F11402534504DA002142F8AF
:105AB00023100133F8E720692AEAEA7104F114039C
:105AC00015F01F0C02EB810103EB800E16D0CCF118
:105AD000200A002518680A4600FA0CF0054342F82F
